:024B00004AB1B8
:084AB1001248F17F0402439654
:103259004E6F6B6961203535313020546573742C9C
:1032690020486168615E5F5E204920616D20736F4F
:1032790020676C616420746F2073656520796F75B0
:1032890020616769616E2120446F20796F75207410
:1032990068696E6B20736F3F0049204C6F7665201B
:1032A900596F7520415652003E2D2D282A5E5F5ECA
:1032B9002A292D2D3C00426C616E6B205465737474
:1032C90020004E6F726D616C205465737400426CFE
:1032D90061636B20546573742000496E766572735F
:1032E900652054657374004E6F726D616C2061675F
:0E32F90061696E00416C6578693230303800D2
:0536500042054732595C
:104231009004207440F0A37402F0A3120EC3900402
:10424100277401F0E4A3F0A304F0A3F0E4A3F0A326
:0C425100F07B017A0479207F01020F3617
:1019B0009004207432F0A37459F0A37432F0A3742D
:1019C000A2F090042774C8F0900420E0FEA3E0F594
:1019D000828E83E4936027900420E475F001120C5A
:1019E000C1FAA9F07BFFE4FDFF12415F7FFA124AC2
:1019F0002C900424E004F0E4FF12493380CA9004E0
:101A000024E0FFC3E49FFFE49400FE900421E02F54
:101A1000F0900420E03EF0E0FEA3E0AA06F97BFF90
:101A2000E4FDFF123F437FC8124A2C7FC8124A2CA4
:101A30007FC8124A2C7FC8124A2C7FC8124A2C7FBA
:101A4000C8124A2C7FC8124A2C7FC8124A2C7FC861
:101A5000124A2C7FC8124A2C12449FE4900424F0AE
:101A6000900424E0FF900422E0FCA3E02FF582E440
:101A70003CF583E493FB7D021241297FFA124A2C44
:101A8000900424E004F0E0C3940E40D47FC8124ACE
:101A90002C7FC8124A2C7FC8124A2C7FC8124A2CAD
:101AA0007FC8124A2C7BFF7A3279B17D03E4FF12A2
:101AB000415F7FC8124A2C7FC8124A2C7FC8124A45
:101AC0002C7FC8124A2C7FC8124A2C7BFF7A3279AD
:101AD000BFE4FDFF12415F7FC8124A2C7FC8124A43
:101AE0002C7FC8124A2C7FC8124A2C7FC8124A2C5D
:101AF000E4FD7F081244E07FC8124A2C7FC8124AD6
:101B00002C7FC8124A2C7FC8124A2C7FC8124A2C3C
:101B10007BFF7A3279CBE4FDFF12415FE4FD7F0C5D
:101B20001244E07FC8124A2C7FC8124A2C7FC81288
:101B30004A2C7FC8124A2C7FC8124A2C7BFF7A326B
:101B400079D7E4FDFF12415F7FC8124A2C7FC8128B
:101B50004A2C7FC8124A2C7FC8124A2C7FC8124ACE
:101B60002CE4FD7F091244E07FC8124A2C7FC81282
:101B70004A2C7FC8124A2C7FC8124A2C7FC8124AAE
:101B80002CE4FD7F0C1244E07FC8124A2C7FC8125F
:101B90004A2C7FC8124A2C7FC8124A2C7FC8124A8E
:101BA0002C7BFF7A3279E3E4FDFF12415FE4FD7F95
:101BB0000D1244E07FC8124A2C7FC8124A2C7FC8FD
:101BC000124A2C7FC8124A2C7FC8124A2C7BFF7AFB
:101BD0003279F0E4FDFF12415FE4FD7F0C1244E036
:101BE0007FC8124A2C7FC8124A2C7FC8124A2C7F09
:101BF000C8124A2C7FC8124A2C12449F7FC8124A2E
:101C00002C7FC8124A2C7FC8124A2C7FC8124A2C3B
:101C10007FC8124A2CE4900424F0A3F0A3F09004AF
:101C200026E0FF04F0EFC394655030900424E0FFF9
:101C3000A3E0FDA3E02420FB1241297FFA124A2CE5
:101C4000900424E004F0E0B40E06E4F0A3E004F015
:101C5000900425E0B406C7E4F080C37BFF7A3279B4
:101C6000FD7D017F0212415FE4FD7F231244E0E429
:101C7000900424F0900427E004F0E0FFE4FD124417
:101C8000E07FFA124A2C900424E004F0E0C3940AA6
:101C900040E2E4900424F0900427E014F0E0FFE434
:101CA000FD1244E07FFA124A2C900424E004F0E094
:101CB000C3941440E2E4900424F0900424E0C3941C
:101CC0000A50A5900427E004F0E0FFE4FD1244E090
:0D1CD0007FFA124A2C900424E004F080DD1D
:1048F1007F007EC27D017C0012423112425D124571
:07490100801240610219B0B1
:014B02002290
:014B0300228F
:014B0400228E
:014B0500228D
:014B0600228C
:03000B0002288444
:10287F00C2AF80FE3212288385D00B75D008AAE034
:10288F00C28CE58A2443F58AE58C34F6F58CD28C1C
:10289F00EC2411F8E6BC000274FFC39581B4140058
:1028AF0040CE7901780E16E608700BC2AFE630E124
:1028BF00034418F6D2AF08D9EDEA8BD030070122C6
:1028CF00D50DFCC0E0C0D0C0F0C083C082C000C036
:1028DF0001C002C003C004C005C006C007E50C2339
:1028EF00240FF87440C2AF46F6D2AFD207E50CFF03
:1028FF0023240FF80F0808BF01047F00780FE6307C
:10290F00E4F200E50CC39F5020050C7410250CF861
:10291F00E6FDA68108E6AE0CBE000274FFCDF8E816
:10292F006D60E008E6C0E080F6E50CD39F4027E538
:10293F000C2411F8E6AE0CBE000274FFFD18E6CDB4
:10294F00F8E5816D6006D0E0F61880F5E50C2410EF
:10295F00C8F6150C80D3750D0AE50C23240FF87FEC
:10296F0004C2AFE610E61E30E00310E20C7F003029
:10297F00E10730E3047F0854F4547CC6D2AF54808F
:10298F004207C20722F6D2AFD007D006D005D00437
:10299F00D003D002D001D000D082D083D0F0D0D0DD
:0E29AF00D0E0C207227810A68174006006FFF7
:1029BD000876FFDFFB7F01E4780EF608F608DFFAF4
:1029CD00780F7630904B00740193C0E0E493C0E033
:1029DD00750D0A438901758A3C758CF6D28CD2AF80
:0429ED00D2A9220049
:102D9800AB07EB75F039A42494F582E43402F5838B
:102DA800120ECF00000000EB75F039A42498F582CC
:102DB800E43402F583120ECF00000000EB75F03901
:102DC800A424ACF582E43402F583120ECF0000008F
:102DD80000EB75F039A424A8F582E43402F58312D7
:102DE8000ECF000000009004A6E0FCA3E0FDA3E0E5
:102DF800FEA3E0FFEB75F039A4249CF582E43402CD
:102E0800F583120EC39004AAE0FCA3E0FDA3E0FE44
:102E1800A3E0FFEB75F039A424A0F582E43402F5B1
:102E280083120EC39004AEE0FCA3E0FDA3E0FEA372
:102E3800E0FFEB75F039A424A4F582E43402F583AD
:102E4800120EC3EB75F039A4249CF582E43402F524
:102E580083E0FCA3E0FDA3E0FEA3E0FFEB75F039FF
:102E6800A424B4F582E43402F583120EC3EB75F0A2
:102E780039A424A0F582E43402F583E0FCA3E0FD44
:102E8800A3E0FEA3E0FFEB75F039A424B0F582E4DB
:102E98003402F583120EC3EB75F039A424A4F5822D
:102EA800E43402F583E0FCA3E0FDA3E0FEA3E0FF29
:102EB800EB75F039A424B8F582E43402F583020EE8
:012EC800C346
:10497F00EF75F039A424C4F582E43402F583740191
:02498F00F02214
:1049C700EF75F039A424C4F582E43402F583E4F0EA
:0149D70022BD
:10216E0090054DEFF075F039A424C4F582E43402E5
:10217E00F583E0700302234790054DE0FF75F039BB
:10218E00A42490F582E43402F583E0F8A3E0F9A3E9
:10219E00E0FAA3E0FBEF75F039A4248CF582E43469
:1021AE0002F583E0FCA3E0FDA3E0FEA3E0FF12082E
:1021BE000390054DE0FB75F039A42494F582E434C8
:1021CE0002F583120EC3EB75F039A424A8F582E450
:1021DE003402F583C083C082E0FCA3E0FDA3E0FEE1
:1021EE00A3E0FF90054DE075F039A42494F582E448
:1021FE003402F583E0F8A3E0F9A3E0FAA3E0FB12C2
:10220E000807D082D083120EC390054DE0FF75F003
:10221E0039A424A8F582E43402F583E0F8A3E0F9AA
:10222E00A3E0FAA3E0FBEF75F039A424A0F582E455
:10223E003402F583E0FCA3E0FDA3E0FEA3E0FF1271
:10224E0008F8C004C005C006C00790054DE0FF7534
:10225E00F039A42494F582E43402F583E0F8A3E087
:10226E00F9A3E0FAA3E0FBEF75F039A4249CF58204
:10227E00E43402F583E0FCA3E0FDA3E0FEA3E0FF5F
:10228E001208F8D003D002D001D000120807C00403
:10229E00C005C006C00790054DE0FF75F039A424B7
:1022AE0098F582E43402F583E0F8A3E0F9A3E0FAAE
:1022BE00A3E0FBEF75F039A42494F582E43402F523
:1022CE0083E0FCA3E0FDA3E0FEA3E0FF1208039071
:1022DE00054DE075F039A424A4F582E43402F583AB
:1022EE00E0F8A3E0F9A3E0FAA3E0FB1208F8D003AC
:1022FE00D002D001D00012080790054DE0FB75F01A
:10230E0039A424ACF582E43402F583120EC3EB75C6
:10231E00F039A42494F582E43402F583E0FCA3E0C2
:10232E00FDA3E0FEA3E0FFEB75F039A42498F5823F
:0A233E00E43402F583120EC3D3222B
:1043B800AB079004FDE0FCA3E0FDA3E0FEA3E0FF53
:1043C800EB75F039A424C0F582E43402F583020EBB
:0143D800C321
:1043D900AB07900502E0FCA3E0FDA3E0FEA3E0FF2C
:1043E900EB75F039A424BCF582E43402F583020E9E
:0143F900C300
:1043FA00AB07900507E0FCA3E0FDA3E0FEA3E0FF06
:10440A00EB75F039A42490F582E43402F583020EA8
:01441A00C3DE
:10441B00AB0790050CE0FCA3E0FDA3E0FEA3E0FFDF
:10442B00EB75F039A424A0F582E43402F583020E77
:01443B00C3BD
:10443C00AB07900511E0FCA3E0FDA3E0FEA3E0FFB9
:10444C00EB75F039A4249CF582E43402F583020E5A
:01445C00C39C
:10445D00AB07900516E0FCA3E0FDA3E0FEA3E0FF93
:10446D00EB75F039A424A4F582E43402F583020E31
:01447D00C37B
:10447E00AB0790051BE0FCA3E0FDA3E0FEA3E0FF6D
:10448E00EB75F039A4248CF582E43402F583020E28
:01449E00C35A
:10475500EF75F039A4248CF582E43402F583E0FC8E
:0A476500A3E0FDA3E0FEA3E0FF22A5
:10476F00EF75F039A42494F582E43402F583E0FC6C
:0A477F00A3E0FDA3E0FEA3E0FF228B
:10478900EF75F039A42498F582E43402F583E0FC4E
:0A479900A3E0FDA3E0FEA3E0FF2271
:1047A300EF75F039A4249CF582E43402F583E0FC30
:0A47B300A3E0FDA3E0FEA3E0FF2257
:1047BD00EF75F039A424A0F582E43402F583E0FC12
:0A47CD00A3E0FDA3E0FEA3E0FF223D
:1047D700EF75F039A424A4F582E43402F583E0FCF4
:0A47E700A3E0FDA3E0FEA3E0FF2223
:1047F100EF75F039A424ACF582E43402F583E0FCD2
:0A480100A3E0FDA3E0FEA3E0FF2208
:10480B00EF75F039A424A8F582E43402F583E0FCBB
:0A481B00A3E0FDA3E0FEA3E0FF22EE
:052B2E00900498EDF099
:102B3300E490049FF0A3F090049BE0FFA3E09004D3
:102B4300A1CFF0A3EFF0900499E0FFA3E09004A3DA
:102B5300CFF0A3EFF0E490049DF0A3F0900498E08D
:102B6300FF90049DE0FCA3E0FDC39F7480F8EC6438
:102B730080984003022C28ED25E0FFEC338F82F58B
:102B830083120CD7FFC39004A2E09F9004A1E095A9
:102B9300F0501D90049EE025E0FF90049DE0338FEC
:102BA30082F583120CD7FF9004A1E5F0F0A3EFF0B8
:102BB30090049EE025E0FF90049DE0338F82F5832F
:102BC300120CD7FFD39004A4E09F9004A3E095F0E8
:102BD300401D90049EE025E0FF90049DE0338F822A
:102BE300F583120CD7FF9004A3E5F0F0A3EFF09068
:102BF300049EE025E0FF90049DE0338F82F583126D
:102C03000CD7FFAEF09004A0E02FF090049FE03EBD
:102C1300F090049EE004F06003022B5F90049DE0BB
:102C230004F0022B5F9004A3E0FEA3E0FF9004A254
:102C3300E02FFF9004A1E03EFEC39004A0E09FFFBD
:102C430090049FE09EFEF0A3EFF0900498E024FE32
:102C5300FDE434FFFC120C5690049FEEF0A3EFF05A
:012C6300224E
:10365500602A038400000000000000000000000054
:103665000000000000000000000000000000000055
:0E367500000000000000000000000000000047
:1033B5009004B9EBF0A3EAF0A3E9F0900003120B37
:1033C500E3FF9004B5E0FBA3E0FAA3E0F9A3E0FE78
:1033D500F582758300EF120C229004B9E0FBA3E09F
:1033E500FAA3E0F9900002120BE3FFEE2401FDE4DD
:1033F50033FC9004B5E0FBA3E0FAA3E0F98D828CE1
:1034050083EF120C229004B9E0FBA3E0FAA3E0F9E4
:10341500900001120BE3FFEE2402FDE433FC90045F
:10342500B5E0FBA3E0FAA3E0F98D828C83EF120CE3
:10343500229004B9E0FBA3E0FAA3E0F9120BCAFF5E
:10344500EE2403FDE433FC9004B5E0FBA3E0FAA30E
:0A345500E0F98D828C83EF020C2257
:10419A009004EEE0900523F0122C64E49004EFF012
:1041AA009004EEE0FF1235089004EFE0FEC39F5042
:1041BA001774842EF582E43403F583E0FF12432555
:0841CA009004EFE004F080D83E
:0141D20022CA
:102C640090051F120EC3900523E0FFD3940A40037E
:102C7400022D97EF7003022D97EF14B40A0040035E
:102C8400022D97902C9575F003A4C58325F0C58378
:102C940073022CB3022CC9022CE0022CF7022D0E75
:102CA400022D24022D3A022D50022D66022D7C9015
:102CB40004B57401F0A37403F0A37484F0A3740145
:102CC400F0FB022D909004B57401F0A37403F0A3FB
:102CD4007484F0A37405F07B01022D909004B57404
:102CE40001F0A37403F0A37484F0A37409F07B01CE
:102CF400022D909004B57401F0A37403F0A37484BE
:102D0400F0A3740DF07B01022D909004B57401F0D2
:102D1400A37403F0A37484F0A37411F07B01806C9A
:102D24009004B57401F0A37403F0A37484F0A37445
:102D340015F07B0180569004B57401F0A37403F080
:102D4400A37484F0A37419F07B0180409004B574DB
:102D540001F0A37403F0A37484F0A3741DF07B0149
:102D6400802A9004B57401F0A37403F0A37484F072
:102D7400A37421F07B0180149004B57401F0A37452
:102D840003F0A37484F0A37425F07B017A05791F02
:042D94001233B5221F
:10350800EFD3940A5003EF70037F00229003847472
:1035180024F0EF14B40A0040030235AA903532753E
:10352800F003A4C58325F0C58373023550023559CD
:1035380002356202356B02357402357D023586022A
:10354800358F0235980235A19003897405F07F06FE
:103558002290038D7409F07F0A22900391740DF074
:103568007F0E229003957411F07F122290039974B4
:1035780015F07F162290039D7419F07F1A2290038C
:10358800A1741DF07F1E229003A57421F07F2222D2
:103598009003A97425F07F26229003AD7429F07F4B
:0535A8002A227F002231
:10499100900524EEF0A3EFF0A3EBF0A3EAF0A3E976
:0249A100F02202
:08368300C100C101C102C10335
:104580009004217478F0E4900420F07B017A04799F
:0E459000207F0212251CD2A3D2A4D2A5D2A64F
:01459E0022FA
:0A4A8100EF4E7005EE4F24FFB32244
:10463800EF24F0600F24F0600E24E0600D24387041
:0D4648000BA20022A20122A20222A2032244
:103E4500A2A3E4FE33FF124A81500EA2A3E433FF7E
:103E5500124A815006D2008002C200A2A4E4FE33B9
:103E6500FF124A815007200106D2018002C201A239
:103E7500A5E4FE33FF124A815007200206D20280D4
:103E850002C202A2A6E4FE33FF124A8150062003B5
:073E950005D20322C2032243
:02368B00C10874
:10425D009004217405F0E4900420F07B017A047938
:10426D00207F0512251C124AEC7FC8124A2C124AD7
:07427D00F17FC8124A2CD3A7
:014284002217
:054AEC00C2CDD208223A
:054AF100D2CDC2082235
:10439600900420EFF0900420E0FF14F0EF6012127A
:1043A6004AEC7FC8124A2C124AF17FC8124A2C8066
:0243B600E422FF
:034AFA00A20822ED
:064ACE0090054EEFF022FE
:10382A00900529EFF07F337E337D737C3FA3E0F868
:10383A00A3E0F9A3E0FAA3E0FB120A9E600C400A97
:10384A0090052A120ECF3F7333337FCD7ECC7D4C49
:10385A007C3D90052AE0F8A3E0F9A3E0FAA3E0FB97
:10386A00120A9E500A90052A120ECF3D4CCCCD90DA
:10387A000529E02404FFC007A3E0FCA3E0FDA3E0C0
:10388A00FEA3E0FF90052F120EC3D007122FDF9080
:10389A00052AE0FCA3E0FDA3E0FEA3E0FF120B492A
:1038AA00900529E025E02434F582E43405F583EF18
:0238BA00F022FA
:1045FC0090054FEFF02404FF12428590054FE02503
:0E460C00E02433F582E43405F5837401F022D6
:10465500900550EFF02404FF12434C900550E025DF
:0D466500E02433F582E43405F583E4F0220F
:104A1C00EF25E02433F582E43405F583E024FF220E
:103C5A00E4900460F0A37408F07B017A0479607F31
:103C6A000212251C9004617404F07B017A047960C5
:103C7A007F0212251CD2A2D2A343BA80E490046226
:103C8A00F0A3F0A3F0A304F0E4A3F0A3F0A3F0A33D
:103C9A00F0A3F0A3F0A3F0A3F0A3F0A3F0A3F0A382
:103CAA00F07B017A0479627F021216167B017A048C
:0A3CBA0079627F0312161653BA7FD9
:013CC40022DD
:052348009003AEEFF070
:10234D00E49003BDF0A37480F07B017A0379BD7F27
:10235D000312251CD2B743BA80E49003BFF0A3F05B
:10236D00A3F0A304F0E4A3F0A3F0A3F0A3F0A3F073
:10237D00A3F0A3740FF0E4A3F0A3F0A3F0A3F0A3D4
:10238D00F09003AEE0FF7B017A0379BF121616536E
:10239D00BA7F9003AEE0FF7D101249FA9003AEE0D4
:1023AD00FF7D327C00123D2E9003AFE0FCA3E0FDDB
:1023BD00A3E0FEA3E0FF9003AEE0FB75F025A4249F
:1023CD0003F582E43403F583120EC39003B3E0FCEE
:1023DD00A3E0FDA3E0FEA3E0FFEB75F025A4240729
:1023ED00F582E43403F583120EC39003B7E0FCA32A
:1023FD00E0FDA3E0FEA3E0FFEB75F025A42415F5A9
:10240D0082E43403F583120EC39003BBE0FEA3E018
:10241D00FFEB75F025A4240FF582E43403F583EE6C
:10242D00F0A3EFF0EB75F025A42403F582E434035B
:10243D00F583E0F8A3E0F9A3E0FAA3E0FB9003AE87
:10244D00E075F025A42407F582E43403F583E0FC60
:10245D00A3E0FDA3E0FEA3E0FF120803C004C00546
:10246D00C006C0079003AEE075F025A4240FF582D9
:10247D00E43403F583E0FCA3E0FDE4120B10A804A3
:10248D00A905AA06AB07D007D006D005D004120ABD
:10249D00019003AEE0FB75F025A4240BF582E43426
:1024AD0003F583120EC3EB75F025A4240FF582E41A
:1024BD003403F583E0FCA3E0FDE4120B10A804A99E
:1024CD0005AA06AB079003AEE075F025A42415F51B
:1024DD0082E43403F583E0FCA3E0FDA3E0FEA3E07A
:1024ED00FF120A019003AEE0FB75F025A42419F547
:1024FD0082E43403F583120EC3EB75F025A4241189
:0E250D00F582E43403F583120ECF00000000C7
:01251B00229D
:052EC9009004BCEFF0D5
:102ECE00A3E0FCA3E0FDA3E0FEA3E0FF9004BCE0C2
:102EDE00FB75F025A424FEF582E43402F583120E70
:102EEE00C3EB75F025A42419F582E43403F583E0D1
:102EFE00F8A3E0F9A3E0FAA3E0FB9004BDE0FCA385
:102F0E00E0FDA3E0FEA3E0FF120A019004BCE07511
:102F1E00F025A4240BF582E43403F583E0F8A3E056
:102F2E00F9A3E0FAA3E0FB1208F89004BCE075F0F8
:102F3E0025A42403F582E43403F583E0F8A3E0F935
:102F4E00A3E0FAA3E0FB1208079004BCE0FB75F0C7
:102F5E0025A4241FF582E43403F583120EC3EB750A
:102F6E00F025A4241FF582E43403F583E0FCA3E0EE
:102F7E00FDA3E0FEA3E0FFE4FBFA79A07841120A7C
:102F8E00019004C1120EC39004C1E0FCA3E0FDA3A6
:102F9E00E0FEA3E0FF90052F120EC39004BCE0FFED
:102FAE00122FDF9004BCE0FB75F025A424FEF58201
:102FBE00E43402F583E0FCA3E0FDA3E0FEA3E0FF12
:102FCE00EB75F025A42411F582E43403F583020E8B
:012FDE00C32F
:10482500EF75F025A42411F582E43403F583E0FC4B
:0A483500A3E0FDA3E0FEA3E0FF22D4
:1044C000900551EFF0124285900551E075F025A45A
:1044D000241DF582E43403F583E4F0A304F0D32231
:10459F00900552EFF012434C900552E075F025A4B0
:0F45AF00241DF582E43403F583E4F0A3F0D32256
:1036F2009004F0EFF075F00EA424F9F582E434039F
:10370200F583E0FEA3E0FF7C007D63120C56EF24FC
:1037120001FFE43EFE9004F5E0FD7C00120C44AA99
:1037220006AB079004F0E075F00EA424F9F582E4EC
:103732003403F583E0FEA3E0FF7D63120C56C3EB76
:103742009FFDEA9EFCC004C0059003F8E0FCE41271
:103752000B159004F1E0F8A3E0F9A3E0FAA3E0FB73
:103762001208F89003F4E0F8A3E0F9A3E0FAA3E06A
:10377200FB120A01120B49E4FCFD9004D8120EC39D
:0E3782009004F0E0FFD005D004123DEDD322FC
:1041D300900553EBF0C007AE04AF057C017D681278
:1041E3000C44AC06AD07E4120B109004F1120EC39D
:0F41F300900553E09004F5F0D0071236F2D32276
:1049D800EF75F00EA424F0F582E43403F583E0FFCC
:0149E80022AC
:074AB900900554EFF0D32239
:1046C900900555EFF0124520900555E075F00EA4C0
:0C46D90024F0F582E43403F583E4F022C1
:10467200900556EFF0124500900556E075F00EA435
:0D46820024F0F582E43403F5837401F02286
:074AC000900557EFF0D3222F
:074AC700900558EFF0D32227
:103E9C00AB079004C6E0FCA3E0FDA3E0FEA3E0FFAB
:103EAC00EB75F00EA424F4F582E43403F583120EC2
:103EBC00C39004CAE0FFEB75F00EA424F8F582E47D
:103ECC003403F583EFF09004CBE0FEA3E0FFEB7539
:103EDC00F00EA424F9F582E43403F583EEF0A3EF9D
:043EEC00F0023CC5DF
:0F4A3C00743B2FF582E43405F5837401F0D32227
:0E4A4B00743B2FF582E43405F583E4F0D322AA
:014B0700228B
:1046E5009004F6EFF0A3EDF0A37401F0E4A3F0A3BA
:0C46F500F0A3F07B017A0479F6023EF09D
:103BE000E490044AF0300963F0E4FF123D8F900442
:103BF0004AE025E02436F582E43404F583EEF0A3B0
:103C0000EFF090044AE004F0E0C3940A40DB7B014B
:103C10007A0479369004997404F0A3E4F0A3F0A335
:103C2000F07D0A122B2EAC06AD07E4120B109004A7
:103C3000CD120EC39004CDE0FCA3E0FDA3E0FEA3F3
:103C4000E0FFA3120EC39004CD80039004D1E0FCEA
:093C5000A3E0FDA3E0FEA3E0FFE8
:013C59002248
:10470100900559EFF0D2C87F01124A2C900559E06B
:0C471100F5C0D2CA7F01124A2CC2CA2295
:1042020090053EEBF0A3EAF0A3E9F090053EE0FB57
:10421200A3E0FAA3E0F9120BCAFFD39400400F12F5
:0F422200470190053FE475F001120CAB80DD22DF
:10468F0012461AD2CCC2CAC2C97F3812471D7F0C3C
:0D469F0012471D7F0612471D7F0102471DB7
:10471D0090055AEFF0C2C87F01124A2CD2CA9005FB
:0C472D005AE0F5C07F01124A2CC2CA22DB
:10461A0053C9EF43CA1053C9FE53CAFE53C9FD53C7
:0E462A00CAFD53C9FB53CAFBE4F5B3F5B42235
:0848A700900537ECF0A3EDF0E1
:1048AF00E4A3F0A3EFF07B017A057939E4FF022549
:0148BF001CDC
:0549E90090055BEFF0FA
:0B49EE00E4FF00000FEFB408F9000028
:0149F900229B
:101CDD000000000000000000004F000000000700A1
:101CED00070000147F147F1400242A7F2A1200237A
:101CFD0013086462003649552250000005030000A8
:101D0D0000001C224100000041221C000014083E6E
:101D1D0008140008083E08080000503000000008B4
:101D2D000808080800006060000000201008040288
:101D3D00003E5149453E0000427F40000042615146
:101D4D004946002141454B31001814127F100027E0
:101D5D0045454539003C4A494930000171090503A3
:101D6D0000364949493600064949291E00003636D4
:101D7D000000000056360000000814224100001437
:101D8D001414141400004122140800020151090614
:101D9D0000324979413E007E1111117E007F494983
:101DAD00493E003E41414122007F4141221C007FBE
:101DBD0049494941007F09090901003E4149497AD4
:101DCD00007F0808087F0000417F4100002040414E
:101DDD003F01007F08142241007F40404040007FBA
:101DED000204027F007F0408107F003E4141413E06
:101DFD00007F09090906003E4151215E007F091946
:101E0D0029460046494949310001017F0101003F42
:101E1D004040403F001F2040201F003F4038403FC2
:101E2D00006314081463000304780403006151492E
:101E3D00454300007F4141000015167C161500003A
:101E4D0041417F0000040201020400404040404037
:101E5D00000001020400002054545478007F4844CF
:101E6D00443800384444442000384444487F003806
:101E7D005454541800087E090102000C5252523E6F
:101E8D00007F080404780000447D40000020404499
:101E9D003D00007F102844000000417F4000007E7F
:101EAD00020C027C007E0402027C0038444444385B
:101EBD00007C1414140800081414187C007C080409
:101ECD00040800485454542000043F444020003C72
:101EDD004040207C001C2040201C003C4030403CF9
:101EED00004428102844000C5050503C00446454C9
:101EFD004C440000083641000000007F0000000047
:101F0D00413608000008040810080008082A1C08BB
:101F1D0000081C2A08080004027F02040010207F1C
:0E1F2D002010001C2A322A1C001C2244221CF8
:1044E000C2C9ED24FF92CA7E08EF30E704D2CB8028
:0F44F00002C2CBC2CCEF25E0FFD2CCDEECD2C9AA
:0144FF00229A
:10449F00E4FD7F801244E07F401244E07BF87A0114
:1044AF007D01E4FF1244E0EB1B70011AEB4A70F040
:0144BF0022DA
:10493300AD07E4FF12491F7C547D01E4FF1244E0FC
:02494300DCF79F
:01494500224F
:10491F00AC05EF4480FFEC4440FCE4FD1244E0AFF3
:04492F00040244E05A
:07412200E0FF04F0A3E0FD43
:1041290074E02BFBEF75F006A4FF12491FE4FC7540
:10413900F006EBA424DDF582E5F0341CF583E58275
:104149002CF582E43583F583E493FF7D011244E085
:054159000CECB406DAD5
:01415E00223E
:10415F00900428EFF0A3EDF0A3EBF0A3EAF0A3E9AE
:10416F00F090042AE0FBA3E0FAA3E0F9120BCAFBDC
:10417F006018900428E0C3940E500F12412290044F
:0B418F002BE475F001120CAB80D7226E
:103F4300900428EFF0A3EDF0A3EBF0A3EAF0A3E9CC
:103F5300F090042AE0FBA3E0FAA3E0F9120BCAFBFA
:103F6300602890042812412290042BE475F001127A
:103F73000CAB900428E0B40E06E4F0A3E004F09048
:0B3F83000429E0B406CBE4F080C72264
:10406100E4900420F0A304F0FB7A0479207F041289
:10407100251CC2C8D2C8E4FD7F211244E07F06128C
:1040810044E07F131244E07FB91244E07F201244E0
:10409100E07F0C1244E07F401244E07F801244E054
:0340A10002449F37
:10368D004403E3000000004403DF00000000440396
:10369D00DB000000004403D7000000004403D3000A
:0A36AD000000004403CF00000000FD
:103DED009004D5EFF0A3ECF0A3EDF09004D6E0FC39
:103DFD00A3E0FD7F05123D2E9004D6E0FEA3E0FF6B
:103E0D009004D5E0FB75F007A424EBF582E43403B0
:103E1D00F583EEF0A3EFF09004D8E0FCA3E0FDA352
:103E2D00E0FEA3E0FFEB75F007A424E7F582E43490
:083E3D0003F583120EC3D3222A
:1045000090055CEFF07F0512428590055CE075F048
:1045100007A424EDF582E43403F5837401F0D3227B
:1045200090055DEFF02405FF12434C90055DE075AA
:10453000F007A424EDF582E43403F583E4F0D322FC
:1049A300EF75F007A424EDF582E43403F583E024E6
:0249B300FF22E1
:103CC500E4900472F0A37480F07B017A0479727F2A
:103CD5000112251CD29790052F120ECF3F00000030
:103CE5007F05122FDF43BA80E4900474F0A3F0A39C
:103CF500F0A304F0E4A3F0A3F0A3F0A3F0A3F0A3D2
:103D0500F0A3740FF0E4A3F0A304F0E4A3F0A3047C
:103D1500F0E4A3F07B017A0479747F05121616533B
:093D2500BA7F7D107F050249FA06
:0300B3000230EE2A
:1030EE00C0E0C0F0C083C082C0D075D000C000C0A8
:1030FE0001C002C003C004C005C006C007E5F660EB
:10310E002B53F6DF9003E3120E8E9003E7E0F8A345
:10311E00E0F9A3E0FAA3E0FBD3120E3A506190035C
:10312E00E7120ECF000000007F05802DE5F6602E21
:10313E0053F6EF9003DF120E8E9003EEE0F8A3E04D
:10314E00F9A3E0FAA3E0FBD3120E3A50329003EE4D
:10315E00120ECF000000007F0412434C8021E5F6D2
:10316E00600553F6F78018E5F6600553F6FB800F01
:10317E00E5F6640160028004E5F6600353F6FDD0C7
:10318E0007D006D005D004D003D002D001D000D095
:0A319E00D0D082D083D0F0D0E03210
:103EF000120BCAF59D900001120BE3FFE5BC549F25
:103F00004FF5BC900002120BE3B4010543BC808066
:103F10000353BC7F900003120BE3B40105439720C9
:103F200080035397DF900005120BE3B40104D2AD78
:103F30008002C2AD900004120BE3B40103D2BD2293
:033F4000C2BD22DD
:0C4A7500EFB4010443BC802253BC7F223C
:103D8F00EFD3940740028051E4F5BDF5BEE5BC5476
:103D9F00E044084FF5BC00000000E4FBE5BC30E454
:103DAF003353BCEFE59730E509E5BD5403ADBEFCD9
:103DBF00801DAFBD7C00AD07ED7E007802C333CE12
:103DCF0033CED8F9FFE5BE5403FDEEFCEF4DFDAF4A
:0D3DDF0005AE04220BEBB4FAC37E047F0096
:013DEC0022B4
:03002B00024AF690
:044AF60053BCEF328C
:0F4A2C007D367C07ED1D70011C144C70F7DFF117
:014A3B002258
:034AFD00A20A22E8
:10251C00EFD3940540037F0122120BCAFED3940320
:10252C0040037F0222EF7041EE700B900001120B02
:10253C00E3F452935294120BCAB4010B90000112A3
:10254C000BE34293F45294120BCAFEB4020A9000AD
:10255C0001120BE342934294EEB4030D900001126E
:10256C000BE3FEF45293EE4294EF64017043120BB2
:10257C00CAFE700B900001120BE3F452915292EED2
:10258C00B4010B900001120BE34291F45292120B26
:10259C00CAB4020A900001120BE342914292120B50
:1025AC00CAB4030D900001120BE3FEF45291EE42FB
:1025BC0092EF64027043120BCAFE700B9000011272
:1025CC000BE3F452955296EEB4010B900001120BF2
:1025DC00E34295F45296120BCAB4020A900001120F
:1025EC000BE342954296120BCAB4030D90000112F4
:1025FC000BE3FEF45295EE4296EF64037043120B1C
:10260C00CAFE700B900001120BE3F452B152B2EE01
:10261C00B4010B900001120BE342B1F452B2120B55
:10262C00CAB4020A900001120BE342B142B2120B7F
:10263C00CAB4030D900001120BE3FEF452B1EE424A
:10264C00B2EF64047043120BCAFE700B90000112BF
:10265C000BE3F452B352B4EEB4010B900001120B25
:10266C00E342B3F452B4120BCAB4020A9000011242
:10267C000BE342B342B4120BCAB4030D9000011227
:10268C000BE3FEF452B3EE42B4EF64057043120B4D
:10269C00CAFF700B900001120BE3F452C952CAEF3F
:1026AC00B4010B900001120BE342C9F452CA120B95
:1026BC00CAB4020A900001120BE342C942CA120BBF
:1026CC00CAB4030D900001120BE3FFF452C9EF42A0
:0426DC00CA7F00228F
:10330700EF7034D3ED9498EC940340047C037D98DC
:10331700C3ED9450EC940050047C007D50C2DE90C5
:103327000454ECF0A3EDF0C374E89D90044FF074DF
:10333700039C90044E8073EF64017034D3ED94685E
:10334700EC940B40047C0B7D68C3ED9450EC940027
:1033570050047C007D50C2DE900456ECF0A3EDF0E3
:10336700C374B89D900451F0740B9C900450803A3C
:10337700EF64027038D3ED9480EC940740047C0727
:103387007D80C3ED9450EC940050047C007D50C2C6
:10339700DE900458ECF0A3EDF0AE04FFC374D09FA9
:0E33A700900453F074079E900452F0D2DE2280
:1026E000900541EBF0A3EAF0A3E9F0AD07EDD39438
:1026F00003400302287EED6403704CC2DEF5F9F559
:10270000E9900541E0FBA3E0FAA3E0F9120BCAFF50
:10271000E5A254CF4FF5A2900001120BE3FFE5D9DB
:1027200054F14FF5D9900004120BE35401FFE5D9A1
:1027300054FE4FF5D9900005120BE3B40104D2BF4B
:102740008002C2BFD2DE22900541E0FBA3E0FAA3E3
:10275000E02404F9E43AFA120BCA5431120C109036
:102760000541E0FBA3E0FAA3E0F9900002120BE3BD
:10277000C39448400FE92404F9E43AFA120BCA540E
:10278000CF120C10ED704F900541E0FBA3E0FAA3CF
:10279000E0F9900004120BE3FF900002120BE3FE3D
:1027A0004FF5DA900003120BE3FFE5F2543F4FF5CB
:1027B000F2900006120CD7FBAAF0900454EAF0A3A2
:1027C000EBF0C20490044BEEF090045AEAF0A3EB55
:1027D000F0F5EAEAF5FAED6401704F900541E0FB8F
:1027E000A3E0FAA3E0F9900004120BE3FF900002CB
:1027F000120BE3FE4FF5DB900003120BE3FFE5F352
:10280000543F4FF5F3900006120CD7FBAAF090044A
:1028100056EAF0A3EBF0C20590044CEEF090045C95
:10282000EAF0A3EBF0F5EBEAF5FBED6402704F90F4
:102830000541E0FBA3E0FAA3E0F9900004120BE3EA
:10284000FF900002120BE3FE4FF5DC900003120B29
:10285000E3FFE5F4543F4FF5F4900006120CD7FD6A
:10286000ACF0900458ECF0A3EDF0C20690044DEEED
:0F287000F090045EECF0A3EDF0F5ECECF5FC223B
:1029F100900545ECF0A3EDF0900544EFF0705ED347
:102A0100EB9464EA940040047A007B64C3EB940184
:102A1100EA940050047A007B01C2DE900545E0FE95
:102A2100A3E0FFAD03AC02120C447C007D64120CE8
:102A310056900454EEF0A3EFF07C007D64AF03AE3A
:102A410002120C56C374019FFFE49EFE900545E0FF
:102A5100FCA3E0FD120C4490044E022B2690054489
:102A6100E06401705DD3EB9464EA940040047A0061
:102A71007B64C3EB9401EA940050047A007B01C2A9
:102A8100DE7C007D64AF03AE02120C56900545E07A
:102A9100FCA3E0FD120C44900456EEF0A3EFF07C91
:102AA100007D64AF03AE02120C56C374019FFFE4B4
:102AB1009EFE900545E0FCA3E0FD120C44900450FD
:102AC1008063900544E064027062D3EB9464EA94FD
:102AD1000040047A007B64C3EB9401EA9400500443
:102AE1007A007B01C2DE7C007D64AF03AE02120C72
:102AF10056900545E0FCA3E0FD120C44900458EE0D
:102B0100F0A3EFF0AE02AF037C007D64120C56C35C
:102B110074019FFFE49EFE900545E0FCA3E0FD12D9
:0D2B21000C44900452EEF0A3EFF0D2DE223F
:03003B000235ADDE
:1035AD00C0E0C083C082C0D075D000C006C0073057
:1035BD00D82AC2D830A505900454800390044EE05B
:1035CD00FEA3E0FF90045BE02FF090045AE03EF084
:1035DD0090045AE0FEA3E0F5EAEEF5FA30D92AC2DE
:1035ED00D930A6059004568003900450E0FEA3E068
:1035FD00FF90045DE02FF090045CE03EF090045CE1
:10360D00E0FEA3E0F5EBEEF5FB30DA2AC2DA30A7E7
:10361D00059004588003900452E0FEA3E0FF90044F
:10362D005FE02FF090045EE03EF090045EE0FEA3BC
:10363D00E0F5ECEEF5FCD007D006D0D0D082D083EB
:03364D00D0E03298
:05161600900549EFF012
:10161B00E4A3F090054AE0FFC39406505AEF75F02F
:10162B000AA42448F582E43403F583120ECF00009C
:10163B00000090054AE0FF75F00AA4244CF582E403
:10164B003403F583E4F0EF75F00AA4244DF582E43E
:10165B003403F583120ECF0000000090054AE075AD
:10166B00F00AA42451F582E43403F5837401F0905D
:10167B00054AE004F0809C43BA80120BCAB4010502
:10168B0043F180800353F17F900001120BE3B4010F
:10169B0014900549E0FF7401A807088002C333D8F2
:1016AB00FC42F18013900549E0FF7401A807088004
:1016BB0002C333D8FCF452F1900002120BE3B401D5
:1016CB000543F540800353F5BF900003120BE3B4C1
:1016DB000114900549E0FF7401A807088002C33389
:1016EB00D8FC42F58013900549E0FF7401A8070868
:1016FB008002C333D8FCF452F5900004120BE3B410
:10170B00010575F720800353F7DF900005120BE3FB
:10171B00B4010575F710800353F7EF900006120B19
:10172B00E3B4010575F708800353F7F79000071230
:10173B000BE3B4010575F704800353F7FB90000826
:10174B00120BE3B4010575F702800353F7FD90000C
:10175B0009120BE390FFF27006E054EFF08004E007
:10176B004410F090FFF2C083C082E0FF90000A1299
:10177B000BE3FEEF4ED082D083F0900549E014606E
:10178B00721470030218511470030218A41470031E
:10179B000218F71470030219482405600302199FFD
:1017AB0090000B120BE390FF047006E054F7F080EF
:1017BB0004E04408F090000C120BE390FF04B4011A
:1017CB0006E04404F08004E054FBF090000D120B93
:1017DB00E390FF04B40106E04402F08004E054FD02
:1017EB00F090000E120BE390FF04B4010302199565
:1017FB0002199B90000B120BE390FF147006E05440
:10180B00F7F08004E04408F090000C120BE390FF1B
:10181B0014B40106E04404F08004E054FBF09000A3
:10182B000D120BE390FF14B40106E04402F08004A8
:10183B00E054FDF090000E120BE390FF14B4010383
:10184B0002199502199B90000B120BE390FF247069
:10185B0006E054F7F08004E04408F090000C120B03
:10186B00E390FF24B40106E04404F08004E054FB51
:10187B00F090000D120BE390FF24B40106E044023C
:10188B00F08004E054FDF090000E120BE390FF2467
:10189B00B4010302199502199B90000B120BE390F4
:1018AB00FF347006E054F7F08004E04408F0900039
:1018BB000C120BE390FF34B40106E04404F08004F7
:1018CB00E054FBF090000D120BE390FF34B40106D3
:1018DB00E04402F08004E054FDF090000E120BE3A4
:1018EB0090FF34B4010302199502199B90000B125F
:1018FB000BE390FF447006E054F7F08004E04408DB
:10190B00F090000C120BE390FF44B40106E044048A
:10191B00F08004E054FBF090000D120BE390FF44B9
:10192B00B40106E04402F08004E054FDF090000E98
:10193B00120BE390FF44B40102804F805390000BD5
:10194B00120BE390FF547006E054F7F08004E04470
:10195B0008F090000C120BE390FF54B40106E04426
:10196B0004F08004E054FBF090000D120BE390FFA9
:10197B0054B40106E04402F08004E054FDF0900002
:10198B000E120BE390FF54B40106E04401F0800407
:10199B00E054FEF090000F120BE3B4010443F5800A
:0419AB002253F57F4F
:0119AF002215
:10483F00EF75F00AA42448F582E43403F583E0FC15
:0A484F00A3E0FDA3E0FEA3E0FF22BA
:10485900EF75F00AA4244DF582E43403F583E0FCF6
:0A486900A3E0FDA3E0FEA3E0FF22A0
:103D2E0090054BECF0A3EDF0AB0790054BE0FEA336
:103D3E00E0FFE4FCFDEB75F00AA42448F582E434C0
:103D4E0003F583120EC343BA8053F57FEB75F00A69
:103D5E00A42451F582E43403F583E0FF7E00900540
:103D6E004BE0FCA3E0FD120C44AB07AA06E4F9F805
:103D7E00FF7E367D6E7C0112401D1248D953BA7FEC
:013D8E002212
:102FDF0090052EEFF07F337E337D737C3FA3E0F8B7
:102FEF00A3E0F9A3E0FAA3E0FB120A9E600C400AEB
:102FFF0090052F120ECF3F7333337FCD7ECC7DCC18
:10300F007C3C90052FE0F8A3E0F9A3E0FAA3E0FBE6
:10301F00120A9E500A90052F120ECF3CCCCCCD90A9
:10302F00052FE0FCA3E0FDA3E0FEA3E0FF90052E3B
:10303F00E0FB75F00AA4244DF582E43403F5831206
:10304F000EC343BA80EB75F00AA42451F582E43421
:10305F0003F583E0FFE4FCFDFEEB75F00AA42448C2
:10306F00F582E43403F583E0F8A3E0F9A3E0FAA3D3
:10307F00E0FB120D0FA804A905AA06AB077F007E7F
:10308F00367D6E7C01120D9AE4120B0B90052EE02B
:10309F0075F00AA4244DF582E43403F583E0F8A318
:1030AF00E0F9A3E0FAA3E0FB1208F8E4FBFA7920B9
:1030BF0078411208F8E4FBFA79A07840120807E487
:1030CF00FBFA79207841120A01120B49AB07AA06C5
:0F30DF0090052EE0FFE4FDFC12379053BA7F22DC
:1049FA00EF75F00AA42451F582E43403F583EDF04F
:014A0A002289
:104A0B00EF75F00AA42451F582E43403F583E0FF3B
:014A1B002278
:0A4A8B0043BA8043F58053BA7F223E
:0A4A950043BA8053F57F53BA7F2225
:1042850043BA807401A807088002C333D8FC42F5FD
:10429500EF75F00AA4244CF582E43403F583740128
:0842A500F043F58053BA7F22BB
:10434C0043BA807401A807088002C333D8FCF45226
:10435C00F5EF75F00AA4244CF582E43403F583E4FC
:05436C00F053BA7F22AE
:1049B500EF75F00AA4244CF582E43403F583E02472
:0249C500FF22CF
:1048D900D3E49F74809E400D90FFF1EFF0EE90FFBE
:0848E900F0F07F00227F0122A4
:10379000EF14602814603A14604C14605E1460707A
:1037A0002405600302382790FF01EDF0EC90FF0044
:1037B000F090FF03EBF0EA90FF02806790FF11EDBD
:1037C000F0EC90FF10F090FF13EBF0EA90FF128006
:1037D0005290FF21EDF0EC90FF20F090FF23EBF0F2
:1037E000EA90FF22803D90FF31EDF0EC90FF30F049
:1037F00090FF33EBF0EA90FF32802890FF41EDF02C
:10380000EC90FF40F090FF43EBF0EA90FF42801312
:1038100090FF51EDF0EC90FF50F090FF53EBF0EA89
:0A38200090FF52F07F00227F01228A
:1031A80054696D65723120696E697469616C697AF8
:1031B800696E672073756363656564200A005469E6
:1031C8006D65723120696E697469616C697A696EBE
:1031D80067206661696C6564200A0054696D6572D0
:1031E8003320696E697469616C697A696E672073E6
:1031F800756363656564200A0054696D65723320E0
:10320800696E697469616C697A696E67206661695B
:103218006C6564200A0054696D65723420696E69B2
:103228007469616C697A696E672073756363656533
:1032380064200A0054696D65723420696E69746986
:10324800616C697A696E67206661696C6564200AD9
:013258000075
:1036B700410411024104120242041300004204159E
:1036C700000042040D000042040B000041041F00EB
:1036D70041040A004104100041040F00440417008C
:0A36E70000000044041B0000000076
:10345F00E4900494F0900484F0A3F0A304F0E4A3A8
:10346F00F0A3F090048BF090048974A2F0A3744041
:10347F00F0E490048CF0A3F0A304F0E4A3F0A3F025
:10348F0090049304F090049174FFF0A37410F07FF4
:10349F0001121F3B900494EFF070087BFF7A317993
:1034AF00A8800A900494E07BFF7A3179C61249080C
:1034BF007F03121F3B900494EFF070087BFF7A316B
:1034CF0079E3800A900494E07BFF7A327901124904
:1034DF00087B017A04798C7F04121F41900494EFCA
:1034EF00F070087BFF7A32791E800A900494E07B9B
:0834FF00FF7A32793C12490802
:0135070022A1
:10437100900411E0601EA3E0601AEF24FE600B04BC
:104381007012900417ECF0A3EDF0AF0590041BEC54
:05439100F0A3EFF02293
:10487300EF24FE600804700E900417800390041B5D
:0A488300E0FEA3E0FF22E4FEFF22A6
:10473900EF24FE600C047013900419ECF0A3EDF063
:0C47490022AF0590041DECF0A3EFF0225D
:10488D00EF24FE600804700E900419800390041D3F
:0A489D00E0FEA3E0FF22E4FEFF228C
:1048C000EF24FE600A047010C28E9004118006531B
:0948D000D1F79004127402F022E9
:1046AC00EF24FE600D047014900411E07002D3220C
:0D46BC00C322900412E07003D38001C322DA
:1045BE00EF24FE600E047016900411E0B40102D3D5
:0F45CE0022C322900412E0B40103D38001C32260
:1045DD00EF24FE600E047016900411E0B40202D3B5
:0F45ED0022C322900412E0B40203D38001C32240
:10454000AE071246AC4018EF24FE600B047010D288
:104550008EE4900411F02243D108E4900412F0227A
:0E4A5900AE071245BE5005124540D322C322BF
:094A9F0090040DE0FEA3E0FF22EB
:094AA80090040BE0FEA3E0FF22E4
:064AD40090041FE0FF2228
:064ADA0090040AE0FF2237
:064AE000900410E0FF222B
:064AE60090040FE0FF2226
:03001B00023FD6CB
:103FD600C0E0C0F0C083C082C0D075D000C000C0B1
:103FE60006900413E475F001120CABFED39004188E
:103FF600E095F0900417E09E500EC28E900413E4F4
:10400600F0A3F090041104F0D006D000D0D0D082F6
:07401600D083D0F0D0E032AE
:03009B00023F8E93
:103F8E00C0E0C0F0C083C082C0D075D000C000C0F9
:103F9E0006900415E475F001120CABFED390041CD0
:103FAE00E095F090041BE09E500F53D1F79004154E
:103FBE00E4F0A3F090041204F0D006D000D0D0D0DC
:083FCE0082D083D0F0D0E03274
:0300A300023948D7
:10394800C0E0C0F0C083C082C0D075D000C000C045
:1039580006C2AF90040DE475F00A120CABFEC3E585
:10396800F094E8EE9403405190040DE4F0A3F09035
:10397800040B75F001120CABFEC3E5F094E8EE946D
:1039880003403690040BE4F0A3F090041FE004F029
:10399800943C4025E4F090040AE004F0943C40197B
:1039A800E4F0900410E004F09418400DE4F0900462
:1039B8000FE004F0B4FF02E4F0D2AFD006D000D09C
:0A39C800D0D082D083D0F0D0E032DE
:061F3B007B017A047984A9
:101F4100AD07EDD3940440037F0122ED7073120BB2
:101F5100CAFED3940340037F0222C28CC2A9C2B934
:101F61005389F0538E7F538FFE900002120BE3B41E
:101F71000102D2A9900001120BE3B40102D2B9EE21
:101F81004289900003120BE3FF7003438E80EFB48C
:101F91000203438904900004120BE3B40103438F4D
:101FA10001900005120CD7E5F0F58C900005120C9C
:101FB100D7F58A900007120BE3B40102D28C7F009F
:101FC10022ED64017076120BCAFEC3940340037FB5
:101FD1000222C28EC2ABC2BB53890F538EBF538F35
:101FE100FD900002120BE3B40102D2AB900001128A
:101FF1000BE3B40102D2BBEEC454F042899000035A
:10200100120BE3FF7003438E40EFB4020343894098
:10201100900004120BE3B40103438F0290000512F8
:102021000CD7E5F0F58D900005120CD7F58B9000DB
:1020310007120BE3B40102D28E7F0022ED6402701D
:1020410063900003120BE3FED3940240037F02224C
:10205100538EE353AFFB538FFB900002120BE3B49B
:10206100010343AF04EE7003438E04900003120B8F
:10207100E3B40203438E08900004120BE3B401039E
:10208100438F04900005120CD7E5F0F5D6900005BA
:10209100120CD7F5D7900007120BE3B40103438E5E
:1020A100107F0022ED64037060900003120BE3FEC9
:1020B100D3940240037F022253D1F053AFDF90004B
:1020C10002120BE3B4010343AF20EE700343D102CC
:1020D100900003120BE3B4020343D10690000412F3
:1020E1000BE3B4010343D101900005120CD7E5F0D5
:1020F100F5D4900005120CD7F5D5900007120BE32B
:10210100B4010343D1087F0022ED6404705C9000A8
:1021110003120BE3FED3940240037F022253D10F3B
:1021210053AFBF900002120BE3B4010343AF40EE83
:10213100700343D120900003120BE3B4020343D197
:1021410060900004120BE3B4010343D11090000529
:10215100120CD7FDACF0ECF5D28DD3900007120B29
:0D216100E3B4010343D1807F00227F0222FE
:100F360090042EEBF0A3EAF0A3E9F090042DEFF075
:100F46006401600302114890000004F0E4A3F0A3DA
:100F5600F0A3F0A3F0A3F0A3F0900431F0900431D5
:100F6600E0FFC39480501474382FF582E43401F501
:100F760083E4F0900431E004F080E2E4900431F080
:100F8600900431E0FFC394805014741C2FF582E462
:100F96003400F583E4F0900431E004F080E290043C
:100FA6002EE0FBA3E0FAA3E0F9120BCAD394C040EB
:100FB600037F022290000A120BE3B40104D2BC8024
:100FC60002C2BC120BCAFFE598543F4FF598EF6476
:100FD600C06008EF644060030210C2900002120E67
:100FE6005E7F807E8D7D5B7C00120D9A90043212AE
:100FF6000EC3E4FFFE7D01FC900432E0F8A3E0F9A5
:10100600A3E0FAA3E0FBC3120E3A40037F0222904C
:101016000432E0F8A3E0F9A3E0FAA3E0FBC3E49B03
:10102600FFE49AFE740199FDE498FC900432120ED6
:10103600C390042EE0FBA3E0FAA3E0F990000112AE
:101046000BE3FB64017038C28E538EFE5389BF5387
:1010560089CF438E40900432E0FCA3E0FDA3E0FE7E
:10106600A3E0FF7808120E4B8F8D900432A3A3A342
:10107600E0F58BC2AB5389BF538FFDD28E8076EBE2
:1010860064027035538EEF438E01538EF7438E0400
:10109600900432E0FCA3E0FDA3E0FEA3E0FF7808A5
:1010A600120E4B8FD6900432A3A3A3E0F5D753AF0D
:1010B600FB538EF7438E10803C7F022290042EE075
:1010C600FBA3E0FAA3E0F9120BCAFF701390000825
:1010D600120BE3B40105438E20801A538EDF801570
:1010E600EFB48011900008120BE3B401054387802A
:1010F600800353877F90042EE0FBA3E0FAA3E0F978
:10110600900009120BE3B40104D2AC8002C2AC9089
:101116000007120BE3B40104D29C8002C29C90002B
:101126000B120BE354C0FFE5A2543F4FF5A290000B
:101136000C120BE3B4010543971080035397EF7F1E
:10114600002290042DE0640260030212AA900007B8
:101156007402F0E4A3F0A3F0A3F0A3F0A3F0A3F0CD
:10116600900431F0900431E0FFC39480501474D49D
:101176002FF582E43401F583E4F0900431E004F0C5
:1011860080E2E4900431F0900431E0FFC394805093
:1011960014749C2FF582E43400F583E4F090043156
:1011A600E004F080E290042EE0FBA3E0FAA3E0F96D
:1011B600120BCAFF64C06008EF6440600302126A43
:1011C60090000A120BE3B4010543B501800353B541
:1011D600FE120BCAB4C005439A808003539A7F90CF
:1011E6000002120E5E7F807E8D7D5B7C00120D9A62
:1011F600900432120EC3E4FFFE7D01FC900432E03F
:10120600F8A3E0F9A3E0FAA3E0FBC3120E3A400309
:101216007F0222900432E0F8A3E0F9A3E0FAA3E00B
:10122600FBC3E49BFFE49AFE740199FDE498FC90ED
:101236000432120EC3538EEF538EF7438E0490047E
:1012460032E0FCA3E0FDA3E0FEA3E0FF7808120E67
:101256004B8FD6900432A3A3A3E0F5D753AFFB433D
:101266008E1080037F022290042EE0FBA3E0FAA3F7
:10127600E0F9900009120BE3B4010543AF018003C6
:1012860053AFFE900007120BE3B40105439A10809A
:1012960003539AEF90000B120BE35401FFE5BA5487
:1012A600FE4FF5BA90042DE06403600302145D90CE
:1012B600000E7402F0E4A3F0A3F0A3F0A3F0A3F0F1
:1012C600A3F0900431F0900431E0FFC3941C501455
:1012D60074542FF582E43402F583E4F0900431E08F
:1012E60004F080E2E4900431F0900431E0FFC3940E
:1012F6001C5014741C2FF582E43401F583E4F0903D
:101306000431E004F080E290042EE0FBA3E0FAA3AF
:10131600E0F9120BCAFF64C06008EF644060030284
:10132600141D53ACDFEFB4C00543AC80800353AC4F
:101336007F90042EE0FBA3E0FAA3E0F990000212EE
:101346000E5E7F807E8D7D5B7C00120D9A9004324E
:10135600120EC3E4FFFE7D01FC900432E0F8A3E028
:10136600F9A3E0FAA3E0FBC3120E3A40037F022280
:10137600900432E0F8A3E0F9A3E0FAA3E0FBC3E4AB
:101386009BFFE49AFE740199FDE498FC90043212E6
:101396000EC390042EE0FBA3E0FAA3E0F99000014F
:1013A600120BE3FB6402703253ACBF538EEF538EC5
:1013B600F7438E04900432E0FCA3E0FDA3E0FEA315
:1013C600E0FF7808120E4B8FD6900432A3A3A3E059
:1013D600F5D753AFFB438E108040EB640170354365
:1013E600AC4053D1F053AFDF43D10253D1FB53D1BD
:1013F600FE900432E0FCA3E0FDA3E0FEA3E0FF784C
:1014060008120E4B8FD4900432A3A3A3E0F5D54364
:10141600D10880067F02227F022290042EE0FBA3E1
:10142600E0FAA3E0F9900009120BE3B4010543AF1B
:1014360008800353AFF7900007120BE3B40105438E
:10144600AC10800353ACEF90000B120BE35402FF79
:10145600E5BA54FD02160D90042DE0640460030203
:1014660016139000157402F0E4A3F0A3F0A3F0A302
:10147600F0A3F0A3F0900431F0900431E0FFC394A0
:101486001C501474702FF582E43402F583E4F09056
:101496000431E004F080E2E4900431F0900431E09D
:1014A600FFC3941C501474B82FF582E43401F583FD
:1014B600E4F0900431E004F080E290042EE0FBA317
:1014C600E0FAA3E0F9120BCAFF64C06008EF6440BB
:1014D60060030215D05384DFEFB4C00543848080D7
:1014E6000353847F90042EE0FBA3E0FAA3E0F99077
:1014F6000002120E5E7F807E8D7D5B7C00120D9A4F
:10150600900432120EC3E4FFFE7D01FC900432E02B
:10151600F8A3E0F9A3E0FAA3E0FBC3120E3A4003F6
:101526007F0222900432E0F8A3E0F9A3E0FAA3E0F8
:10153600FBC3E49BFFE49AFE740199FDE498FC90DA
:101546000432120EC390042EE0FBA3E0FAA3E0F9E6
:10155600900001120BE3FB640270325384BF538E7A
:10156600EF538EF7438E04900432E0FCA3E0FDA314
:10157600E0FEA3E0FF7808120E4B8FD6900432A34C
:10158600A3A3E0F5D753AFFB438E108040EB640274
:10159600703543844053D10F53AFBF43D12053D14D
:1015A600BF53D1EF900432E0FCA3E0FDA3E0FEA31D
:1015B600E0FF7808120E4B8FD2900432A3A3A3E06B
:1015C600F5D343D18080067F02227F022290042E2B
:1015D600E0FBA3E0FAA3E0F9900009120BE3B401E3
:1015E6000543AF10800353AFEF900007120BE3B42F
:1015F600010543841080035384EF90000B120BE324
:0F1606005404FFE5BA54FB4FF5BA7F00227F036F
:0116150022B2
:10432500900002E02438F582E43401F583EFF09043
:104335000002E004F0C394804002E4F0900003E042
:07434500700404F0D299227C
:1042AD00900009E024D4F582E43401F583EFF09019
:1042BD000009E004F0C394804002E4F090000AE0AD
:0842CD00700504F0439A02227F
:1042D500900010E02454F582E43402F583EFF09069
:1042E5000010E004F0C3941C4002E4F0900011E0DB
:0842F500700504F043AC022245
:1042FD00900017E02470F582E43402F583EFF0901E
:10430D000017E004F0C3941C4002E4F0900018E0A4
:08431D00700504F04384022244
:10490800C2AF120BCAFF600C124325740129F9E4E7
:074918003AFA80EED2AF2253
:10494600120BCAFF600C1242AD740129F9E43AFA5F
:0349560080EE22CE
:10495900120BCAFF600C1242D5740129F9E43AFA24
:0349690080EE22BB
:10496C00120BCAFF600C1242FD740129F9E43AFAE9
:03497C0080EE22A8
:03002300023B613C
:103B6100C0E0C083C082C0D075D000C006C007309D
:103B7100982DC298900006E07025900004E0C3944F
:103B8100804002E4F0900004E0FF04F0741C2FF583
:103B910082E43400F583E599F09000057405F03076
:103BA1009930C299900002E0FF900001E0FE6F6041
:103BB1001C74382EF582E43401F583E0F599900008
:103BC10001E004F0C394804009E4F0800590000313
:0F3BD100E4F0D007D006D0D0D082D083D0E0323D
:030043000239D2AD
:1039D200C0E0C083C082C0D075D000C006C007E579
:1039E2009A30E02E539AFE90000DE0702590000B65
:1039F200E0C394804002E4F090000BE0FF04F07416
:103A02009C2FF582E43400F583E59BF090000C7462
:103A120005F0E59A30E131539AFD900009E0FF90FC
:103A22000008E0FE6F601C74D42EF582E43401F5C8
:103A320083E0F59B900008E004F0C394804009E421
:103A4200F0800590000AE4F0D007D006D0D0D082F2
:053A5200D083D0E0323A
:03008B00023A57DF
:103A5700C0E0C083C082C0D075D000C006C007E5F3
:103A6700AC30E02E53ACFE900014E07025900012AD
:103A7700E0C3941C4002E4F0900012E0FF04F074ED
:103A87001C2FF582E43401F583E5ADF09000137443
:103A970005F0E5AC30E13153ACFD900010E0FF904C
:103AA700000FE0FE6F601C74542EF582E43402F5BB
:103AB70083E0F5AD90000FE004F0C3941C4009E4E7
:103AC700F08005900011E4F0D007D006D0D0D08266
:053AD700D083D0E032B5
:03009300023ADC52
:103ADC00C0E0C083C082C0D075D000C006C007E56E
:103AEC008430E02E5384FE90001BE070259000196A
:103AFC00E0C3941C4002E4F0900019E0FF04F07461
:103B0C00B82FF582E43401F583E585F090001A7442
:103B1C0005F0E58430E1315384FD900017E0FF900F
:103B2C000016E0FE6F601C74542EF582E43402F52E
:103B3C0083E0F585900016E004F0C3941C4009E482
:103B4C00F08005900018E4F0D007D006D0D0D082D9
:053B5C00D083D0E0322F
:0E4A6700E4F5C7F5C5F5C675C3FF75C4FF229B
:1040A400AD07AC06C2AF75C78075C501ECF5C3AFEB
:1040B400058FC475C65A75C6A500E5C2120C100D4D
:1040C400BD00010C740129F9E43AFA9004E174FF8B
:0F40D400F5F0120CAB45F070D3124A67D2AF2251
:10456000AD07AC06C2AFECF5C3AF058FC475C7800D
:1045700075C50375C65A75C6A500124A67D2AF2223
:1040E300AD07AC06C2AF75C78075C502ECF5C3AFAB
:1040F300058FC4120BCAF5C275C65A75C6A5000D45
:10410300BD00010C740129F9E43AFA9004E874FF44
:0F411300F5F0120CAB45F070D3124A67D2AF2211
:10080000020BB5E86480F8E933E83360110460F066
:10081000ED33EC337009E8FCE9FDEAFEEBFF22045E
:1008200060DED3EB9FEA9EE99DE8C2E78CF0C2F759
:1008300095F0400CE8CCF8E9CDF9EACEFAEBCFFB25
:10084000120B8085D0F05804700320D5B3E80470F3
:10085000075002B2D5020BBF92D5EC0460F7E4CC8E
:10086000C0E0C398F8603B94186008400DD0E0FBEE
:10087000020B97E4FBFAC9FC8028E830E406E4C9DF
:10088000FBE4CAFCE830E305E4C9CACBFCE8540742
:100890006010F8C3E913F9EA13FAEB13FBEC13FC4D
:1008A000D8F130F52FC3E49CFCEF9BFFEE9AFEEDF0
:1008B00099FDD0E0FBEF4E4D4C701222DB03020B92
:1008C000BCEC2CFCEF33FFEE33FEED33FDED30E7F7
:1008D000EB020B97EF2BFFEE3AFEED39FDD0E0FB7C
:1008E00050130BBB0003020BBFED13FDEE13FEEF25
:0808F00013FFEC13FC020B974F
:1008F800EC4D6011E8497017ED33EC3304600DE4FA
:10090800FCFFFEFD22E933E8330470F8020BB51250
:100918000B8058046009E4CC248150062850090251
:100928000BBF284003020BBCC0E0EB4A7044B980FF
:1009380006D0E0FB020BABEF4E701CBD8008EBFF4E
:10094800EAFEE9FD80EBE98DF0A4FEE5F00209E19D
:10095800E9CDF9EAFEEBFFEF89F0A4FCE5F0CE89DA
:10096800F0A42EFFE435F0CD89F0A42DFEE435F097
:100978008067EF4E7005BD80D780C3EF8BF0A4ACC5
:10098800F0EE8BF0A42CFCE435F0F8EF8AF0A42C00
:10099800E5F038FCE433CB8DF0A42CFCE5F03BF813
:1009A800EE8AF0A42CFCE5F038F8E433CF89F0A403
:1009B8002CFCE5F038CF3400CE89F0A42FFFE5F009
:1009C8003EFEE433C98DF0A42EFEE5F039CD8AF061
:1009D800A42FFFE5F03EFEE43DFD33D0E0FB5007D9
:1009E8000BBB000F020BBFEC2CFCEF33FFEE33FE0A
:0609F800ED33FD020B9738
:1009FE00020BBFEC5D046005E859047003020BB5F1
:100A0E00120B80580460F6EC4860F2EC7004FDFEA8
:100A1E00FF22C860DB2481C85009C39860025006CB
:100A2E00020BBC9850CAF582E9294B4A7005AB827D
:100A3E00020BAB75F0007C1A7880C3EF9BEE9AED3B
:100A4E0099400DC3EF9BFFEE9AFEED99FDE842F043
:100A5E00DC23ACF0D0E0FFD0E0FED0E0FDAB822096
:100A6E00E7101BEB60BAEC2CFCEF33FFEE33FEED20
:100A7E0033FD020B97E803F830E705C0F075F00080
:100A8E00EF2FFFEE33FEED33FD40B830E7C280AA04
:100A9E0074F8CC6480CCC86480C8F582046043C30B
:100AAE00EB9FF5F0EA9E42F0E99D42F0E89C45F09E
:100ABE0060305018E5825FFFE582F42B5582FB50C3
:100ACE00210ABA001D09B90019088016E5825BFBE0
:100ADE00E582F42F5582FF50090EBE00050DBD00B4
:100AEE00010CC3EB9FF5F0EA9E42F0E99D42F0E85F
:0D0AFE009C45F06007CC4820E701B3EC22D6
:100B0B0075F020800E75F010800575F0087D007E65
:100B1B00007F003392D530D503120E2CEC334010EE
:100B2B00EF33FFEE33FEED33FDEC33FCD5F0ED226E
:0E0B3B00E5F0247EA2D513CC92E7CDCEFF22AA
:100B4900EDD2E7CD33EC3392D524814006E4FFFEA4
:100B5900FDFC22FCE4CFCECDCC24E0501174FF8003
:100B6900EDC3CC13CCCD13CDCE13CECF13CF0470A0
:070B7900F030D5DE020E2C66
:100B8000E9D2E7C933E833F892D5EDD2E7CD33ECBB
:070B900033FC5002B2D52234
:100B9700EC30E7100FBF000C0EBE00080DBD0004BF
:100BA7000BEB6014A2D5EB13FCED92E7FD2274FF6B
:100BB700FCFDFEFF22E480F8A2D574FF13FC7D80C4
:030BC700E480EFD8
:030000000238BC07
:0C38BC00787FE4F6D8FD75812102390305
:100BCA00BB010689828A83E0225002E722BBFE0229
:090BDA00E32289828A83E493225C
:100BE300BB010CE58229F582E5833AF583E02250C7
:100BF30006E92582F8E622BBFE06E92582F8E22211
:0D0C0300E58229F582E5833AF583E493222A
:100C1000BB010689828A83F0225002F722BBFE01C3
:020C2000F322BD
:100C2200F8BB010DE58229F582E5833AF583E8F008
:100C3200225006E92582C8F622BBFE05E92582C8B4
:020C4200F2229C
:100C4400EF8DF0A4A8F0CF8CF0A428CE8DF0A42EC4
:020C5400FE227E
:100C5600BC000BBE0029EF8DF084FFADF022E4CC82
:100C6600F875F008EF2FFFEE33FEEC33FCEE9DEC4B
:100C7600984005FCEE9DFE0FD5F0E9E4CEFD22ED91
:100C8600F8F5F0EE8420D21CFEADF075F008EF2FDB
:100C9600FFED33FD4007985006D5F0F222C398FDCC
:050CA6000FD5F0EA2269
:100CAB00C5F0F8A3E028F0C5F0F8E58215827002D4
:060CBB001583E038F02271
:100CC100A3F8E0C5F025F0F0E582158270021583E6
:060CD100E0C838F0E82243
:100CD700BB0110E58229F582E5833AF583E0F5F05B
:100CE700A3E0225009E92582F886F008E622BBFE38
:100CF7000AE92582F8E2F5F008E222E5832AF5837E
:080D0700E993F5F0A3E9932242
:100D0F00E88FF0A4CC8BF0A42CFCE98EF0A42CFC83
:100D1F008AF0EDA42CFCEA8EF0A4CDA8F08BF0A401
:100D2F002DCC3825F0FDE98FF0A42CCD35F0FCEB60
:100D3F008EF0A4FEA9F0EB8FF0A4CFC5F02ECD3925
:0F0D4F00FEE43CFCEAA42DCE35F0FDE43CFC2292
:100D5E0075F008758200EF2FFFEE33FECD33CDCC4C
:100D6E0033CCC58233C5829BED9AEC99E5829840CF
:100D7E000CF582EE9BFEED9AFDEC99FC0FD5F0D6AC
:100D8E00E4CEFBE4CDFAE4CCF9A88222B800C1B9D6
:100D9E000059BA002DEC8BF084CFCECDFCE5F0CB14
:100DAE00F97818EF2FFFEE33FEED33FDEC33FCEB4D
:100DBE0033FB10D703994004EB99FB0FD8E5E4F908
:100DCE00FA227818EF2FFFEE33FEED33FDEC33FCF5
:100DDE00C933C910D7059BE99A4007EC9BFCE99AE9
:100DEE00F90FD8E0E4C9FAE4CCFB2275F010EF2F2E
:100DFE00FFEE33FEED33FDCC33CCC833C810D7072E
:100E0E009BEC9AE899400AED9BFDEC9AFCE899F868
:0E0E1E000FD5F0DAE4CDFBE4CCFAE4C8F922FB
:10401D00C2D5E830E70FB2D5E4C39BFBE49AFAE4CE
:10402D0099F9E498F8EC30E717B2D5124053120D18
:10403D009AE4C39BFBE49AFAE499F9E498F88003B7
:10404D00120D9A30D50DE4C39FFFE49EFEE49DFD55
:04405D00E49CFC22C1
:0E0E2C00C3E49FFFE49EFEE49DFDE49CFC22D7
:100E3A00EB9FF5F0EA9E42F0E99D42F0E89C45F00E
:010E4A002285
:100E4B00E8600FECC313FCED13FDEE13FEEF13FF85
:030E5B00D8F122A9
:100E5E00BB010DE58229F582E5833AF583020F0D7C
:100E6E005007E92582F8020F00BBFE07E92582F83C
:100E7E00020F19E58229F582E5833AF583020F26E2
:100E8E007401FF3395E0FEFDFCA3A3A3E0CF2FF08A
:100E9E00E582158270021583E0CE3EF0E582158262
:100EAE0070021583E0CD3DF0E58215827002158348
:050EBE00E0CC3CF02235
:0C0EC300ECF0A3EDF0A3EEF0A3EFF022A2
:100ECF00A8828583F0D083D082120EE6120EE6122E
:100EDF000EE6120EE6E473E493A3C583C5F0C58353
:100EEF00C8C582C8F0A3C583C5F0C583C8C582C86D
:010EFF0022D0
:1038C8000229B4E493A3F8E493A34003F68001F239
:1038D80008DFF48029E493A3F85407240CC8C33301
:1038E800C4540F4420C8834004F456800146F6DFD0
:1038F800E4800B0102040810204080903650E47EDA
:10390800019360BCA3FF543F30E509541FFEE493C4
:10391800A360010ECF54C025E060A840B8E493A38B
:10392800FAE493A3F8E493A3C8C582C8CAC583CAB6
:10393800F0A3C8C582C8CAC583CADFE9DEE780BE6E
:0136F10000D8
:0D0F0000E6FB08E6F908E6FA08E6CBF82261
:0C0F0D00E0F8A3E0F9A3E0FAA3E0FB2267
:0D0F1900E2FB08E2F908E2FA08E2CBF82258
:100F2600E493F8740193F9740293FA740393FB2221
:00000001FF
