:02482E0040B593
:0248300048EA54
:024832004A2C0E
:0248340047D16A
:024838004786B1
:02483C0048181A
:02483E0041CF68
:02484000461A16
:0A314B004205CF00004205D100004C
:1040B5001244E07F0412423E7F01121B227F03124D
:1040C5001B227F05121B227F07121B227F08121B52
:0B40D500227F09121B22E4FF021BAB3C
:1048EA00E49002A2F0E4FBFA7D287F80121C348057
:0148FA00F4C9
:014A2C002267
:1047D10090032F740AF090032FE004F0E4FBFA7DBC
:0847E100C87F80121C3480EE39
:10478600900330120ECF00000000123C54E4FBFAF6
:094796007D027F80121C3480F1C9
:104818007F081244FD5003124A18E4FBFA7D0A7F10
:0648280080121C3480EA3E
:1041CF00D208123980E4FBFA79487842120A9E50DD
:1041DF0005124A188003124A1DE4FBFA7D017F8005
:0541EF00121C3480DB0E
:10461A00D20812398090035D7401F0123FF2E4FB74
:0A462A00FA7D287F80121C3480E620
:103D9D004E6F6B6961203535313020546573742C4D
:103DAD0020486168615E5F5E204920616D20736F00
:103DBD0020676C616420746F2073656520796F7561
:103DCD0020616769616E2120446F20796F752074C1
:093DDD0068696E6B20736F3F00F2
:053155004205E73D9D6D
:1040890090028C7440F0A37402F0A3120EC3900244
:10409900937401F0E4A3F0A304F0A3F0E4A3F0A364
:0C40A900F07B017A02798C7F01020F3657
:1039FA0090028F74C8F0123EB99005E7E0FEA3E08A
:103A0A00F5828E83E49360279005E7E475F001124E
:103A1A000CC1FAA9F07BFFE4FDFF123FB77FFA124F
:103A2A00496090028CE004F0E4FF12485680CA9084
:103A3A00028CE0FFC3E49FFFE49400FE9005E8E0F7
:103A4A002FF09005E7E03EF0E0FEA3E0AA06F97B3E
:0F3A5A00FFE4FDFF123D527FC81249600243474F
:1044E0007F007EC27D017C001240891240E01244B0
:0D44F00028E4FD7F011245AAD2AF0239FA7F
:014A2D002266
:014A2E002265
:014A2F002264
:014A30002263
:014A31002262
:03000B000219B522
:1019B000C2AF80FE321219B485D00B75D008AAE0F0
:1019C000C28CE58A2443F58AE58C34F6F58CD28CFA
:1019D000EC240FF8E6BC090274FFC39581B414002F
:1019E00040CE790A782216E608700BC2AFE630E1E5
:1019F000034418F6D2AF08D9EDEA8BD030090122A2
:101A0000D50DFCC0E0C0D0C0F0C083C082C000C013
:101A100001C002C003C004C005C006C007E50C2316
:101A20002423F87440C2AF46F6D2AFD209E50CFFCA
:101A3000232423F80F0808BF0A047F007823E63028
:101A4000E4F200E50CC39F5020050C740E250CF841
:101A5000E6FDA68108E6AE0CBE090274FFCDF8E8EB
:101A60006D60E008E6C0E080F6E50CD39F4027E516
:101A70000C240FF8E6AE0CBE090274FFFD18E6CD8B
:101A8000F8E5816D6006D0E0F61880F5E50C240ECF
:101A9000C8F6150C80D3750D0AE50C232423F87FB6
:101AA00004C2AFE610E61E30E00310E20C7F003007
:101AB000E10730E3047F0854F4547CC6D2AF54806D
:101AC0004207C20922F6D2AFD007D006D005D00413
:101AD000D003D002D001D000D082D083D0F0D0D0BB
:0E1AE000D0E0C20922780EA68174096006FFCC
:101AEE000876FFDFFB7F0AE47822F608F608DFFAB5
:101AFE007823763090482E740193C0E0E493C0E0D2
:101B0E00750D0A438901758A3C758CF6D28CD2AF5D
:041B1E00D2A922091D
:102BDC00AB07EB75F039A42486F582E43403F58356
:102BEC00120ECF00000000EB75F039A4248AF58298
:102BFC00E43403F583120ECF00000000EB75F039BE
:102C0C00A4249EF582E43403F583120ECF00000059
:102C1C0000EB75F039A4249AF582E43403F58312A1
:102C2C000ECF0000000090055DE0FCA3E0FDA3E0EA
:102C3C00FEA3E0FFEB75F039A4248EF582E4340397
:102C4C00F583120EC3900561E0FCA3E0FDA3E0FE4A
:102C5C00A3E0FFEB75F039A42492F582E43403F57C
:102C6C0083120EC3900565E0FCA3E0FDA3E0FEA378
:102C7C00E0FFEB75F039A42496F582E43403F58378
:102C8C00120EC3EB75F039A4248EF582E43403F5EF
:102C9C0083E0FCA3E0FDA3E0FEA3E0FFEB75F039BD
:102CAC00A424A6F582E43403F583120EC3EB75F06D
:102CBC0039A42492F582E43403F583E0FCA3E0FD0F
:102CCC00A3E0FEA3E0FFEB75F039A424A2F582E4A7
:102CDC003403F583120EC3EB75F039A42496F582F8
:102CEC00E43403F583E0FCA3E0FDA3E0FEA3E0FFE6
:102CFC00EB75F039A424AAF582E43403F583020EB3
:012D0C00C303
:1048A200EF75F039A424B6F582E43403F58374017C
:0248B200F022F2
:1048FB00EF75F039A424B6F582E43403F583E4F0C4
:01490B002289
:102124009005EDEFF075F039A424B6F582E434039C
:10213400F583E070030222FD9005EDE0FF75F039B0
:10214400A42482F582E43403F583E0F8A3E0F9A340
:10215400E0FAA3E0FBEF75F039A4247EF582E434C1
:1021640003F583E0FCA3E0FDA3E0FEA3E0FF120877
:10217400039005EDE0FB75F039A42486F582E43480
:1021840003F583120EC3EB75F039A4249AF582E4A7
:102194003403F583C083C082E0FCA3E0FDA3E0FE2A
:1021A400A3E0FF9005EDE075F039A42486F582E400
:1021B4003403F583E0F8A3E0F9A3E0FAA3E0FB120B
:1021C4000807D082D083120EC39005EDE0FF75F0AE
:1021D40039A4249AF582E43403F583E0F8A3E0F902
:1021E400A3E0FAA3E0FBEF75F039A42492F582E4AE
:1021F4003403F583E0FCA3E0FDA3E0FEA3E0FF12BB
:1022040008F8C004C005C006C0079005EDE0FF75DE
:10221400F039A42486F582E43403F583E0F8A3E0DE
:10222400F9A3E0FAA3E0FBEF75F039A4248EF5825C
:10223400E43403F583E0FCA3E0FDA3E0FEA3E0FFA8
:102244001208F8D003D002D001D000120807C0044D
:10225400C005C006C0079005EDE0FF75F039A42461
:102264008AF582E43403F583E0F8A3E0F9A3E0FA05
:10227400A3E0FBEF75F039A42486F582E43403F57A
:1022840083E0FCA3E0FDA3E0FEA3E0FF12080390BB
:1022940005EDE075F039A42496F582E43403F58362
:1022A400E0F8A3E0F9A3E0FAA3E0FB1208F8D003F6
:1022B400D002D001D0001208079005EDE0FB75F0C4
:1022C40039A4249EF582E43403F583120EC3EB751E
:1022D400F039A42486F582E43403F583E0FCA3E01A
:1022E400FDA3E0FEA3E0FFEB75F039A4248AF58298
:0A22F400E43403F583120EC3D32275
:10426000AB0790059EE0FCA3E0FDA3E0FEA3E0FF0A
:10427000EB75F039A424B2F582E43403F583020E21
:01428000C37A
:10428100AB079005A3E0FCA3E0FDA3E0FEA3E0FFE4
:10429100EB75F039A424AEF582E43403F583020E04
:0142A100C359
:1042A200AB079005A8E0FCA3E0FDA3E0FEA3E0FFBE
:1042B200EB75F039A42482F582E43403F583020E0F
:0142C200C338
:1042C300AB079005ADE0FCA3E0FDA3E0FEA3E0FF98
:1042D300EB75F039A42492F582E43403F583020EDE
:0142E300C317
:1042E400AB079005B2E0FCA3E0FDA3E0FEA3E0FF72
:1042F400EB75F039A4248EF582E43403F583020EC1
:01430400C3F5
:10430500AB079005B7E0FCA3E0FDA3E0FEA3E0FF4B
:10431500EB75F039A42496F582E43403F583020E97
:01432500C3D4
:10432600AB079005BCE0FCA3E0FDA3E0FEA3E0FF25
:10433600EB75F039A4247EF582E43403F583020E8E
:01434600C3B3
:10463400EF75F039A4247EF582E43403F583E0FCBD
:0A464400A3E0FDA3E0FEA3E0FF22C7
:10464E00EF75F039A42486F582E43403F583E0FC9B
:0A465E00A3E0FDA3E0FEA3E0FF22AD
:10466800EF75F039A4248AF582E43403F583E0FC7D
:0A467800A3E0FDA3E0FEA3E0FF2293
:10468200EF75F039A4248EF582E43403F583E0FC5F
:0A469200A3E0FDA3E0FEA3E0FF2279
:10469C00EF75F039A42492F582E43403F583E0FC41
:0A46AC00A3E0FDA3E0FEA3E0FF225F
:1046B600EF75F039A42496F582E43403F583E0FC23
:0A46C600A3E0FDA3E0FEA3E0FF2245
:1046D000EF75F039A4249EF582E43403F583E0FC01
:0A46E000A3E0FDA3E0FEA3E0FF222B
:1046EA00EF75F039A4249AF582E43403F583E0FCEB
:0A46FA00A3E0FDA3E0FEA3E0FF2211
:05297200900371EDF07F
:10297700E4900378F0A3F0900374E0FFA3E09003E2
:102987007ACFF0A3EFF0900372E0FFA3E090037C0F
:10299700CFF0A3EFF0E4900376F0A3F0900371E09B
:1029A700FF900376E0FCA3E0FDC39F7480F8EC641E
:1029B70080984003022A6CED25E0FFEC338F82F507
:1029C70083120CD7FFC390037BE09F90037AE095B7
:1029D700F0501D900377E025E0FF900376E0338FFA
:1029E70082F583120CD7FF90037AE5F0F0A3EFF09E
:1029F700900377E025E0FF900376E0338F82F5833D
:102A0700120CD7FFD390037DE09F90037CE095F0F5
:102A1700401D900377E025E0FF900376E0338F8237
:102A2700F583120CD7FF90037CE5F0F0A3EFF0904D
:102A37000377E025E0FF900376E0338F82F583127A
:102A47000CD7FFAEF0900379E02FF0900378E03ECB
:102A5700F0900377E004F060030229A3900376E087
:102A670004F00229A390037CE0FEA3E0FF90037B20
:102A7700E02FFF90037AE03EFEC3900379E09FFFCB
:102A8700900378E09EFEF0A3EFF0900371E024FE40
:102A9700FDE434FFFC120C56900378EEF0A3EFF040
:012AA700220C
:10315A00602A047600000000000000000000000061
:10316A000000000000000000000000000000000055
:0E317A00000000000000000000000000000047
:1031F70090036BEBF0A3EAF0A3E9F0900003120B46
:10320700E3FF900367E0FBA3E0FAA3E0F9A3E0FE86
:10321700F582758300EF120C2290036BE0FBA3E0AD
:10322700FAA3E0F9900002120BE3FFEE2401FDE49C
:1032370033FC900367E0FBA3E0FAA3E0F98D828CEF
:1032470083EF120C2290036BE0FBA3E0FAA3E0F9F3
:10325700900001120BE3FFEE2402FDE433FC900320
:1032670067E0FBA3E0FAA3E0F98D828C83EF120CF1
:103277002290036BE0FBA3E0FAA3E0F9120BCAFF6D
:10328700EE2403FDE433FC900367E0FBA3E0FAA31D
:0A329700E0F98D828C83EF020C2217
:103FF20090035DE0900363F0122AA8E490035EF060
:1040020090035DE0FF12334A90035EE0FEC39F50CF
:104012001774762EF582E43404F583E0FF1241A88A
:0840220090035EE004F080D879
:01402A002273
:102AA80090035F120EC3900363E0FFD3940A4003C0
:102AB800022BDBEF7003022BDBEF14B40A00400398
:102AC800022BDB902AD975F003A4C58325F0C583B2
:102AD80073022AF7022B0D022B24022B3B022B52E6
:102AE800022B68022B7E022B94022BAA022BC09089
:102AF80003677401F0A37404F0A37476F0A374015F
:102B0800F0FB022BD49003677401F0A37404F0A3C4
:102B18007476F0A37405F07B01022BD490036774DC
:102B280001F0A37404F0A37476F0A37409F07B0198
:102B3800022BD49003677401F0A37404F0A3747695
:102B4800F0A3740DF07B01022BD49003677401F09D
:102B5800A37404F0A37476F0A37411F07B01806C65
:102B68009003677401F0A37404F0A37476F0A3745F
:102B780015F07B0180569003677401F0A37404F08C
:102B8800A37476F0A37419F07B01804090036774F6
:102B980001F0A37404F0A37476F0A3741DF07B0114
:102BA800802A9003677401F0A37404F0A37476F08C
:102BB800A37421F07B0180149003677401F0A3745F
:102BC80004F0A37476F0A37425F07B017A03795F8F
:042BD8001231F7229D
:10334A00EFD3940A5003EF70037F0022900476743F
:10335A0024F0EF14B40A0040030233EC903374757E
:10336A00F003A4C58325F0C5837302339202339B0D
:10337A000233A40233AD0233B60233BF0233C802AA
:10338A0033D10233DA0233E390047B7405F07F060B
:10339A002290047F7409F07F0A22900483740DF04E
:1033AA007F0E229004877411F07F122290048B748E
:1033BA0015F07F162290048F7419F07F1A22900458
:1033CA0093741DF07F1E229004977421F07F2222AD
:1033DA0090049B7425F07F262290049F7429F07F25
:0533EA002A227F0022F1
:1048B4009005C0EEF0A3EFF0A3EBF0A3EAF0A3E9B8
:0248C400F022E0
:08318800C100C101C102C10335
:1044280090028D7478F0E490028CF07B017A027926
:0E4438008C7F021224D2D2A3D2A4D2A5D2A687
:014446002253
:0A49B500EF4E7005EE4F24FFB32211
:1044FD00EF24F0600F24F0600E24E0600D2438707E
:0D450D000BA20022A20122A20222A2032280
:103C5400A2A3E4FE33FF1249B5500EA2A3E433FF3E
:103C64001249B55006D2008002C200A2A4E4FE3379
:103C7400FF1249B55007200106D2018002C201A2F9
:103C8400A5E4FE33FF1249B55007200206D2028094
:103C940002C202A2A6E4FE33FF1249B55006200375
:073CA40005D20322C2032236
:02319000C10A72
:1040E00090028D7405F0E490028CF07B017A0279E5
:1040F0008C7F051224D2124A187FC8124960124AD6
:074100001D7FC8124960D3C6
:014107002295
:054A1800C2CDD20A220C
:054A1D00D2CDC20A2207
:10423E0090028CEFF090028CE0FF14F0EF601212FF
:10424E004A187FC8124960124A1D7FC81249608001
:02425E00E42258
:034A2600A20A22BF
:0649FA009005EEEFF02233
:1035CA009005C5EFF07F337E337D737C3FA3E0F82F
:1035DA00A3E0F9A3E0FAA3E0FB120A9E600C400AFA
:1035EA009005C6120ECF3F7333337FCD7ECC7D4C10
:1035FA007C3D9005C6E0F8A3E0F9A3E0FAA3E0FB5E
:10360A00120A9E500A9005C6120ECF3D4CCCCD90A0
:10361A0005C5E02404FFC007A3E0FCA3E0FDA3E086
:10362A00FEA3E0FF9005CB120EC3D007122E239003
:10363A0005C6E0FCA3E0FDA3E0FEA3E0FF120B49F0
:10364A009005C5E025E024D4F582E43405F583EF3E
:02365A00F0225C
:1044A4009005EFEFF02404FF1241089005EFE0259A
:0E44B400E024D3F582E43405F5837401F02290
:10451A009005F0EFF02404FF1241F49005F0E02535
:0D452A00E024D3F582E43405F583E4F022AB
:10495000EF25E024D3F582E43405F583E024FF223B
:103A6900E4900527F0A37408F07B017A0579277F94
:103A7900021224D29005287404F07B017A05792773
:103A89007F021224D2D2A2D2A343BA80E49005299C
:103A9900F0A3F0A3F0A304F0E4A3F0A3F0A3F0A330
:103AA900F0A3F0A3F0A3F0A3F0A3F0A3F0A3F0A375
:103AB900F07B017A0579297F021216167B017A05B6
:0A3AC90079297F0312161653BA7F05
:013AD30022D0
:0522FE009004A0EFF0C8
:10230300E49004AFF0A37480F07B017A0479AF7F8B
:10231300031224D2D2B743BA80E49004B1F0A3F0FD
:10232300A3F0A304F0E4A3F0A3F0A3F0A3F0A3F0BD
:10233300A3F0A3740FF0E4A3F0A3F0A3F0A3F0A31E
:10234300F09004A0E0FF7B017A0479B112161653D2
:10235300BA7F9004A0E0FF7D1012492E9004A0E004
:10236300FF7D327C00123B3D9004A1E0FCA3E0FD25
:10237300A3E0FEA3E0FF9004A0E0FB75F025A424F6
:10238300F5F582E43403F583120EC39004A5E0FC53
:10239300A3E0FDA3E0FEA3E0FFEB75F025A424F981
:1023A300F582E43403F583120EC39004A9E0FCA381
:1023B300E0FDA3E0FEA3E0FFEB75F025A42407F501
:1023C30082E43404F583120EC39004ADE0FEA3E06F
:1023D300FFEB75F025A42401F582E43404F583EEC4
:1023E300F0A3EFF0EB75F025A424F5F582E43403B4
:1023F300F583E0F8A3E0F9A3E0FAA3E0FB9004A0DF
:10240300E075F025A424F9F582E43403F583E0FCB8
:10241300A3E0FDA3E0FEA3E0FF120803C004C00590
:10242300C006C0079004A0E075F025A42401F5823E
:10243300E43404F583E0FCA3E0FDE4120B10A804EC
:10244300A905AA06AB07D007D006D005D004120A07
:10245300019004A0E0FB75F025A424FDF582E4348B
:1024630003F583120EC3EB75F025A42401F582E472
:102473003404F583E0FCA3E0FDE4120B10A804A9E7
:1024830005AA06AB079004A0E075F025A42407F580
:1024930082E43404F583E0FCA3E0FDA3E0FEA3E0C3
:1024A300FF120A019004A0E0FB75F025A4240BF5AC
:1024B30082E43404F583120EC3EB75F025A42403E0
:0E24C300F582E43404F583120ECF0000000011
:0124D10022E8
:052D0D00900569EFF0E4
:102D1200A3E0FCA3E0FDA3E0FEA3E0FF900569E0D1
:102D2200FB75F025A424F0F582E43403F583120E3A
:102D3200C3EB75F025A4240BF582E43404F583E09B
:102D4200F8A3E0F9A3E0FAA3E0FB90056AE0FCA394
:102D5200E0FDA3E0FEA3E0FF120A01900569E07521
:102D6200F025A424FDF582E43403F583E0F8A3E022
:102D7200F9A3E0FAA3E0FB1208F8900569E075F008
:102D820025A424F5F582E43403F583E0F8A3E0F901
:102D9200A3E0FAA3E0FB120807900569E0FB75F0D7
:102DA20025A42411F582E43404F583120EC3EB75D5
:102DB200F025A42411F582E43404F583E0FCA3E0B9
:102DC200FDA3E0FEA3E0FFE4FBFA79A07841120A3A
:102DD2000190056E120EC390056EE0FCA3E0FDA308
:102DE200E0FEA3E0FF9005CB120EC3900569E0FF61
:102DF200122E23900569E0FB75F025A424F0F582DC
:102E0200E43403F583E0FCA3E0FDA3E0FEA3E0FFCE
:102E1200EB75F025A42403F582E43404F583020E55
:012E2200C3EC
:10470400EF75F025A42403F582E43404F583E0FC7A
:0A471400A3E0FDA3E0FEA3E0FF22F6
:104368009005F1EFF01241089005F1E075F025A4F1
:10437800240FF582E43404F583E4F0A304F0D32297
:104447009005F2EFF01241F49005F2E075F025A423
:0F445700240FF582E43404F583E4F0A3F0D322BC
:10349200900597EFF075F00EA424EBF582E4340466
:1034A200F583E0FEA3E0FF7C007D63120C56EF245F
:1034B20001FFE43EFE90059CE0FD7C00120C44AA54
:1034C20006AB07900597E075F00EA424EBF582E4B5
:1034D2003404F583E0FEA3E0FF7D63120C56C3EBD8
:1034E2009FFDEA9EFCC004C0059004EAE0FCE412E1
:1034F2000B15900598E0F8A3E0F9A3E0FAA3E0FB2E
:103502001208F89004E6E0F8A3E0F9A3E0FAA3E0D9
:10351200FB120A01120B49E4FCFD900585120EC351
:0E352200900597E0FFD005D004123BFCD322A9
:10402B009005F3EBF0C007AE04AF057C017D681281
:10403B000C44AC06AD07E4120B10900598120EC39E
:0F404B009005F3E090059CF0D007123492D32239
:10490C00EF75F00EA424E2F582E43404F583E0FFA5
:01491C002278
:0749E5009005F4EFF0D3226E
:10458E009005F5EFF01243C89005F5E075F00EA416
:0C459E0024E2F582E43404F583E4F0220A
:104537009005F6EFF01243A89005F6E075F00EA48B
:0D45470024E2F582E43404F5837401F022CF
:0749EC009005F7EFF0D32264
:0749F3009005F8EFF0D3225C
:103CAB00AB07900573E0FCA3E0FDA3E0FEA3E0FFF0
:103CBB00EB75F00EA424E6F582E43404F583120EC2
:103CCB00C3900577E0FFEB75F00EA424EAF582E4D0
:103CDB003404F583EFF0900578E0FEA3E0FFEB757D
:103CEB00F00EA424EBF582E43404F583EEF0A3EF9D
:043CFB00F0023AD4C5
:0F49700074DB2FF582E43405F5837401F0D32254
:0E497F0074DB2FF582E43405F583E4F0D322D7
:014A32002261
:1045AA0090028CEFF0A3EDF0A37401F0E4A3F0A362
:0C45BA00F0A3F07B017A02798C023CFF38
:10398000E490036DF0300863F0E4FF123B9E900377
:103990006DE025E02459F582E43403F583EEF0A3CD
:1039A000EFF090036DE004F0E0C3940A40DB7B018C
:1039B0007A0379599003727404F0A3E4F0A3F0A39E
:1039C000F07D0A122972AC06AD07E4120B109005C7
:1039D0007A120EC390057AE0FCA3E0FDA3E0FEA3FB
:1039E000E0FFA3120EC390057A800390057EE0FCF1
:0939F000A3E0FDA3E0FEA3E0FF4B
:0139F90022AB
:1045C6009005F9EFF0D2C87F011249609005F9E035
:0C45D600F5C0D2CA7F01124960C2CA229F
:10405A009005DEEBF0A3EAF0A3E9F09005DEE0FBC1
:10406A00A3E0FAA3E0F9120BCAFFD39400400F129F
:0F407A0045C69005DFE475F001120CAB80DD2226
:104554001244C2D2CCC2CAC2C97F381245E27F0C0F
:0D4564001245E27F061245E27F010245E2AA
:1045E2009005FAEFF0C2C87F01124960D2CA900565
:0C45F200FAE0F5C07F01124960C2CA2245
:1044C20053C9EF43CA1053C9FE53CAFE53C9FD5321
:0E44D200CAFD53C9FB53CAFBE4F5B3F5B4228F
:08479F009005D7ECF0A3EDF04A
:1047A700E4A3F0A3EFF07B017A0579D9E4FF0224B3
:0147B700D22F
:05491D009005FBEFF026
:0B492200E4FF00000FEFB408F90000F4
:01492D002267
:101C93000000000000000000004F000000000700EB
:101CA300070000147F147F1400242A7F2A120023C4
:101CB30013086462003649552250000005030000F2
:101CC30000001C224100000041221C000014083EB9
:101CD30008140008083E08080000503000000008FF
:101CE30008080808000060600000002010080402D3
:101CF300003E5149453E0000427F40000042615191
:101D03004946002141454B31001814127F1000272A
:101D130045454539003C4A494930000171090503ED
:101D230000364949493600064949291E000036361E
:101D33000000000056360000000814224100001481
:101D4300141414140000412214080002015109065E
:101D530000324979413E007E1111117E007F4949CD
:101D6300493E003E41414122007F4141221C007F08
:101D730049494941007F09090901003E4149497A1E
:101D8300007F0808087F0000417F41000020404198
:101D93003F01007F08142241007F40404040007F04
:101DA3000204027F007F0408107F003E4141413E50
:101DB300007F09090906003E4151215E007F091990
:101DC30029460046494949310001017F0101003F8D
:101DD3004040403F001F2040201F003F4038403F0D
:101DE3000063140814630003047804030061514979
:101DF300454300007F4141000015167C1615000085
:101E030041417F0000040201020400404040404081
:101E1300000001020400002054545478007F484419
:101E2300443800384444442000384444487F003850
:101E33005454541800087E090102000C5252523EB9
:101E4300007F080404780000447D400000204044E3
:101E53003D00007F102844000000417F4000007EC9
:101E6300020C027C007E0402027C003844444438A5
:101E7300007C1414140800081414187C007C080453
:101E8300040800485454542000043F444020003CBC
:101E93004040207C001C2040201C003C4030403C43
:101EA300004428102844000C5050503C0044645413
:101EB3004C440000083641000000007F0000000091
:101EC300413608000008040810080008082A1C0806
:101ED30000081C2A08080004027F02040010207F67
:0E1EE3002010001C2A322A1C001C2244221C43
:10438800C2CBED24FF92CA7E08EF30E704D2C98081
:0F43980002C2C9C2C8EF25E0FFD2C8DEECD2CB0B
:0143A70022F3
:10434700E4FD7F801243887F401243887BF87A011F
:104357007D01E4FF124388EB1B70011AEB4A70F0F2
:014367002233
:10485600AD07E4FF1248427C547D01E4FF12438811
:02486600DCF77D
:01486800222D
:10484200AC05EF4480FFEC4440FCE4FD124388AF2A
:044852000402438891
:073F7A00E0FF04F0A3E0FDED
:103F810074E02BFBEF75F006A4FF124842E4FC75C8
:103F9100F006EBA42493F582E5F0341CF583E58269
:103FA1002CF582E43583F583E493FF7D0112438888
:053FB1000CECB406DA7F
:013FB60022E8
:103FB700900290EFF0A3EDF0A3EBF0A3EAF0A3E9F2
:103FC700F0900292E0FBA3E0FAA3E0F9120BCAFB20
:103FD7006018900290E0C3940E500F123F7A90023F
:0B3FE70093E475F001120CAB80D722B0
:103D5200900290EFF0A3EDF0A3EBF0A3EAF0A3E959
:103D6200F0900292E0FBA3E0FAA3E0F9120BCAFB87
:103D72006028900290123F7A900293E475F001124B
:103D82000CAB900290E0B40E06E4F0A3E004F090D5
:0B3D92000291E0B406CBE4F080C722F1
:103EB900E4900290F0A304F0FB7A0279907F051256
:103EC90024D2C2CCD2CCE4FD7F211243887F0612D2
:103ED90043887F131243887FC81243887F20124387
:103EE900887F0C1243887F401243887F8012438861
:033EF9000243473A
:103192004404D5000000004404D1000000004404AF
:1031A200CD000000004404C9000000004404C50032
:0A31B2000000004404C1000000000A
:103BFC00900582EFF0A3ECF0A3EDF0900583E0FCD0
:103C0C00A3E0FD7F05123B3D900583E0FEA3E0FFA2
:103C1C00900582E0FB75F007A424DDF582E4340402
:103C2C00F583EEF0A3EFF0900585E0FCA3E0FDA397
:103C3C00E0FEA3E0FFEB75F007A424D9F582E43491
:083C4C0004F583120EC3D3221C
:1043A8009005FCEFF07F051241089005FCE075F0E0
:1043B80007A424DFF582E43404F5837401F0D322E2
:1043C8009005FDEFF02405FF1241F49005FDE0751E
:1043D800F007A424DFF582E43404F583E4F0D32263
:1048C600EF75F007A424DFF582E43404F583E024D1
:0248D600FF22BF
:103AD400E4900539F0A37480F07B017A0579397F8D
:103AE400011224D2D2979005CB120ECF3F000000D2
:103AF4007F05122E2343BA80E490053BF0A3F0A384
:103B0400F0A304F0E4A3F0A3F0A3F0A3F0A3F0A3C4
:103B1400F0A3740FF0E4A3F0A304F0E4A3F0A3046F
:103B2400F0E4A3F07B017A05793B7F051216165366
:093B3400BA7F7D107F0502492EC5
:0300B300022F32E7
:102F3200C0E0C0F0C083C082C0D075D000C000C065
:102F420001C002C003C004C005C006C007E5F660A8
:102F52002B53F6DF9004D5120E8E9004D9E0F8A31D
:102F6200E0F9A3E0FAA3E0FBD3120E3A5061900419
:102F7200D9120ECF000000007F05802DE5F6602EED
:102F820053F6EF9004D1120E8E9004E0E0F8A3E025
:102F9200F9A3E0FAA3E0FBD3120E3A50329004E018
:102FA200120ECF000000007F041241F48021E5F6EA
:102FB200600553F6F78018E5F6600553F6FB800FBF
:102FC200E5F6640160028004E5F6600353F6FDD085
:102FD20007D006D005D004D003D002D001D000D053
:0A2FE200D0D082D083D0F0D0E032CE
:103CFF00120BCAF59D900001120BE3FFE5BC549F18
:103D0F004FF5BC900002120BE3B4010543BC808059
:103D1F000353BC7F900003120BE3B40105439720BC
:103D2F0080035397DF900005120BE3B40104D2AD6B
:103D3F008002C2AD900004120BE3B40103D2BD2286
:033D4F00C2BD22D0
:0C49A900EFB4010443BC802253BC7F2209
:103B9E00EFD3940740028051E4F5BDF5BEE5BC5469
:103BAE00E044084FF5BC00000000E4FBE5BC30E447
:103BBE003353BCEFE59730E509E5BD5403ADBEFCCC
:103BCE00801DAFBD7C00AD07ED7E007802C333CE05
:103BDE0033CED8F9FFE5BE5403FDEEFCEF4DFDAF3D
:0D3BEE0005AE04220BEBB4FAC37E047F0089
:013BFB0022A7
:03002B00024A2264
:044A220053BCEF3260
:0F4960007D367C07ED1D70011C144C70F7DFF1E4
:01496F002225
:034A2900A20B22BB
:1024D200EFD3940540037F0122120BCAFED394036B
:1024E20040037F0222EF7041EE700B900001120B4D
:1024F200E3F452935294120BCAB4010B90000112EE
:102502000BE34293F45294120BCAFEB4020A9000F7
:1025120001120BE342934294EEB4030D90000112B8
:102522000BE3FEF45293EE4294EF64017043120BFC
:10253200CAFE700B900001120BE3F452915292EE1C
:10254200B4010B900001120BE34291F45292120B70
:10255200CAB4020A900001120BE342914292120B9A
:10256200CAB4030D900001120BE3FEF45291EE4245
:1025720092EF64027043120BCAFE700B90000112BC
:102582000BE3F452955296EEB4010B900001120B3C
:10259200E34295F45296120BCAB4020A9000011259
:1025A2000BE342954296120BCAB4030D900001123E
:1025B2000BE3FEF45295EE4296EF64037043120B66
:1025C200CAFE700B900001120BE3F452B152B2EE4C
:1025D200B4010B900001120BE342B1F452B2120BA0
:1025E200CAB4020A900001120BE342B142B2120BCA
:1025F200CAB4030D900001120BE3FEF452B1EE4295
:10260200B2EF64047043120BCAFE700B9000011209
:102612000BE3F452B352B4EEB4010B900001120B6F
:10262200E342B3F452B4120BCAB4020A900001128C
:102632000BE342B342B4120BCAB4030D9000011271
:102642000BE3FEF452B3EE42B4EF64057043120B97
:10265200CAFF700B900001120BE3F452C952CAEF89
:10266200B4010B900001120BE342C9F452CA120BDF
:10267200CAB4020A900001120BE342C942CA120B09
:10268200CAB4030D900001120BE3FFF452C9EF42EA
:04269200CA7F0022D9
:10309D00EF7034D3ED9498EC940340047C037D9849
:1030AD00C3ED9450EC940050047C007D50C2DE9032
:1030BD00051BECF0A3EDF0C374E89D900516F074BC
:1030CD00039C9005158073EF64017034D3ED946803
:1030DD00EC940B40047C0B7D68C3ED9450EC940094
:1030ED0050047C007D50C2DE90051DECF0A3EDF088
:1030FD00C374B89D900518F0740B9C900517803A19
:10310D00EF64027038D3ED9480EC940740047C0793
:10311D007D80C3ED9450EC940050047C007D50C232
:10312D00DE90051FECF0A3EDF0AE04FFC374D09F4D
:0E313D0090051AF074079E900519F0D2DE225C
:102696009005E1EBF0A3EAF0A3E9F0AD07EDD394E2
:1026A600034003022834ED6403704CC2DEF5F9F5ED
:1026B600E99005E1E0FBA3E0FAA3E0F9120BCAFFFB
:1026C600E5A254CF4FF5A2900001120BE3FFE5D926
:1026D60054F14FF5D9900004120BE35401FFE5D9EC
:1026E60054FE4FF5D9900005120BE3B40104D2BF96
:1026F6008002C2BFD2DE229005E1E0FBA3E0FAA38E
:10270600E02404F9E43AFA120BCA5431120C109080
:1027160005E1E0FBA3E0FAA3E0F9900002120BE367
:10272600C39448400FE92404F9E43AFA120BCA5458
:10273600CF120C10ED704F9005E1E0FBA3E0FAA379
:10274600E0F9900004120BE3FF900002120BE3FE87
:102756004FF5DA900003120BE3FFE5F2543F4FF515
:10276600F2900006120CD7FBAAF090051BEAF0A324
:10277600EBF0C204900512EEF0900521EAF0A3EB0F
:10278600F0F5EAEAF5FAED6401704F9005E1E0FB39
:10279600A3E0FAA3E0F9900004120BE3FF90000215
:1027A600120BE3FE4FF5DB900003120BE3FFE5F39C
:1027B600543F4FF5F3900006120CD7FBAAF0900594
:1027C6001DEAF0A3EBF0C205900513EEF090052389
:1027D600EAF0A3EBF0F5EBEAF5FBED6402704F903F
:1027E60005E1E0FBA3E0FAA3E0F9900004120BE395
:1027F600FF900002120BE3FE4FF5DC900003120B74
:10280600E3FFE5F4543F4FF5F4900006120CD7FDB4
:10281600ACF090051FECF0A3EDF0C206900514EEA7
:0F282600F0900525ECF0A3EDF0F5ECECF5FC22BD
:102835009005E5ECF0A3EDF09005E4EFF0705ED3C4
:10284500EB9464EA940040047A007B64C3EB940142
:10285500EA940050047A007B01C2DE9005E5E0FEB3
:10286500A3E0FFAD03AC02120C447C007D64120CA6
:102875005690051BEEF0A3EFF07C007D64AF03AE30
:1028850002120C56C374019FFFE49EFE9005E5E01D
:10289500FCA3E0FD120C4490051502296A9005E49D
:1028A500E06401705DD3EB9464EA940040047A001F
:1028B5007B64C3EB9401EA940050047A007B01C267
:1028C500DE7C007D64AF03AE02120C569005E5E098
:1028D500FCA3E0FD120C4490051DEEF0A3EFF07C87
:1028E500007D64AF03AE02120C56C374019FFFE472
:1028F5009EFE9005E5E0FCA3E0FD120C4490051753
:1029050080639005E4E064027062D3EB9464EA941A
:102915000040047A007B64C3EB9401EA9400500400
:102925007A007B01C2DE7C007D64AF03AE02120C2F
:10293500569005E5E0FCA3E0FD120C4490051FEE62
:10294500F0A3EFF0AE02AF037C007D64120C56C31A
:1029550074019FFFE49EFE9005E5E0FCA3E0FD12F7
:0D2965000C44900519EEF0A3EFF0D2DE2235
:03003B000233EF9E
:1033EF00C0E0C083C082C0D075D000C006C0073017
:1033FF00D82AC2D830A50590051B8003900515E08B
:10340F00FEA3E0FF900522E02FF0900521E03EF0B3
:10341F00900521E0FEA3E0F5EAEEF5FA30D92AC2D5
:10342F00D930A60590051D8003900517E0FEA3E097
:10343F00FF900524E02FF0900523E03EF090052348
:10344F00E0FEA3E0F5EBEEF5FB30DA2AC2DA30A7A7
:10345F000590051F8003900519E0FEA3E0FF90057E
:10346F0026E02FF0900525E03EF0900525E0FEA325
:10347F00E0F5ECEEF5FCD007D006D0D0D082D083AB
:03348F00D0E03258
:051616009005E9EFF072
:10161B00E4A3F09005EAE0FFC39406505AEF75F08F
:10162B000AA4243AF582E43404F583120ECF0000A9
:10163B0000009005EAE0FF75F00AA4243EF582E471
:10164B003404F583E4F0EF75F00AA4243FF582E44B
:10165B003404F583120ECF000000009005EAE0750C
:10166B00F00AA42443F582E43404F5837401F0906A
:10167B0005EAE004F0809C43BA80120BCAB4010562
:10168B0043F180800353F17F900001120BE3B4010F
:10169B00149005E9E0FF7401A807088002C333D852
:1016AB00FC42F180139005E9E0FF7401A807088064
:1016BB0002C333D8FCF452F1900002120BE3B401D5
:1016CB000543F540800353F5BF900003120BE3B4C1
:1016DB0001149005E9E0FF7401A807088002C333E9
:1016EB00D8FC42F580139005E9E0FF7401A80708C8
:1016FB008002C333D8FCF452F5900004120BE3B410
:10170B00010575F720800353F7DF900005120BE3FB
:10171B00B4010575F710800353F7EF900006120B19
:10172B00E3B4010575F708800353F7F79000071230
:10173B000BE3B4010575F704800353F7FB90000826
:10174B00120BE3B4010575F702800353F7FD90000C
:10175B0009120BE390FFF27006E054EFF08004E007
:10176B004410F090FFF2C083C082E0FF90000A1299
:10177B000BE3FEEF4ED082D083F09005E9E01460CE
:10178B00721470030218511470030218A41470031E
:10179B000218F71470030219482405600302199FFD
:1017AB0090000B120BE390FF047006E054F7F080EF
:1017BB0004E04408F090000C120BE390FF04B4011A
:1017CB0006E04404F08004E054FBF090000D120B93
:1017DB00E390FF04B40106E04402F08004E054FD02
:1017EB00F090000E120BE390FF04B4010302199565
:1017FB0002199B90000B120BE390FF147006E05440
:10180B00F7F08004E04408F090000C120BE390FF1B
:10181B0014B40106E04404F08004E054FBF09000A3
:10182B000D120BE390FF14B40106E04402F08004A8
:10183B00E054FDF090000E120BE390FF14B4010383
:10184B0002199502199B90000B120BE390FF247069
:10185B0006E054F7F08004E04408F090000C120B03
:10186B00E390FF24B40106E04404F08004E054FB51
:10187B00F090000D120BE390FF24B40106E044023C
:10188B00F08004E054FDF090000E120BE390FF2467
:10189B00B4010302199502199B90000B120BE390F4
:1018AB00FF347006E054F7F08004E04408F0900039
:1018BB000C120BE390FF34B40106E04404F08004F7
:1018CB00E054FBF090000D120BE390FF34B40106D3
:1018DB00E04402F08004E054FDF090000E120BE3A4
:1018EB0090FF34B4010302199502199B90000B125F
:1018FB000BE390FF447006E054F7F08004E04408DB
:10190B00F090000C120BE390FF44B40106E044048A
:10191B00F08004E054FBF090000D120BE390FF44B9
:10192B00B40106E04402F08004E054FDF090000E98
:10193B00120BE390FF44B40102804F805390000BD5
:10194B00120BE390FF547006E054F7F08004E04470
:10195B0008F090000C120BE390FF54B40106E04426
:10196B0004F08004E054FBF090000D120BE390FFA9
:10197B0054B40106E04402F08004E054FDF0900002
:10198B000E120BE390FF54B40106E04401F0800407
:10199B00E054FEF090000F120BE3B4010443F5800A
:0419AB002253F57F4F
:0119AF002215
:10471E00EF75F00AA4243AF582E43404F583E0FC44
:0A472E00A3E0FDA3E0FEA3E0FF22DC
:10473800EF75F00AA4243FF582E43404F583E0FC25
:0A474800A3E0FDA3E0FEA3E0FF22C2
:103B3D009005EBECF0A3EDF0AB079005EBE0FEA3E9
:103B4D00E0FFE4FCFDEB75F00AA4243AF582E434C1
:103B5D0004F583120EC343BA8053F57FEB75F00A5B
:103B6D00A42443F582E43404F583E0FF7E00900540
:103B7D00EBE0FCA3E0FD120C44AB07AA06E4F9F858
:103B8D00FF7E367D6E7C01123E751247E953BA7F7A
:013B9D002205
:102E23009005CAEFF07F337E337D737C3FA3E0F8D8
:102E3300A3E0F9A3E0FAA3E0FB120A9E600C400AA8
:102E43009005CB120ECF3F7333337FCD7ECC7DCC39
:102E53007C3C9005CBE0F8A3E0F9A3E0FAA3E0FB08
:102E6300120A9E500A9005CB120ECF3CCCCCCD90CB
:102E730005CBE0FCA3E0FDA3E0FEA3E0FF9005CAC1
:102E8300E0FB75F00AA4243FF582E43404F58312D1
:102E93000EC343BA80EB75F00AA42443F582E434ED
:102EA30004F583E0FFE4FCFDFEEB75F00AA4243A8D
:102EB300F582E43404F583E0F8A3E0F9A3E0FAA390
:102EC300E0FB120D0FA804A905AA06AB077F007E3D
:102ED300367D6E7C01120D9AE4120B0B9005CAE04D
:102EE30075F00AA4243FF582E43404F583E0F8A3E3
:102EF300E0F9A3E0FAA3E0FB1208F8E4FBFA792077
:102F030078411208F8E4FBFA79A07840120807E444
:102F1300FBFA79207841120A01120B49AB07AA0682
:0F2F23009005CAE0FFE4FDFC12353053BA7F225F
:10492E00EF75F00AA42443F582E43404F583EDF028
:01493E002256
:10493F00EF75F00AA42443F582E43404F583E0FF15
:01494F002245
:0A49BF0043BA8043F58053BA7F220B
:0A49C90043BA8053F57F53BA7F22F2
:1041080043BA807401A807088002C333D8FC42F57B
:10411800EF75F00AA4243EF582E43404F5837401B3
:08412800F043F58053BA7F2239
:1041F40043BA807401A807088002C333D8FCF45280
:10420400F5EF75F00AA4243EF582E43404F583E462
:05421400F053BA7F2207
:1048D800EF75F00AA4243EF582E43404F583E0245D
:0248E800FF22AD
:1047E900D3E49F74809E400D90FFF1EFF0EE90FFAF
:0847F900F0F07F00227F012295
:10353000EF14602814603A14604C14605E146070DC
:10354000240560030235C790FF01EDF0EC90FF0009
:10355000F090FF03EBF0EA90FF02806790FF11ED1F
:10356000F0EC90FF10F090FF13EBF0EA90FF128068
:103570005290FF21EDF0EC90FF20F090FF23EBF054
:10358000EA90FF22803D90FF31EDF0EC90FF30F0AB
:1035900090FF33EBF0EA90FF32802890FF41EDF08E
:1035A000EC90FF40F090FF43EBF0EA90FF42801375
:1035B00090FF51EDF0EC90FF50F090FF53EBF0EAEC
:0A35C00090FF52F07F00227F0122ED
:102FEC0054696D65723120696E697469616C697AB6
:102FFC00696E672073756363656564200A005469A4
:10300C006D65723120696E697469616C697A696E7B
:10301C0067206661696C6564200A0054696D65728D
:10302C003320696E697469616C697A696E672073A3
:10303C00756363656564200A0054696D657233209D
:10304C00696E697469616C697A696E672066616919
:10305C006C6564200A0054696D65723420696E6970
:10306C007469616C697A696E6720737563636565F1
:10307C0064200A0054696D65723420696E69746944
:10308C00616C697A696E67206661696C6564200A97
:01309C000033
:1031BC0041050302410504024205050000420507D2
:1031CC0000004204FF00004204FD00004105110014
:1031DC004104FC00410502004105010044050900C1
:0A31EC0000000044050D0000000083
:1032A100E490055BF090054BF0A3F0A304F0E4A3D8
:1032B100F0A3F0900552F090055074A2F0A3744071
:1032C100F0E4900553F0A3F0A304F0E4A3F0A3F01D
:1032D10090055A04F090055874FFF0A37410F07F24
:1032E10001121EF190055BEFF070087BFF7A2F79D8
:1032F100EC800A90055BE07BFF7A30790A12480185
:103301007F03121EF190055BEFF070087BFF7A30AE
:103311007927800A90055BE07BFF7A307945124876
:10332100017B017A0579537F04121EF790055BEF4B
:10333100F070087BFF7A307962800A90055BE07B50
:08334100FF7A30798012480187
:013349002261
:10421900900503E0601EA3E0601AEF24FE600B0422
:104229007012900509ECF0A3EDF0AF0590050DECC7
:05423900F0A3EFF022EC
:10475200EF24FE600804700E900509800390050D99
:0A476200E0FEA3E0FF22E4FEFF22C8
:1045FE00EF24FE600C04701390050BECF0A3EDF0AD
:0C460E0022AF0590050FECF0A3EFF022A6
:10476C00EF24FE600804700E90050B800390050F7B
:0A477C00E0FEA3E0FF22E4FEFF22AE
:1047B800EF24FE600A047010C28E90050380065331
:0947C800D1F79005047402F022FF
:10457100EF24FE600D047014900503E07002D32255
:0D458100C322900504E07003D38001C32223
:10446600EF24FE600E047016900503E0B40102D33B
:0F44760022C322900504E0B40103D38001C322C6
:10448500EF24FE600E047016900503E0B40202D31B
:0F44950022C322900504E0B40203D38001C322A6
:1043E800AE071245714018EF24FE600B047010D21E
:1043F8008EE4900503F02243D108E4900504F022EE
:0E498D00AE0712446650051243E8D322C3223F
:0949D3009004FFE0FEA3E0FF22C6
:0949DC009004FDE0FEA3E0FF22BF
:064A0000900511E0FF2209
:064A06009004FCE0FF2219
:064A0C00900502E0FF220C
:064A1200900501E0FF2207
:03001B00023E2E74
:103E2E00C0E0C0F0C083C082C0D075D000C000C05A
:103E3E0006900505E475F001120CABFED390050A51
:103E4E00E095F0900509E09E500EC28E900505E4B7
:103E5E00F0A3F090050304F0D006D000D0D0D082AD
:073E6E00D083D0F0D0E03258
:03009B00023DE63D
:103DE600C0E0C0F0C083C082C0D075D000C000C0A3
:103DF60006900507E475F001120CABFED390050E94
:103E0600E095F090050DE09E500F53D1F790050711
:103E1600E4F0A3F090050404F0D006D000D0D0D092
:083E260082D083D0F0D0E0321D
:0300A3000236E83A
:1036E800C0E0C0F0C083C082C0D075D000C000C0A8
:1036F80006C2AF9004FFE475F00A120CABFEC3E5F6
:10370800F094E8EE940340519004FFE4F0A3F090A5
:1037180004FD75F001120CABFEC3E5F094E8EE94DD
:103728000340369004FDE4F0A3F0900511E004F0A6
:10373800943C4025E4F09004FCE004F0943C4019EB
:10374800E4F0900502E004F09418400DE4F09005D0
:1037580001E004F0B4FF02E4F0D2AFD006D000D00C
:0A376800D0D082D083D0F0D0E03240
:061EF1007B017A05794B2C
:101EF700AD07EDD3940440037F0122ED7073120BFD
:101F0700CAFED3940340037F0222C28CC2A9C2B97E
:101F17005389F0538E7F538FFE900002120BE3B468
:101F27000102D2A9900001120BE3B40102D2B9EE6B
:101F37004289900003120BE3FF7003438E80EFB4D6
:101F47000203438904900004120BE3B40103438F97
:101F570001900005120CD7E5F0F58C900005120CE6
:101F6700D7F58A900007120BE3B40102D28C7F00E9
:101F770022ED64017076120BCAFEC3940340037FFF
:101F87000222C28EC2ABC2BB53890F538EBF538F7F
:101F9700FD900002120BE3B40102D2AB90000112D4
:101FA7000BE3B40102D2BBEEC454F04289900003A4
:101FB700120BE3FF7003438E40EFB40203438940E3
:101FC700900004120BE3B40103438F029000051243
:101FD7000CD7E5F0F58D900005120CD7F58B900026
:101FE70007120BE3B40102D28E7F0022ED64027068
:101FF70063900003120BE3FED3940240037F022297
:10200700538EE353AFFB538FFB900002120BE3B4E5
:10201700010343AF04EE7003438E04900003120BD9
:10202700E3B40203438E08900004120BE3B40103E8
:10203700438F04900005120CD7E5F0F5D690000504
:10204700120CD7F5D7900007120BE3B40103438EA8
:10205700107F0022ED64037060900003120BE3FE13
:10206700D3940240037F022253D1F053AFDF900095
:1020770002120BE3B4010343AF20EE700343D10216
:10208700900003120BE3B4020343D106900004123D
:102097000BE3B4010343D101900005120CD7E5F01F
:1020A700F5D4900005120CD7F5D5900007120BE375
:1020B700B4010343D1087F0022ED6404705C9000F3
:1020C70003120BE3FED3940240037F022253D10F86
:1020D70053AFBF900002120BE3B4010343AF40EECE
:1020E700700343D120900003120BE3B4020343D1E2
:1020F70060900004120BE3B4010343D11090000574
:10210700120CD7FDACF0ECF5D28DD3900007120B73
:0D211700E3B4010343D1807F00227F022248
:100F360090029AEBF0A3EAF0A3E9F0900299EFF0A1
:100F46006401600302114890000004F0E4A3F0A3DA
:100F5600F0A3F0A3F0A3F0A3F090029DF090029D01
:100F6600E0FFC39480501474382FF582E43401F501
:100F760083E4F090029DE004F080E2E490029DF0AC
:100F860090029DE0FFC394805014741C2FF582E4F8
:100F96003400F583E4F090029DE004F080E29002D4
:100FA6009AE0FBA3E0FAA3E0F9120BCAD394C0407F
:100FB600037F022290000A120BE3B40104D2BC8024
:100FC60002C2BC120BCAFFE598543F4FF598EF6476
:100FD600C06008EF644060030210C2900002120E67
:100FE6005E7F807E8D7D5B7C00120D9A90029E1244
:100FF6000EC3E4FFFE7D01FC90029EE0F8A3E0F93B
:10100600A3E0FAA3E0FBC3120E3A40037F0222904C
:10101600029EE0F8A3E0F9A3E0FAA3E0FBC3E49B99
:10102600FFE49AFE740199FDE498FC90029E120E6C
:10103600C390029AE0FBA3E0FAA3E0F99000011244
:101046000BE3FB64017038C28E538EFE5389BF5387
:1010560089CF438E4090029EE0FCA3E0FDA3E0FE14
:10106600A3E0FF7808120E4B8F8D90029EA3A3A3D8
:10107600E0F58BC2AB5389BF538FFDD28E8076EBE2
:1010860064027035538EEF438E01538EF7438E0400
:1010960090029EE0FCA3E0FDA3E0FEA3E0FF78083B
:1010A600120E4B8FD690029EA3A3A3E0F5D753AFA3
:1010B600FB538EF7438E10803C7F022290029AE00B
:1010C600FBA3E0FAA3E0F9120BCAFF701390000825
:1010D600120BE3B40105438E20801A538EDF801570
:1010E600EFB48011900008120BE3B401054387802A
:1010F600800353877F90029AE0FBA3E0FAA3E0F90E
:10110600900009120BE3B40104D2AC8002C2AC9089
:101116000007120BE3B40104D29C8002C29C90002B
:101126000B120BE354C0FFE5A2543F4FF5A290000B
:101136000C120BE3B4010543971080035397EF7F1E
:101146000022900299E0640260030212AA9000074E
:101156007402F0E4A3F0A3F0A3F0A3F0A3F0A3F0CD
:1011660090029DF090029DE0FFC39480501474D4C9
:101176002FF582E43401F583E4F090029DE004F05B
:1011860080E2E490029DF090029DE0FFC3948050BF
:1011960014749C2FF582E43400F583E4F090029DEC
:1011A600E004F080E290029AE0FBA3E0FAA3E0F903
:1011B600120BCAFF64C06008EF6440600302126A43
:1011C60090000A120BE3B4010543B501800353B541
:1011D600FE120BCAB4C005439A808003539A7F90CF
:1011E6000002120E5E7F807E8D7D5B7C00120D9A62
:1011F60090029E120EC3E4FFFE7D01FC90029EE06B
:10120600F8A3E0F9A3E0FAA3E0FBC3120E3A400309
:101216007F022290029EE0F8A3E0F9A3E0FAA3E0A1
:10122600FBC3E49BFFE49AFE740199FDE498FC90ED
:10123600029E120EC3538EEF538EF7438E04900216
:101246009EE0FCA3E0FDA3E0FEA3E0FF7808120EFB
:101256004B8FD690029EA3A3A3E0F5D753AFFB43D3
:101266008E1080037F022290029AE0FBA3E0FAA38D
:10127600E0F9900009120BE3B4010543AF018003C6
:1012860053AFFE900007120BE3B40105439A10809A
:1012960003539AEF90000B120BE35401FFE5BA5487
:1012A600FE4FF5BA900299E06403600302145D9064
:1012B600000E7402F0E4A3F0A3F0A3F0A3F0A3F0F1
:1012C600A3F090029DF090029DE0FFC3941C501481
:1012D60074542FF582E43402F583E4F090029DE025
:1012E60004F080E2E490029DF090029DE0FFC3943A
:1012F6001C5014741C2FF582E43401F583E4F0903D
:10130600029DE004F080E290029AE0FBA3E0FAA3DB
:10131600E0F9120BCAFF64C06008EF644060030284
:10132600141D53ACDFEFB4C00543AC80800353AC4F
:101336007F90029AE0FBA3E0FAA3E0F99000021284
:101346000E5E7F807E8D7D5B7C00120D9A90029EE4
:10135600120EC3E4FFFE7D01FC90029EE0F8A3E0BE
:10136600F9A3E0FAA3E0FBC3120E3A40037F022280
:1013760090029EE0F8A3E0F9A3E0FAA3E0FBC3E441
:101386009BFFE49AFE740199FDE498FC90029E127C
:101396000EC390029AE0FBA3E0FAA3E0F9900001E5
:1013A600120BE3FB6402703253ACBF538EEF538EC5
:1013B600F7438E0490029EE0FCA3E0FDA3E0FEA3AB
:1013C600E0FF7808120E4B8FD690029EA3A3A3E0EF
:1013D600F5D753AFFB438E108040EB640170354365
:1013E600AC4053D1F053AFDF43D10253D1FB53D1BD
:1013F600FE90029EE0FCA3E0FDA3E0FEA3E0FF78E2
:1014060008120E4B8FD490029EA3A3A3E0F5D543FA
:10141600D10880067F02227F022290029AE0FBA377
:10142600E0FAA3E0F9900009120BE3B4010543AF1B
:1014360008800353AFF7900007120BE3B40105438E
:10144600AC10800353ACEF90000B120BE35402FF79
:10145600E5BA54FD02160D900299E0640460030299
:1014660016139000157402F0E4A3F0A3F0A3F0A302
:10147600F0A3F0A3F090029DF090029DE0FFC394CC
:101486001C501474702FF582E43402F583E4F09056
:10149600029DE004F080E2E490029DF090029DE05F
:1014A600FFC3941C501474B82FF582E43401F583FD
:1014B600E4F090029DE004F080E290029AE0FBA343
:1014C600E0FAA3E0F9120BCAFF64C06008EF6440BB
:1014D60060030215D05384DFEFB4C00543848080D7
:1014E6000353847F90029AE0FBA3E0FAA3E0F9900D
:1014F6000002120E5E7F807E8D7D5B7C00120D9A4F
:1015060090029E120EC3E4FFFE7D01FC90029EE057
:10151600F8A3E0F9A3E0FAA3E0FBC3120E3A4003F6
:101526007F022290029EE0F8A3E0F9A3E0FAA3E08E
:10153600FBC3E49BFFE49AFE740199FDE498FC90DA
:10154600029E120EC390029AE0FBA3E0FAA3E0F912
:10155600900001120BE3FB640270325384BF538E7A
:10156600EF538EF7438E0490029EE0FCA3E0FDA3AA
:10157600E0FEA3E0FF7808120E4B8FD690029EA3E2
:10158600A3A3E0F5D753AFFB438E108040EB640274
:10159600703543844053D10F53AFBF43D12053D14D
:1015A600BF53D1EF90029EE0FCA3E0FDA3E0FEA3B3
:1015B600E0FF7808120E4B8FD290029EA3A3A3E001
:1015C600F5D343D18080067F02227F022290029AC1
:1015D600E0FBA3E0FAA3E0F9900009120BE3B401E3
:1015E6000543AF10800353AFEF900007120BE3B42F
:1015F600010543841080035384EF90000B120BE324
:0F1606005404FFE5BA54FB4FF5BA7F00227F036F
:0116150022B2
:1041A800900002E02438F582E43401F583EFF090C2
:1041B8000002E004F0C394804002E4F0900003E0C1
:0741C800700404F0D29922FB
:10413000900009E024D4F582E43401F583EFF09097
:104140000009E004F0C394804002E4F090000AE02B
:08415000700504F0439A0222FD
:10415800900010E02454F582E43402F583EFF090E7
:104168000010E004F0C3941C4002E4F0900011E059
:08417800700504F043AC0222C3
:10418000900017E02470F582E43402F583EFF0909C
:104190000017E004F0C3941C4002E4F0900018E023
:0841A000700504F043840222C3
:10480100C2AF120BCAFF600C1241A8740129F9E46E
:074811003AFA80EED2AF225B
:10486900120BCAFF600C124130740129F9E43AFABB
:0348790080EE22AC
:10487C00120BCAFF600C124158740129F9E43AFA80
:03488C0080EE2299
:10488F00120BCAFF600C124180740129F9E43AFA45
:03489F0080EE2286
:030023000239019E
:10390100C0E0C083C082C0D075D000C006C00730FF
:10391100982DC298900006E07025900004E0C394B1
:10392100804002E4F0900004E0FF04F0741C2FF5E5
:1039310082E43400F583E599F09000057405F030D8
:103941009930C299900002E0FF900001E0FE6F60A3
:103951001C74382EF582E43401F583E0F59990006A
:1039610001E004F0C394804009E4F0800590000375
:0F397100E4F0D007D006D0D0D082D083D0E0329F
:030043000237720F
:10377200C0E0C083C082C0D075D000C006C007E5DB
:103782009A30E02E539AFE90000DE0702590000BC7
:10379200E0C394804002E4F090000BE0FF04F07478
:1037A2009C2FF582E43400F583E59BF090000C74C5
:1037B20005F0E59A30E131539AFD900009E0FF905F
:1037C2000008E0FE6F601C74D42EF582E43401F52B
:1037D20083E0F59B900008E004F0C394804009E484
:1037E200F0800590000AE4F0D007D006D0D0D08255
:0537F200D083D0E0329D
:03008B000237F742
:1037F700C0E0C083C082C0D075D000C006C007E556
:10380700AC30E02E53ACFE900014E070259000120F
:10381700E0C3941C4002E4F0900012E0FF04F0744F
:103827001C2FF582E43401F583E5ADF090001374A5
:1038370005F0E5AC30E13153ACFD900010E0FF90AE
:10384700000FE0FE6F601C74542EF582E43402F51D
:1038570083E0F5AD90000FE004F0C3941C4009E449
:10386700F08005900011E4F0D007D006D0D0D082C8
:05387700D083D0E03217
:0300930002387CB4
:10387C00C0E0C083C082C0D075D000C006C007E5D0
:10388C008430E02E5384FE90001BE07025900019CC
:10389C00E0C3941C4002E4F0900019E0FF04F074C3
:1038AC00B82FF582E43401F583E585F090001A74A5
:1038BC0005F0E58430E1315384FD900017E0FF9072
:1038CC000016E0FE6F601C74542EF582E43402F591
:1038DC0083E0F585900016E004F0C3941C4009E4E5
:1038EC00F08005900018E4F0D007D006D0D0D0823C
:0538FC00D083D0E03292
:0E499B00E4F5C7F5C5F5C675C3FF75C4FF2268
:103EFC00AD07AC06C2AF75C78075C501ECF5C3AF95
:103F0C00058FC475C65A75C6A500E5C2120C100DF6
:103F1C00BD00010C740129F9E43AFA90058E74FF86
:0F3F2C00F5F0120CAB45F070D312499BD2AF22C7
:10440800AD07AC06C2AFECF5C3AF058FC475C78066
:1044180075C50375C65A75C6A50012499BD2AF2249
:103F3B00AD07AC06C2AF75C78075C502ECF5C3AF54
:103F4B00058FC4120BCAF5C275C65A75C6A5000DEE
:103F5B00BD00010C740129F9E43AFA90059574FF40
:0F3F6B00F5F0120CAB45F070D312499BD2AF2288
:101B2200EFD3940940037FFF2274232F2FF8E6207E
:101B3200E5F4C2AFE64430F6D2AFAE0CEEC39F502E
:101B4200210E740E2EF8E6F908E618BE090274FF9B
:101B5200FDED69600909E71919F7090980F31616FD
:101B620080DAEED39F400405810581EED39F4022A7
:101B7200740E2EF808E6F9EEB50C02A981180606D5
:101B8200E6FDED6960091919E70909F71980F31EE5
:101B920080D9EF240EF8E604F8EF2F0490482E9334
:091BA200F608EF2F93F67F0022F4
:101BAB00EFD3940940037FFF22EF232423F8E63081
:101BBB00E5F4C2AFE6548CF6D2AFE50CB5070A7468
:101BCB000E2FF8E6F581021A2B502E740F2FF8E624
:101BDB00BF090274FFFD18E6F9740E2FF8FBE6FC43
:101BEB00E96C6008A805E7F61D1980F4A803A605A3
:101BFB001FE50CB507E37F0022740F2FF8E6FD18E5
:101C0B0086010F740E2FF8A601088604E50CB507A4
:101C1B0002AC81ED6C60080D09A805E6F780F4E5D0
:091C2B000CB507DE89817F00225F
:101C34008FF0E4FFFEE50C232422F8C2A930F70D4F
:101C44007F08E6600B2DF660325030800730F106D5
:101C5400EDF660277E020830F010C2AFE610E725EB
:101C64000E30E20CD2AF7F048014C2AFE610E71549
:101C740054EC4EF6D2AFD2A9021A2B7F0808EF44D7
:0F1C840083F4C2AF56C6D2AFD2A954804FFF220D
:10080000020BB5E86480F8E933E83360110460F066
:10081000ED33EC337009E8FCE9FDEAFEEBFF22045E
:1008200060DED3EB9FEA9EE99DE8C2E78CF0C2F759
:1008300095F0400CE8CCF8E9CDF9EACEFAEBCFFB25
:10084000120B8085D0F05804700320D5B3E80470F3
:10085000075002B2D5020BBF92D5EC0460F7E4CC8E
:10086000C0E0C398F8603B94186008400DD0E0FBEE
:10087000020B97E4FBFAC9FC8028E830E406E4C9DF
:10088000FBE4CAFCE830E305E4C9CACBFCE8540742
:100890006010F8C3E913F9EA13FAEB13FBEC13FC4D
:1008A000D8F130F52FC3E49CFCEF9BFFEE9AFEEDF0
:1008B00099FDD0E0FBEF4E4D4C701222DB03020B92
:1008C000BCEC2CFCEF33FFEE33FEED33FDED30E7F7
:1008D000EB020B97EF2BFFEE3AFEED39FDD0E0FB7C
:1008E00050130BBB0003020BBFED13FDEE13FEEF25
:0808F00013FFEC13FC020B974F
:1008F800EC4D6011E8497017ED33EC3304600DE4FA
:10090800FCFFFEFD22E933E8330470F8020BB51250
:100918000B8058046009E4CC248150062850090251
:100928000BBF284003020BBCC0E0EB4A7044B980FF
:1009380006D0E0FB020BABEF4E701CBD8008EBFF4E
:10094800EAFEE9FD80EBE98DF0A4FEE5F00209E19D
:10095800E9CDF9EAFEEBFFEF89F0A4FCE5F0CE89DA
:10096800F0A42EFFE435F0CD89F0A42DFEE435F097
:100978008067EF4E7005BD80D780C3EF8BF0A4ACC5
:10098800F0EE8BF0A42CFCE435F0F8EF8AF0A42C00
:10099800E5F038FCE433CB8DF0A42CFCE5F03BF813
:1009A800EE8AF0A42CFCE5F038F8E433CF89F0A403
:1009B8002CFCE5F038CF3400CE89F0A42FFFE5F009
:1009C8003EFEE433C98DF0A42EFEE5F039CD8AF061
:1009D800A42FFFE5F03EFEE43DFD33D0E0FB5007D9
:1009E8000BBB000F020BBFEC2CFCEF33FFEE33FE0A
:0609F800ED33FD020B9738
:1009FE00020BBFEC5D046005E859047003020BB5F1
:100A0E00120B80580460F6EC4860F2EC7004FDFEA8
:100A1E00FF22C860DB2481C85009C39860025006CB
:100A2E00020BBC9850CAF582E9294B4A7005AB827D
:100A3E00020BAB75F0007C1A7880C3EF9BEE9AED3B
:100A4E0099400DC3EF9BFFEE9AFEED99FDE842F043
:100A5E00DC23ACF0D0E0FFD0E0FED0E0FDAB822096
:100A6E00E7101BEB60BAEC2CFCEF33FFEE33FEED20
:100A7E0033FD020B97E803F830E705C0F075F00080
:100A8E00EF2FFFEE33FEED33FD40B830E7C280AA04
:100A9E0074F8CC6480CCC86480C8F582046043C30B
:100AAE00EB9FF5F0EA9E42F0E99D42F0E89C45F09E
:100ABE0060305018E5825FFFE582F42B5582FB50C3
:100ACE00210ABA001D09B90019088016E5825BFBE0
:100ADE00E582F42F5582FF50090EBE00050DBD00B4
:100AEE00010CC3EB9FF5F0EA9E42F0E99D42F0E85F
:0D0AFE009C45F06007CC4820E701B3EC22D6
:100B0B0075F020800E75F010800575F0087D007E65
:100B1B00007F003392D530D503120E2CEC334010EE
:100B2B00EF33FFEE33FEED33FDEC33FCD5F0ED226E
:0E0B3B00E5F0247EA2D513CC92E7CDCEFF22AA
:100B4900EDD2E7CD33EC3392D524814006E4FFFEA4
:100B5900FDFC22FCE4CFCECDCC24E0501174FF8003
:100B6900EDC3CC13CCCD13CDCE13CECF13CF0470A0
:070B7900F030D5DE020E2C66
:100B8000E9D2E7C933E833F892D5EDD2E7CD33ECBB
:070B900033FC5002B2D52234
:100B9700EC30E7100FBF000C0EBE00080DBD0004BF
:100BA7000BEB6014A2D5EB13FCED92E7FD2274FF6B
:100BB700FCFDFEFF22E480F8A2D574FF13FC7D80C4
:030BC700E480EFD8
:0300000002365C69
:0C365C00787FE4F6D8FD7581350236A3B6
:100BCA00BB010689828A83E0225002E722BBFE0229
:090BDA00E32289828A83E493225C
:100BE300BB010CE58229F582E5833AF583E02250C7
:100BF30006E92582F8E622BBFE06E92582F8E22211
:0D0C0300E58229F582E5833AF583E493222A
:100C1000BB010689828A83F0225002F722BBFE01C3
:020C2000F322BD
:100C2200F8BB010DE58229F582E5833AF583E8F008
:100C3200225006E92582C8F622BBFE05E92582C8B4
:020C4200F2229C
:100C4400EF8DF0A4A8F0CF8CF0A428CE8DF0A42EC4
:020C5400FE227E
:100C5600BC000BBE0029EF8DF084FFADF022E4CC82
:100C6600F875F008EF2FFFEE33FEEC33FCEE9DEC4B
:100C7600984005FCEE9DFE0FD5F0E9E4CEFD22ED91
:100C8600F8F5F0EE8420D21CFEADF075F008EF2FDB
:100C9600FFED33FD4007985006D5F0F222C398FDCC
:050CA6000FD5F0EA2269
:100CAB00C5F0F8A3E028F0C5F0F8E58215827002D4
:060CBB001583E038F02271
:100CC100A3F8E0C5F025F0F0E582158270021583E6
:060CD100E0C838F0E82243
:100CD700BB0110E58229F582E5833AF583E0F5F05B
:100CE700A3E0225009E92582F886F008E622BBFE38
:100CF7000AE92582F8E2F5F008E222E5832AF5837E
:080D0700E993F5F0A3E9932242
:100D0F00E88FF0A4CC8BF0A42CFCE98EF0A42CFC83
:100D1F008AF0EDA42CFCEA8EF0A4CDA8F08BF0A401
:100D2F002DCC3825F0FDE98FF0A42CCD35F0FCEB60
:100D3F008EF0A4FEA9F0EB8FF0A4CFC5F02ECD3925
:0F0D4F00FEE43CFCEAA42DCE35F0FDE43CFC2292
:100D5E0075F008758200EF2FFFEE33FECD33CDCC4C
:100D6E0033CCC58233C5829BED9AEC99E5829840CF
:100D7E000CF582EE9BFEED9AFDEC99FC0FD5F0D6AC
:100D8E00E4CEFBE4CDFAE4CCF9A88222B800C1B9D6
:100D9E000059BA002DEC8BF084CFCECDFCE5F0CB14
:100DAE00F97818EF2FFFEE33FEED33FDEC33FCEB4D
:100DBE0033FB10D703994004EB99FB0FD8E5E4F908
:100DCE00FA227818EF2FFFEE33FEED33FDEC33FCF5
:100DDE00C933C910D7059BE99A4007EC9BFCE99AE9
:100DEE00F90FD8E0E4C9FAE4CCFB2275F010EF2F2E
:100DFE00FFEE33FEED33FDCC33CCC833C810D7072E
:100E0E009BEC9AE899400AED9BFDEC9AFCE899F868
:0E0E1E000FD5F0DAE4CDFBE4CCFAE4C8F922FB
:103E7500C2D5E830E70FB2D5E4C39BFBE49AFAE478
:103E850099F9E498F8EC30E717B2D5123EAB120D6C
:103E95009AE4C39BFBE49AFAE499F9E498F8800361
:103EA500120D9A30D50DE4C39FFFE49EFEE49DFDFF
:043EB500E49CFC226B
:0E0E2C00C3E49FFFE49EFEE49DFDE49CFC22D7
:100E3A00EB9FF5F0EA9E42F0E99D42F0E89C45F00E
:010E4A002285
:100E4B00E8600FECC313FCED13FDEE13FEEF13FF85
:030E5B00D8F122A9
:100E5E00BB010DE58229F582E5833AF583020F0D7C
:100E6E005007E92582F8020F00BBFE07E92582F83C
:100E7E00020F19E58229F582E5833AF583020F26E2
:100E8E007401FF3395E0FEFDFCA3A3A3E0CF2FF08A
:100E9E00E582158270021583E0CE3EF0E582158262
:100EAE0070021583E0CD3DF0E58215827002158348
:050EBE00E0CC3CF02235
:0C0EC300ECF0A3EDF0A3EEF0A3EFF022A2
:100ECF00A8828583F0D083D082120EE6120EE6122E
:100EDF000EE6120EE6E473E493A3C583C5F0C58353
:100EEF00C8C582C8F0A3C583C5F0C583C8C582C86D
:010EFF0022D0
:10366800021AE5E493A3F8E493A34003F68001F279
:1036780008DFF48029E493A3F85407240CC8C33363
:10368800C4540F4420C8834004F456800146F6DF32
:10369800E4800B010204081020408090314BE47E46
:1036A800019360BCA3FF543F30E509541FFEE49327
:1036B800A360010ECF54C025E060A840B8E493A3EE
:1036C800FAE493A3F8E493A3C8C582C8CAC583CA19
:1036D800F0A3C8C582C8CAC583CADFE9DEE780BED1
:0131F60000D8
:0D0F0000E6FB08E6F908E6FA08E6CBF82261
:0C0F0D00E0F8A3E0F9A3E0FAA3E0FB2267
:0D0F1900E2FB08E2F908E2FA08E2CBF82258
:100F2600E493F8740193F9740293FA740393FB2221
:00000001FF
