:024554003D1216
:02455600461C01
:02455800473CDE
:02455A00451109
:02455E0044E037
:02456200430E06
:024564003EEA2D
:02456600447B94
:103982001212AAF59D9000011212C3FFE5BC549FCA
:103992004FF5BC9000021212C3B4010543BC8080F3
:1039A2000353BC7F9000031212C3B4010543972056
:1039B20080035397DF9000051212C3B40104D2AD05
:1039C2008002C2AD9000041212C3B40103D2BD2220
:0339D200C2BD2251
:0C46A000EFB4010443BC802253BC7F2215
:10382300EFD3940740028051E4F5BDF5BEE5BC54E7
:10383300E044084FF5BC00000000E4FBE5BC30E4C5
:103843003353BCEFE59730E509E5BD5403ADBEFC4A
:10385300801DAFBD7C00AD07ED7E007802C333CE83
:1038630033CED8F9FFE5BE5403FDEEFCEF4DFDAFBB
:0D38730005AE04220BEBB4FAC37E047F0007
:013880002225
:03002B0002472960
:0447290053BCEF325C
:0F462D007D037C09ED1D70011C144C70F7DFF14B
:01463C00225B
:03472D00A20922BC
:10200800EFD3940540037F01221212AAFED3940352
:1020180040037F0222EF7041EE700B900001121214
:10202800C3F4529352941212AAB4010B90000112F5
:1020380012C34293F452941212AAFEB4020A9000F8
:10204800011212C342934294EEB4030D90000112A0
:1020580012C3FEF45293EE4294EF640170431212DD
:10206800AAFE700B9000011212C3F452915292EE24
:10207800B4010B9000011212C34291F45292121251
:10208800AAB4020A9000011212C34291429212129B
:10209800AAB4030D9000011212C3FEF45291EE424D
:1020A80092EF640270431212AAFE700B90000112A4
:1020B80012C3F452955296EEB4010B90000112121D
:1020C800C34295F452961212AAB4020A9000011261
:1020D80012C3429542961212AAB4030D900001123F
:1020E80012C3FEF45295EE4296EF64037043121247
:1020F800AAFE700B9000011212C3F452B152B2EE54
:10210800B4010B9000011212C342B1F452B2121280
:10211800AAB4020A9000011212C342B142B21212CA
:10212800AAB4030D9000011212C3FEF452B1EE429C
:10213800B2EF640470431212AAFE700B90000112F1
:1021480012C3F452B352B4EEB4010B900001121250
:10215800C342B3F452B41212AAB4020A9000011294
:1021680012C342B342B41212AAB4030D9000011272
:1021780012C3FEF452B3EE42B4EF64057043121278
:10218800AAFF700B9000011212C3F452C952CAEF91
:10219800B4010B9000011212C342C9F452CA1212C0
:1021A800AAB4020A9000011212C342C942CA12120A
:1021B800AAB4030D9000011212C3FFF452C9EF42F2
:0421C800CA7F0022A8
:102E4400EF7034D3ED9498EC940340047C037D98A4
:102E5400C3ED9450EC940050047C007D50C2DE908D
:102E640004FFECF0A3EDF0C374E89D9004FAF07451
:102E7400039C9004F98073EF64017034D3ED94687B
:102E8400EC940B40047C0B7D68C3ED9450EC9400EF
:102E940050047C007D50C2DE900501ECF0A3EDF0FF
:102EA400C374B89D9004FCF0740B9C9004FB803AAE
:102EB400EF64027038D3ED9480EC940740047C07EF
:102EC4007D80C3ED9450EC940050047C007D50C28E
:102ED400DE900503ECF0A3EDF0AE04FFC374D09FC5
:0E2EE4009004FEF074079E9004FDF0D2DE22F2
:10237C009005CFEBF0A3EAF0A3E9F0AD07EDD39411
:10238C0003400302251AED6403704CC2DEF5F9F527
:10239C00E99005CFE0FBA3E0FAA3E0F91212AAFF43
:1023AC00E5A254CF4FF5A29000011212C3FFE5D95C
:1023BC0054F14FF5D99000041212C35401FFE5D922
:1023CC0054FE4FF5D99000051212C3B40104D2BFCC
:1023DC008002C2BFD2DE229005CFE0FBA3E0FAA3BD
:1023EC00E02404F9E43AFA1212AA54311212F090D1
:1023FC0005CFE0FBA3E0FAA3E0F99000021212C3B0
:10240C00C39448400FE92404F9E43AFA1212AA548E
:10241C00CF1212F0ED704F9005CFE0FBA3E0FAA3C2
:10242C00E0F99000041212C3FF9000021212C3FED6
:10243C004FF5DA9000031212C3FFE5F2543F4FF54B
:10244C00F29000061213B7FBAAF09004FFEAF0A377
:10245C00EBF0C2049004F6EEF0900505EAF0A3EB65
:10246C00F0F5EAEAF5FAED6401704F9005CFE0FB68
:10247C00A3E0FAA3E0F99000041212C3FF9000024B
:10248C001212C3FE4FF5DB9000031212C3FFE5F3EB
:10249C00543F4FF5F39000061213B7FBAAF09005CA
:1024AC0001EAF0A3EBF0C2059004F7EEF0900507FB
:1024BC00EAF0A3EBF0F5EBEAF5FBED6402704F905C
:1024CC0005CFE0FBA3E0FAA3E0F99000041212C3DD
:1024DC00FF9000021212C3FE4FF5DC9000031212A3
:1024EC00C3FFE5F4543F4FF5F49000061213B7FD0B
:1024FC00ACF0900503ECF0A3EDF0C2069004F8EEFE
:0F250C00F0900509ECF0A3EDF0F5ECECF5FC22F6
:10251B009005D3ECF0A3EDF09005D2EFF0705ED305
:10252B00EB9464EA940040047A007B64C3EB94015F
:10253B00EA940050047A007B01C2DE9005D3E0FEE2
:10254B00A3E0FFAD03AC021213247C007D641213D5
:10255B00369004FFEEF0A3EFF07C007D64AF03AE8A
:10256B0002121336C374019FFFE49EFE9005D3E065
:10257B00FCA3E0FD1213249004F90226509005D21F
:10258B00E06401705DD3EB9464EA940040047A003C
:10259B007B64C3EB9401EA940050047A007B01C284
:1025AB00DE7C007D64AF03AE021213369005D3E0E0
:1025BB00FCA3E0FD121324900501EEF0A3EFF07CD9
:1025CB00007D64AF03AE02121336C374019FFFE4A8
:1025DB009EFE9005D3E0FCA3E0FD1213249004FBB8
:1025EB0080639005D2E064027062D3EB9464EA944A
:1025FB000040047A007B64C3EB9401EA940050041E
:10260B007A007B01C2DE7C007D64AF03AE02121345
:10261B00369005D3E0FCA3E0FD121324900503EEE6
:10262B00F0A3EFF0AE02AF037C007D64121336C350
:10263B0074019FFFE49EFE9005D3E0FCA3E0FD1226
:0D264B0013249004FDEEF0A3EFF0D2DE2288
:03003B000230EAA6
:1030EA00C0E0C083C082C0D075D000C006C007301F
:1030FA00D82AC2D830A5059004FF80039004F9E0CD
:10310A00FEA3E0FF900506E02FF0900505E03EF0F3
:10311A00900505E0FEA3E0F5EAEEF5FA30D92AC2F9
:10312A00D930A60590050180039004FBE0FEA3E0D8
:10313A00FF900508E02FF0900507E03EF0900507A4
:10314A00E0FEA3E0F5EBEEF5FB30DA2AC2DA30A7AF
:10315A000590050380039004FDE0FEA3E0FF9005BF
:10316A000AE02FF0900509E03EF0900509E0FEA381
:10317A00E0F5ECEEF5FCD007D006D0D0D082D083B3
:03318A00D0E03260
:0E465C00E4F5C7F5C5F5C675C3FF75C4FF22AA
:103B9900AD07AC06C2AF75C78075C501ECF5C3AFFB
:103BA900058FC475C65A75C6A500E5C21212F00D77
:103BB900BD00010C740129F9E43AFA90057974FF02
:0F3BC900F5F012138B45F070D312465CD2AF2289
:1040A000AD07AC06C2AFECF5C3AF058FC475C780D2
:1040B00075C50375C65A75C6A50012465CD2AF22F7
:103BD800AD07AC06C2AF75C78075C502ECF5C3AFBB
:103BE800058FC41212AAF5C275C65A75C6A5000D6E
:103BF800BD00010C740129F9E43AFA90058074FFBC
:0F3C0800F5F012138B45F070D312465CD2AF2249
:030003000247367B
:014736003250
:030013000247376A
:01473700324F
:0300530002473829
:01473800324E
:03005B0002473920
:01473900324D
:0300830002473AF7
:01473A00324C
:102CDD00EFD3940440037F0122EF702D9000021278
:102CED0012C3B40104D2A88002C2A890000112122E
:102CFD00C3B40104D2B88002C2B81212AAB401043E
:102D0D00D2888002C2887F0022EF6401702D90006E
:102D1D00021212C3B40104D2AA8002C2AA90000109
:102D2D001212C3B40104D2BA8002C2BA1212AAB4EA
:102D3D000104D28A8002C28A7F0022EFB40214906D
:102D4D0000021212C3B40105438F108003538FEF9D
:102D5D007F0022EFB403149000021212C3B40105D8
:102D6D00438F208003538FDF7F0022EFB404149034
:102D7D0000021212C3B40105438F408003538FBF6D
:062D8D007F00227F0222FC
:07468600C2A212468DD2A072
:05468D00007F0BDFFEC1
:014692002205
:0A46B700D2A2124688C2A202468D6C
:0646FB00124686D2A22245
:0D469300C2A0124686C2A012468DD2A222FD
:043E0500FF123E7AF0
:103E0900E4FEC2A012468DD2A2D2A012468D30A2E3
:103E19000DEEC394FF50070EA2A2920A80F0C2A031
:023E2900A20AEB
:013E2B002274
:0A46C100D2A2C2A0124688C2A022B5
:10417C00E4FED2A2FDC2A0124688EE25E0FE30A2DB
:0D418C00034401FE0DEDB408ECC2A0AF0627
:014199002203
:023E7A00AE0791
:103E7C00E4FDC2A012468DEE5480FFC413131354FC
:103E8C000124FF92A2124688EE25E0FE0DEDB40847
:033E9C00E1C2A0E0
:013E9F002200
:10449500AC05AE071246B7AF06123E7A123E09AF1B
:0944A50004123E7A123E09D322F2
:0B3C5000900584EBF0A3EAF0A3E9F07C
:103C5B00124495E4FC900587E0FFECC39F5019904C
:103C6B000584E0FBA3E475F0011213A1A9F0FA128D
:0B3C7B0012AA123E050C80DD0246FB81
:1039D50090058AEBF0A3EAF0A3E9F0900588EFF0F3
:1039E5001244951246B7E04401123E05E4FC9005E9
:1039F5008DE0FFECC39F502512417C90058AE0FBCA
:103A0500A3E475F0011213A1A9F0FAEF1212F090D8
:103A1500058DE0146C60031246930C80D11246C1EB
:033A25000246FB5B
:0515920090029EEFF045
:10159700E4A3F090029FE0FFC394065046EF75F076
:1015A70009A4245FF582E43404F58312152B0000A7
:1015B700000090029FE0FF75F009A42463F582E420
:1015C7003404F583E4F0EF75F009A42464F582E4AC
:1015D7003404F58312152B0000000090029FE004ED
:1015E700F080B043BA801212AAB4010543F180809B
:1015F7000353F17F9000011212C3B4011490029EAD
:10160700E0FF7401A807088002C333D8FC42F180C9
:101617001390029EE0FF7401A807088002C333D825
:10162700FCF452F19000021212C3B4010543F540D5
:10163700800353F5BF9000031212C3B40114900244
:101647009EE0FF7401A807088002C333D8FC42F567
:10165700801390029EE0FF7401A807088002C3333D
:10166700D8FCF452F59000041212C3B4010575F7C3
:1016770020800353F7DF9000051212C3B4010575EC
:10168700F710800353F7EF9000061212C3B4010559
:1016970075F708800353F7F79000071212C3B401D8
:1016A7000575F704800353F7FB9000081212C3B4C3
:1016B700010575F702800353F7FD9000091212C365
:1016C70090FFF27006E054EFF08004E04410F090D1
:1016D700FFF2C083C082E0FF90000A1212C3FEEF40
:1016E7004ED082D083F090029EE014607214700393
:1016F7000217B914700302180C14700302185F1450
:1017070070030218B02405600302190790000B123A
:1017170012C390FF047006E054F7F08004E0440819
:10172700F090000C1212C390FF04B40106E04404C9
:10173700F08004E054FBF090000D1212C390FF04F8
:10174700B40106E04402F08004E054FDF090000E7E
:101757001212C390FF04B401030218FD021903908B
:10176700000B1212C390FF147006E054F7F08004C8
:10177700E04408F090000C1212C390FF14B4010665
:10178700E04404F08004E054FBF090000D1212C313
:1017970090FF14B40106E04402F08004E054FDF029
:1017A70090000E1212C390FF14B401030218FD0239
:1017B700190390000B1212C390FF247006E054F730
:1017C700F08004E04408F090000C1212C390FF244C
:1017D700B40106E04404F08004E054FBF090000DEF
:1017E7001212C390FF24B40106E04402F08004E023
:1017F70054FDF090000E1212C390FF24B4010302AF
:1018070018FD02190390000B1212C390FF347006E3
:10181700E054F7F08004E04408F090000C1212C383
:1018270090FF34B40106E04404F08004E054FBF078
:1018370090000D1212C390FF34B40106E04402F089
:101847008004E054FDF090000E1212C390FF34B4F0
:1018570001030218FD02190390000B1212C390FF37
:10186700447006E054F7F08004E04408F090000C60
:101877001212C390FF44B40106E04404F08004E070
:1018870054FBF090000D1212C390FF44B40106E020
:101897004402F08004E054FDF090000E1212C39051
:1018A700FF44B40102804F805390000B1212C39083
:1018B700FF547006E054F7F08004E04408F090000D
:1018C7000C1212C390FF54B40106E04404F08004E4
:1018D700E054FBF090000D1212C390FF54B40106C0
:1018E700E04402F08004E054FDF090000E1212C3B1
:1018F70090FF54B40106E04401F08004E054FEF088
:1019070090000F1212C3B4010443F5802253F57FF0
:0119170022AD
:10432900EF75F009A4245FF582E43404F583E0FC19
:0A433900A3E0FDA3E0FEA3E0FF22D5
:10434300EF75F009A42464F582E43404F583E0FCFA
:0A435300A3E0FDA3E0FEA3E0FF22BB
:103A7B0090029EECF0A3EDF0AB0790029EE0FEA34C
:103A8B00E0FFE4FCFDEB75F009A4245FF582E43460
:103A9B0004F58312151F43BA8053F57F90029EE005
:103AAB00FEA3E0FBAA06E4F9F87F807EC37DC97C08
:0B3ABB0001123B551244F953BA7F2260
:102C080090029EEFF07F337E337D737C3FA3E0F824
:102C1800A3E0F9A3E0FAA3E0FB12117E600C400ADE
:102C280090029F12152B3F7333337FCD7ECC7D4CA2
:102C38007C3D90029FE0F8A3E0F9A3E0FAA3E0FB53
:102C480012117E500A90029F12152B3D4CCCCD904C
:102C5800029FE0FCA3E0FDA3E0FEA3E0FF90029E3C
:102C6800E0FB75F009A42464F582E43404F58312CA
:102C7800151F43BA80AF03C007EB75F009A4245FA2
:102C8800F582E43404F583E0F8A3E0F9A3E0FAA3BD
:102C9800E0FB7F807EC37DC97C0112142BE41211F6
:102CA800EB90029EE075F009A42464F582E43404F4
:102CB800F583E0F8A3E0F9A3E0FAA3E0FB120FD84C
:102CC8001212299002A612151FD007E4FDFC122645
:052CD8005853BA7F22F1
:0A46CB0043BA8043F58053BA7F2202
:0A46D50043BA8053F57F53BA7F22E9
:103D3D0043BA807401A807088002C333D8FC42F54A
:103D4D00EF75F009A42463F582E43404F58374015E
:083D5D00F043F58053BA7F2208
:103EA00043BA807401A807088002C333D8FCF452D7
:103EB000F5EF75F009A42463F582E43404F583E496
:053EC000F053BA7F225F
:1045A100EF75F009A42463F582E43404F583E02473
:0245B100FF22E7
:1044F900D3E49F74809E400D90FFF1EFF0EE90FFA2
:08450900F0F07F00227F012287
:10265800EF14604A146075147003022702147003A3
:1026680002272F14700302275C2405600302278CBD
:1026780090FF01EDF0EC90FF00F09002A6A3A3A359
:10268800E090FF03F09002A6E0FCA3E0FDA3E0FECB
:10269800A3E0FF78081214DC90FF0202278790FF5E
:1026A80011EDF0EC90FF10F09002A6A3A3A3E09028
:1026B800FF13F09002A6E0FCA3E0FDA3E0FEA3E078
:1026C800FF78081214DC90FF1202278790FF21ED93
:1026D800F0EC90FF20F09002A6A3A3A3E090FF23C4
:1026E800F09002A6E0FCA3E0FDA3E0FEA3E0FF78E3
:1026F800081214DC90FF2202278790FF31EDF0ECDE
:1027080090FF30F09002A6A3A3A3E090FF33F090CF
:1027180002A6E0FCA3E0FDA3E0FEA3E0FF78081218
:1027280014DC90FF32805890FF41EDF0EC90FF40B0
:10273800F09002A6A3A3A3E090FF43F09002A6E0C6
:10274800FCA3E0FDA3E0FEA3E0FF78081214DC90F0
:10275800FF42802B90FF51EDF0EC90FF50F090027B
:10276800A6A3A3A3E090FF53F09002A6E0FCA3E089
:10277800FDA3E0FEA3E0FF78081214DC90FF52EFFF
:07278800F07F00227F012217
:10321F009000011212C3B4010553CE7F800343CE39
:10322F00801212AAB4010543CE40800353CEBF9043
:10323F0000021212C3B4010543CE20800353CEDF28
:10324F009000031212C3700553CEEF800343CE10CC
:10325F009000041212C3B4010543CE08800353CE6D
:10326F00F79000051212C3700543CE04800353CEAE
:10327F00FB9000061212C3B4010543AF0280035343
:10328F00AFFD9000071212C35403FFE5CE54FC4F5D
:10329F00F5CE9000081212C3FFE5A254F34FF5A22A
:0132AF0022FC
:0B46AC00EF700453CEEF2243CE10222B
:104540009005BEE02442F8A607E004F0C3942040A2
:0445500002E4F0226F
:10410000EDD394205018E4FEEEC39D50111212AA74
:0E411000FF124540740129F9E43AFA0E80EAE4
:01411E00227E
:103E2C009005BEE0FF9005BCE06F601A7F01124662
:103E3C00AC9005BCE02442F8E6FFE004F0C394200B
:063E4C004002E4F08FCFFC
:013E5200224D
:103F0F009005BDE0FF9005BBE0FEB507037F0022E3
:103F1F0074222EF8E6FF9005BBE004F0C394204016
:033F2F0002E4F0B9
:013F3200226C
:1042F300AD07EDD3942040037F0022EDD39401401A
:0A43030006123F0F1D80F4123F0F59
:01430D00228D
:03004B000238D8A0
:1038D800C0E0C083C082C0D075D000C000C006C0A0
:1038E800079005BEE0FF9005BCE0FE6F6025A3E0F1
:1038F8002422F8A6CFE004F0C394204002E4F07438
:10390800422EF8E6F5CF9005BCE004F0C3942040C1
:1039180002E4F075CDC0D007D006D000D0D0D08258
:05392800D083D0E03265
:102D930054696D65723120696E697469616C697A11
:102DA300696E672073756363656564200A005469FF
:102DB3006D65723120696E697469616C697A696ED7
:102DC30067206661696C6564200A0054696D6572E9
:102DD3003320696E697469616C697A696E672073FF
:102DE300756363656564200A0054696D65723320F9
:102DF300696E697469616C697A696E672066616975
:102E03006C6564200A0054696D65723420696E69CB
:102E13007469616C697A696E67207375636365654C
:102E230064200A0054696D65723420696E6974699F
:102E3300616C697A696E67206661696C6564200AF2
:012E4300008E
:1035D9004104E7024104E8024204E900004204EB25
:1035E90000004204E300004204E100004104F50048
:1035F9004104E0004104E6004104E5004404ED0013
:0A3609000000004404F1000000007E
:102F9C00E490052DF090051DF0A3F0A304F0E4A33C
:102FAC00F0A3F0900524F0900522748AF0A374D05D
:102FBC00F0E4900525F0A3F0A304F0E4A3F0A3F053
:102FCC0090052C04F090052A74FEF0A374D4F07FC5
:102FDC0001121BFB90052DEFF070087BFF7A2D7909
:102FEC0093800A90052DE07BFF7A2D79B11245294B
:102FFC007F03121BFB90052DEFF070087BFF7A2DE1
:10300C0079CE800A90052DE07BFF7A2D79EC124564
:10301C00297B017A0579257F04121C0190052DEF7F
:10302C00F070087BFF7A2E7909800A90052DE07BE1
:08303C00FF7A2E7927124529C5
:013044002269
:103EC5009004E7E0601EA3E0601AEF24FE600B0497
:103ED50070129004EDECF0A3EDF0AF059004F1EC59
:053EE500F0A3EFF02244
:10435D00EF24FE600804700E9004ED80039004F1CC
:0A436D00E0FEA3E0FF22E4FEFF22C1
:10426700EF24FE600C0470139004EFECF0A3EDF064
:0C42770022AF059004F3ECF0A3EFF0225E
:10437700EF24FE600804700E9004EF80039004F3AE
:0A438700E0FEA3E0FF22E4FEFF22A7
:1044AE00EF24FE600A047010C28E9004E78006535B
:0944BE00D1F79004E87402F02229
:1041D600EF24FE600D0470149004E7E07002D32211
:0D41E600C3229004E8E07003D38001C322DF
:10411F00EF24FE600E0470169004E7E0B40102D3A2
:0F412F0022C3229004E8E0B40103D38001C3222D
:10413E00EF24FE600E0470169004E7E0B40202D382
:0F414E0022C3229004E8E0B40203D38001C3220D
:1040C000AE071241D64018EF24FE600B047010D2E8
:1040D0008EE49004E7F02243D108E49004E8F02253
:0E466A00AE0712411F50051240C0D322C322DA
:0946E9009004E3E0FEA3E0FF22CF
:0946F2009004E1E0FEA3E0FF22C8
:064701009004F5E0FF2228
:064707009004E0E0FF2237
:06470D009004E6E0FF222B
:064713009004E5E0FF2226
:03001B00023B0E97
:103B0E00C0E0C0F0C083C082C0D075D000C000C07D
:103B1E00069004E9E475F00112138BFED39004EEC7
:103B2E00E095F09004EDE09E500EC28E9004E9E414
:103B3E00F0A3F09004E704F0D006D000D0D0D082ED
:073B4E00D083D0F0D0E0327B
:03009B00023AC660
:103AC600C0E0C0F0C083C082C0D075D000C000C0C6
:103AD600069004EBE475F00112138BFED39004F20A
:103AE600E095F09004F1E09E500F53D1F79004EB6F
:103AF600E4F0A3F09004E804F0D006D000D0D0D0D3
:083B060082D083D0F0D0E03240
:0300A30002333CE9
:10333C00C0E0C0F0C083C082C0D075D000C000C057
:10334C0006C2AF9004E3E475F00A12138BFEC3E5DA
:10335C00F094E8EE940340519004E3E4F0A3F09071
:10336C0004E175F00112138BFEC3E5F094E8EE94C2
:10337C000340369004E1E4F0A3F09004F5E004F08F
:10338C00943C4025E4F09004E0E004F0943C4019B7
:10339C00E4F09004E6E004F09418400DE4F090049E
:1033AC00E5E004F0B4FF02E4F0D2AFD006D000D0D8
:0A33BC00D0D082D083D0F0D0E032F0
:061BFB007B017A05791D53
:101C0100AD07EDD3940440037F0122ED70731212EE
:101C1100AAFED3940340037F0222C28CC2A9C2B997
:101C21005389F0538E7F538FFE9000021212C3B47A
:101C31000102D2A99000011212C3B40102D2B9EE7D
:101C410042899000031212C3FF7003438E80EFB4E8
:101C510002034389049000041212C3B40103438FA9
:101C6100019000051213B7E5F0F58C9000051213F1
:101C7100B7F58A9000071212C3B40102D28C7F001B
:101C810022ED640170761212AAFEC3940340037F11
:101C91000222C28EC2ABC2BB53890F538EBF538F78
:101CA100FD9000021212C3B40102D2AB90000112E6
:101CB10012C3B40102D2BBEEC454F04289900003B6
:101CC1001212C3FF7003438E40EFB40203438940F5
:101CD1009000041212C3B40103438F029000051255
:101CE10013B7E5F0F58D9000051213B7F58B900051
:101CF100071212C3B40102D28E7F0022ED6402707A
:101D0100639000031212C3FED3940240037F0222A8
:101D1100538EE353AFFB538FFB9000021212C3B4F7
:101D2100010343AF04EE7003438E049000031212CB
:101D3100C3B40203438E089000041212C3B401031A
:101D4100438F049000051213B7E5F0F5D690000516
:101D51001213B7F5D79000071212C3B40103438ED3
:101D6100107F0022ED640370609000031212C3FE25
:101D7100D3940240037F022253D1F053AFDF90008E
:101D8100021212C3B4010343AF20EE700343D10228
:101D91009000031212C3B4020343D106900004124F
:101DA10012C3B4010343D1019000051213B7E5F04A
:101DB100F5D49000051213B7F5D59000071212C3A0
:101DC100B4010343D1087F0022ED6404705C9000EC
:101DD100031212C3FED3940240037F022253D10F98
:101DE10053AFBF9000021212C3B4010343AF40EEE0
:101DF100700343D1209000031212C3B4020343D1F4
:101E0100609000041212C3B4010343D11090000585
:101E11001213B7FDACF0ECF5D28DD390000712127E
:0D1E2100C3B4010343D1807F00227F022261
:100800009002ACEBF0A3EAF0A3E9F09002ABEFF0BA
:1008100064016003020A1290000004F0E4A3F0A354
:10082000F0A3F0A3F0A3F0A3F09002AFF09002AF1A
:10083000E0FFC39480501474382FF582E43401F53E
:1008400083E4F09002AFE004F080E2E49002AFF0C5
:100850009002AFE0FFC394805014741C2FF582E423
:100860003400F583E4F09002AFE004F080E29002FF
:10087000ACE0FBA3E0FAA3E0F91212AAD394C040C3
:10088000037F022290000A1212C3B40104D2BC807A
:1008900002C2BC1212AAFFE598543F4FF598EF64CC
:1008A000C06008EF6440600302098C9000021214DB
:1008B000EF7FE07E707D727C0012142B9002B012EC
:1008C000151FE4FFFE7D01FC9002B0E0F8A3E0F903
:1008D000A3E0FAA3E0FBC31214CB40037F022290F3
:1008E00002B0E0F8A3E0F9A3E0FAA3E0FBC3E49BC5
:1008F000FFE49AFE740199FDE498FC9002B0121591
:100900001F9002ACE0FBA3E0FAA3E0F99000011213
:1009100012C3FB64017038C28E538EFE5389BF53DD
:1009200089CF438E409002B0E0FCA3E0FDA3E0FE3F
:10093000A3E0FF78081214DC8F8D9002B0A3A3A36C
:10094000E0F58BC2AB5389BF538FFDD28E8076EB1F
:1009500064027035538EEF438E01538EF7438E043D
:100960009002B0E0FCA3E0FDA3E0FEA3E0FF780866
:100970001214DC8FD69002B0A3A3A3E0F5D753AF37
:10098000FB538EF7438E10803C7F02229002ACE036
:10099000FBA3E0FAA3E0F91212AAFF70139000087B
:1009A0001212C3B40105438E20801A538EDF8015C6
:1009B000EFB480119000081212C3B4010543878080
:1009C000800353877F9002ACE0FBA3E0FAA3E0F939
:1009D0009000091212C3B40104D2AC8002C2AC90E0
:1009E00000071212C3B40104D29C8002C29C900082
:1009F0000B1212C354C0FFE5A2543F4FF5A2900062
:100A00000C1212C3B4010543971080035397EF7F74
:100A100000229002ABE064026003020B74900007B6
:100A20007402F0E4A3F0A3F0A3F0A3F0A3F0A3F00A
:100A30009002AFF09002AFE0FFC39480501474D4E2
:100A40002FF582E43401F583E4F09002AFE004F086
:100A500080E2E49002AFF09002AFE0FFC3948050D8
:100A600014749C2FF582E43400F583E4F09002AF17
:100A7000E004F080E29002ACE0FBA3E0FAA3E0F92E
:100A80001212AAFF64C06008EF64406003020B34D6
:100A900090000A1212C3B4010543B501800353B597
:100AA000FE1212AAB4C005439A808003539A7F9025
:100AB00000021214EF7FE07E707D727C0012142B16
:100AC0009002B012151FE4FFFE7D01FC9002B0E021
:100AD000F8A3E0F9A3E0FAA3E0FBC31214CB4003B0
:100AE0007F02229002B0E0F8A3E0F9A3E0FAA3E0CD
:100AF000FBC3E49BFFE49AFE740199FDE498FC902B
:100B000002B012151F538EEF538EF7438E049002DE
:100B1000B0E0FCA3E0FDA3E0FEA3E0FF7808121420
:100B2000DC8FD69002B0A3A3A3E0F5D753AFFB436D
:100B30008E1080037F02229002ACE0FBA3E0FAA3B8
:100B4000E0F99000091212C3B4010543AF0180031C
:100B500053AFFE9000071212C3B40105439A1080F0
:100B600003539AEF90000B1212C35401FFE5BA54DD
:100B7000FE4FF5BA9002ABE064036003020D2790CC
:100B8000000E7402F0E4A3F0A3F0A3F0A3F0A3F02E
:100B9000A3F09002AFF09002AFE0FFC3941C50149A
:100BA00074542FF582E43402F583E4F09002AFE050
:100BB00004F080E2E49002AFF09002AFE0FFC39453
:100BC0001C5014741C2FF582E43401F583E4F0907A
:100BD00002AFE004F080E29002ACE0FBA3E0FAA3F5
:100BE000E0F91212AAFF64C06008EF6440600302DB
:100BF0000CE753ACDFEFB4C00543AC80800353ACCB
:100C00007F9002ACE0FBA3E0FAA3E0F990000212AF
:100C100014EF7FE07E707D727C0012142B9002B086
:100C200012151FE4FFFE7D01FC9002B0E0F8A3E086
:100C3000F9A3E0FAA3E0FBC31214CB40037F022226
:100C40009002B0E0F8A3E0F9A3E0FAA3E0FBC3E46C
:100C50009BFFE49AFE740199FDE498FC9002B012A7
:100C6000151F9002ACE0FBA3E0FAA3E0F9900001AD
:100C70001212C3FB6402703253ACBF538EEF538E1B
:100C8000F7438E049002B0E0FCA3E0FDA3E0FEA3D6
:100C9000E0FF78081214DC8FD69002B0A3A3A3E083
:100CA000F5D753AFFB438E108040EB6401703543A2
:100CB000AC4053D1F053AFDF43D10253D1FB53D1FA
:100CC000FE9002B0E0FCA3E0FDA3E0FEA3E0FF780D
:100CD000081214DC8FD49002B0A3A3A3E0F5D5438F
:100CE000D10880067F02227F02229002ACE0FBA3A3
:100CF000E0FAA3E0F99000091212C3B4010543AF72
:100D000008800353AFF79000071212C3B4010543E4
:100D1000AC10800353ACEF90000B1212C35402FFCF
:100D2000E5BA54FD020ED79002ABE0640460030202
:100D30000EDD9000157402F0E4A3F0A3F0A3F0A37D
:100D4000F0A3F0A3F09002AFF09002AFE0FFC394E5
:100D50001C501474702FF582E43402F583E4F09093
:100D600002AFE004F080E2E49002AFF09002AFE066
:100D7000FFC3941C501474B82FF582E43401F5833A
:100D8000E4F09002AFE004F080E29002ACE0FBA35C
:100D9000E0FAA3E0F91212AAFF64C06008EF644011
:100DA0006003020E9A5384DFEFB4C0054384808051
:100DB0000353847F9002ACE0FBA3E0FAA3E0F99038
:100DC00000021214EF7FE07E707D727C0012142B03
:100DD0009002B012151FE4FFFE7D01FC9002B0E00E
:100DE000F8A3E0F9A3E0FAA3E0FBC31214CB40039D
:100DF0007F02229002B0E0F8A3E0F9A3E0FAA3E0BA
:100E0000FBC3E49BFFE49AFE740199FDE498FC9017
:100E100002B012151F9002ACE0FBA3E0FAA3E0F9C8
:100E20009000011212C3FB640270325384BF538ED0
:100E3000EF538EF7438E049002B0E0FCA3E0FDA3D5
:100E4000E0FEA3E0FF78081214DC8FD69002B0A376
:100E5000A3A3E0F5D753AFFB438E108040EB6402B1
:100E6000703543844053D10F53AFBF43D12053D18A
:100E7000BF53D1EF9002B0E0FCA3E0FDA3E0FEA3DE
:100E8000E0FF78081214DC8FD29002B0A3A3A3E095
:100E9000F5D343D18080067F02227F02229002ACEC
:100EA000E0FBA3E0FAA3E0F99000091212C3B40139
:100EB0000543AF10800353AFEF9000071212C3B485
:100EC000010543841080035384EF90000B1212C37A
:0F0ED0005404FFE5BA54FB4FF5BA7F00227F03AD
:010EDF0022F0
:103E5300900002E02438F582E43401F583EFF0901A
:103E63000002E004F0C394804002E4F0900003E019
:073E7300700404F0D2992253
:103D6500900009E024D4F582E43401F583EFF09066
:103D75000009E004F0C394804002E4F090000AE0FA
:083D8500700504F0439A0222CC
:103D8D00900010E02454F582E43402F583EFF090B6
:103D9D000010E004F0C3941C4002E4F0900011E028
:083DAD00700504F043AC022292
:103DB500900017E02470F582E43402F583EFF0906B
:103DC5000017E004F0C3941C4002E4F0900018E0F2
:083DD500700504F04384022292
:10452900C2AF1212AAFF600C123E53740129F9E4BA
:074539003AFA80EED2AF2236
:104568001212AAFF600C123D65740129F9E43AFAA7
:0345780080EE22B0
:10457B001212AAFF600C123D8D740129F9E43AFA6C
:03458B0080EE229D
:10458E001212AAFF600C123DB5740129F9E43AFA31
:03459E0080EE228A
:0300230002365B47
:10365B00C0E0C083C082C0D075D000C006C00730A8
:10366B00982DC298900006E07025900004E0C3945A
:10367B00804002E4F0900004E0FF04F0741C2FF58E
:10368B0082E43400F583E599F09000057405F03081
:10369B009930C299900002E0FF900001E0FE6F604C
:1036AB001C74382EF582E43401F583E0F599900013
:1036BB0001E004F0C394804009E4F080059000031E
:0F36CB00E4F0D007D006D0D0D082D083D0E03248
:030043000233C6BF
:1033C600C0E0C083C082C0D075D000C006C007E58B
:1033D6009A30E02E539AFE90000DE0702590000B77
:1033E600E0C394804002E4F090000BE0FF04F07428
:1033F6009C2FF582E43400F583E59BF090000C7475
:1034060005F0E59A30E131539AFD900009E0FF900E
:103416000008E0FE6F601C74D42EF582E43401F5DA
:1034260083E0F59B900008E004F0C394804009E433
:10343600F0800590000AE4F0D007D006D0D0D08204
:05344600D083D0E0324C
:03008B0002344BF1
:10344B00C0E0C083C082C0D075D000C006C007E505
:10345B00AC30E02E53ACFE900014E07025900012BF
:10346B00E0C3941C4002E4F0900012E0FF04F074FF
:10347B001C2FF582E43401F583E5ADF09000137455
:10348B0005F0E5AC30E13153ACFD900010E0FF905E
:10349B00000FE0FE6F601C74542EF582E43402F5CD
:1034AB0083E0F5AD90000FE004F0C3941C4009E4F9
:1034BB00F08005900011E4F0D007D006D0D0D08278
:0534CB00D083D0E032C7
:030093000234D064
:1034D000C0E0C083C082C0D075D000C006C007E580
:1034E0008430E02E5384FE90001BE070259000197C
:1034F000E0C3941C4002E4F0900019E0FF04F07473
:10350000B82FF582E43401F583E585F090001A7454
:1035100005F0E58430E1315384FD900017E0FF9021
:103520000016E0FE6F601C74542EF582E43402F540
:1035300083E0F585900016E004F0C3941C4009E494
:10354000F08005900018E4F0D007D006D0D0D082EB
:05355000D083D0E03241
:08361300C100C101C102C103A5
:10415D0090029F7478F0E490029EF07B017A0279D0
:0E416D009E7F02122008D2A3D2A4D2A5D2A611
:01417B002221
:0A46DF00EF4E7005EE4F24FFB322EA
:1041F300EF24F0600F24F0600E24E0600D2438708B
:0D4203000BA20022A20122A20222A203228D
:10388100A2A3E4FE33FF1246DF500EA2A3E433FFEE
:103891001246DF5006D2008002C200A2A4E4FE3329
:1038A100FF1246DF5007200106D2018002C201A2A9
:1038B100A5E4FE33FF1246DF5007200206D2028044
:1038C10002C202A2A6E4FE33FF1246DF5006200325
:0738D10005D20322C203220D
:0844C7009005BFECF0A3EDF03D
:1044CF00E4A3F0A3EFF07B017A0579C1E4FF0220AA
:0144DF0008D4
:0545E9009005DBEFF07E
:0B45EE00E4FF00000FEFB408F900002C
:0145F900229F
:0F464D0074D52FF582E43405F5837401F0D32280
:0E46780074D52FF582E43405F583E4F0D322E7
:01473B00225B
:104283009005DCEFF0D2C87F0112462D9005DCE0EB
:0C429300F5C0D2CA7F0112462DC2CA221B
:103CB7009005D8EBF0A3EAF0A3E9F09005D8E0FB74
:103CC700A3E0FAA3E0F91212AAFFD39400400F125F
:0F3CD70042839005D9E475F00112138B80DD2232
:1042100012419AD2CCC2CAC2C97F3812429F7F0CC7
:0D42200012429F7F0612429F7F0102429FC3
:10429F0090029EEFF0C2C87F0112462DD2CA900243
:0C42AF009EE0F5C07F0112462DC2CA221D
:10419A0053C9EF43CA1053C9FE53CAFE53C9FD534C
:0E41AA00CAFD53C9FB53CAFBE4F5B3F5B422BA
:02361B00C10BE1
:103DDD0090029F7405F0E490029EF07B017A0279C7
:103DED009E7F0512200812471F7FC812462D1247CD
:073DFD00247FC812462DD3FC
:013E0400229B
:05471F00C2CDD20B2207
:05472400D2CDC20B2202
:103F330090028CEFF090028CE0FF14F0EF6012120D
:103F4300471F7FC812462D1247247FC812462D8073
:023F5300E42266
:03473000A20B22B7
:064719009005DDEFF02227
:10318D0090058EEFF07F337E337D737C3FA3E0F8A7
:10319D00A3E0F9A3E0FAA3E0FB12117E600C400A54
:1031AD0090058F12152B3F7333337FCD7ECC7D4C25
:1031BD007C3D90058FE0F8A3E0F9A3E0FAA3E0FBD6
:1031CD0012117E500A90058F12152B3D4CCCCD90CF
:1031DD00058EE02404FFC007A3E0FCA3E0FDA3E0FF
:1031ED00FEA3E0FF90029F12151FD007122C08902E
:1031FD00058FE0FCA3E0FDA3E0FEA3E0FF12122982
:10320D0090058EE025E024C4F582E43405F583EFC6
:02321D00F0229D
:1041B8009005DEEFF02404FF123D3D9005DEE0257A
:0E41C800E024C3F582E43405F5837401F0228F
:10422D009005DFEFF02404FF123EA09005DFE0259E
:0D423D00E024C3F582E43405F583E4F022AB
:10463D00EF25E024C3F582E43405F583E024FF2261
:10375400E490050BF0A37408F07B017A05790B7FE4
:103764000212200890050C7404F07B017A05790B91
:103774007F02122008D2A2D2A343BA80E490050D9E
:10378400F0A3F0A3F0A304F0E4A3F0A3F0A3F0A348
:10379400F0A3F0A3F0A3F0A3F0A3F0A3F0A3F0A38D
:1037A400F07B017A05790D7F021215927B017A056F
:0A37B400790D7F0312159253BA7FBE
:0137BE0022E8
:0521CC009004BFEFF0DC
:1021D100E49004CEF0A37480F07B017A0479CE7F81
:1021E10003122008D2B743BA80E49004D0F0A3F0E0
:1021F100A3F0A304F0E4A3F0A3F0A3F0A3F0A3F0F1
:10220100A3F0A3F0A3F0A3F0A3F0A3F0A3F07B014C
:102211007A0479D0FF12159253BA7F9004C0E0FC82
:10222100A3E0FDA3E0FEA3E0FF9004BFE0FB75F097
:102231001FA42407F582E43404F58312151F9004CA
:10224100C4E0FCA3E0FDA3E0FEA3E0FFEB75F01FFB
:10225100A4240BF582E43404F58312151F9004C8FD
:10226100E0FCA3E0FDA3E0FEA3E0FFEB75F01FA4FB
:102271002417F582E43404F58312151F9004CCE091
:10228100FEA3E0FFEB75F01FA42411F582E43404F2
:10229100F583EEF0A3EFF0EB75F01FA42407F582B0
:1022A100E43404F583E0F8A3E0F9A3E0FAA3E0FB4A
:1022B1009004BFE075F01FA4240BF582E43404F50B
:1022C10083E0FCA3E0FDA3E0FEA3E0FF120EE31216
:1022D10012297C037DE81213249004BFE0FB75F002
:1022E1001FA42411F582E43404F583E0FCA3E0FD8E
:1022F100121336EB75F01FA4240FF582E43404F5B4
:1023010083EEF0A3EFF09004BFE075F01FA4241159
:10231100F582E43404F583E0FCA3E0FDE41211F05E
:10232100A804A905AA06AB079004BFE075F01FA495
:102331002417F582E43404F583E0FCA3E0FDA3E077
:10234100FEA3E0FF1210E19004BFE0FB75F01FA4B3
:10235100241BF582E43404F58312151FEB75F01F7D
:10236100A42413F582E43404F58312152B00000034
:0B23710000E4FF123EA07F32023A7B26
:052B2A00900563EFF0CF
:102B2F00A3E0FCA3E0FDA3E0FEA3E0FF900563E0BC
:102B3F00FB75F01FA42402F582E43404F58312150B
:102B4F001FEB75F01FA4241BF582E43404F583E01A
:102B5F00F8A3E0F9A3E0FAA3E0FB900564E0FCA37F
:102B6F00E0FDA3E0FEA3E0FF1210E1121229900591
:102B7F0063E075F01FA4240FF582E43404F583E0BD
:102B8F00FCA3E0FD121324AC06AD07E41211F0E430
:102B9F00FBFAF9783F120EE7E4FBFA79A0784112BD
:102BAF0010E190056812151FE4FF123EA090056812
:102BBF00E0FCA3E0FDA3E0FEA3E0FF90029F12154F
:102BCF001FE4FF122C08E4FF123D3D900563E0FB6C
:102BDF0075F01FA42402F582E43404F583E0FCA30E
:102BEF00E0FDA3E0FEA3E0FFEB75F01FA42413F5B7
:092BFF0082E43404F58302151F81
:10439100EF75F01FA42413F582E43404F583E0FCE7
:0A43A100A3E0FDA3E0FEA3E0FF226D
:103F55009005E0EFF0E4FF123D3D9005E0E075F0DF
:103F65001FA4241FF582E43404F583E4F0A304F0D0
:023F7500D32255
:103F77009005E1EFF0E4FF123EA09005E1E075F057
:103F87001FA4241FF582E43404F583E4F0A3F0D3DF
:013F97002207
:1045FA008D828C83EBFD7C00AA83AB8212392DD38A
:01460A00228D
:103C86009005C7EFF0A3ECF0A3EDF0A3EBF09005E1
:103C9600C874FFF5F01213A145F060139005C7E054
:103CA600FF9005CAE0FB7D687C011245FA80DFD3F0
:013CB60022EB
:1045B300EF75F006A4244DF582E43405F583E02479
:0245C300FF22D5
:1042BB009005E2EFF01240E09005E2E075F006A405
:0C42CB00244DF582E43405F583E4F02274
:10424A009005E3EFF0123F989005E3E075F006A4BD
:0D425A00244DF582E43405F5837401F02253
:034733000237BF8B
:1042D70090029EEFF0A3EDF0A37401F0E4A3F0A326
:0C42E700F0A3F07B017A02799E0239827C
:1036DA00E490037FF0300863F0E4FF12382390038C
:1036EA007FE025E0246BF582E43403F583EEF0A352
:1036FA00EFF090037FE004F0E0C3940A40DB7B0123
:10370A007A03796B9003847404F0A3E4F0A3F0A322
:10371A00F07D0A12278FAC06AD07E41211F090056E
:10372A006C12151F90056CE0FCA3E0FDA3E0FEA35C
:10373A00E0FFA312151F90056C8003900570E0FC52
:09374A00A3E0FDA3E0FEA3E0FFF3
:013753002253
:05361D0042055700000A
:10392D00900593EFF0900596EAF0A3EBF0900594D7
:10393D00ECF0A3EDF0FF123A7B900594E0FEA3E0CE
:10394D00FF900593E0FD75F005A4245BF582E4344A
:10395D0005F583EEF0A3EFF0900596E0FEA3E0FFF2
:10396D00ED75F005A42459F582E43405F583EEF0E8
:05397D00A3EFF0D322CE
:103F98009005E4EFF02405FF123D3D9005E4E0753F
:103FA800F005A4245DF582E43405F5837401F0D3AB
:013FB80022E6
:1040E0009005E5EFF02405FF123EA09005E5E07590
:1040F000F005A4245DF582E43405F583E4F0D322D1
:1045C500EF75F005A4245DF582E43405F583E02458
:0245D500FF22C3
:1037BF0090029F12152B3F0000007F05122C0890DE
:1037CF00029F12152B3F0000007F04122C0843BAF2
:1037DF0080E490052EF0A3F0A3F0A304F0E4A3F08F
:1037EF00A3F0A3F0A3F0A3F0A3F0A3F0A3F0A3041E
:1037FF00F0E4A3F0A304F0E4A3F07B017A05792EA3
:10380F007F041215927B017A05792E7F051215928E
:03381F0053BA7F1A
:013822002283
:0300B300023A28E6
:103A2800C0E0C0F0C083C082C0D075D000C000C064
:103A380006C007AFF6E4B50729E4B480259005571A
:103A480075F0011213A1FED390055AE095F0900588
:103A580059E09E500DE4F0A3F043BA8053F57F532C
:103A6800BA7FD007D006D000D0D0D082D083D0F093
:033A7800D0E03269
:1029F900AB07EB75F039A42498F582E43403F58329
:102A090012152B00000000EB75F039A4249CF58207
:102A1900E43403F58312152B00000000EB75F0393F
:102A2900A424B0F582E43403F58312152B000000C9
:102A390000EB75F039A424ACF582E43403F5831274
:102A4900152B0000000090053FE0FCA3E0FDA3E08A
:102A5900FEA3E0FFEB75F039A424A0F582E434036A
:102A6900F58312151F900543E0FCA3E0FDA3E0FEEA
:102A7900A3E0FFEB75F039A424A4F582E43403F54F
:102A89008312151F900547E0FCA3E0FDA3E0FEA318
:102A9900E0FFEB75F039A424A8F582E43403F5834B
:102AA90012151FEB75F039A424A0F582E43403F55F
:102AB90083E0FCA3E0FDA3E0FEA3E0FFEB75F039A2
:102AC900A424B8F582E43403F58312151FEB75F0DD
:102AD90039A424A4F582E43403F583E0FCA3E0FDE2
:102AE900A3E0FEA3E0FFEB75F039A424B4F582E47A
:102AF9003403F58312151FEB75F039A424A8F58268
:102B0900E43403F583E0FCA3E0FDA3E0FEA3E0FFCA
:102B1900EB75F039A424BCF582E43403F58302157E
:012B29001F8C
:1045D700EF75F039A424C8F582E43403F583740138
:0245E700F022C0
:10460B00EF75F039A424C8F582E43403F583E4F0A4
:01461B00227C
:101E2E009005E6EFF075F039A424C8F582E434038A
:101E3E00F583E070030220079005E6E0FF75F039A8
:101E4E00A42494F582E43403F583E0F8A3E0F9A327
:101E5E00E0FAA3E0FBEF75F039A42490F582E434A8
:101E6E0003F583E0FCA3E0FDA3E0FEA3E0FF120E6A
:101E7E00E39005E6E0FB75F039A42498F582E4348E
:101E8E0003F58312151FEB75F039A424ACF582E42B
:101E9E003403F583C083C082E0FCA3E0FDA3E0FE23
:101EAE00A3E0FF9005E6E075F039A42498F582E4EE
:101EBE003403F583E0F8A3E0F9A3E0FAA3E0FB1204
:101ECE000EE7D082D08312151F9005E6E0FF75F065
:101EDE0039A424ACF582E43403F583E0F8A3E0F9E9
:101EEE00A3E0FAA3E0FBEF75F039A424A4F582E495
:101EFE003403F583E0FCA3E0FDA3E0FEA3E0FF12B4
:101F0E000FD8C004C005C006C0079005E6E0FF75F7
:101F1E00F039A42498F582E43403F583E0F8A3E0C5
:101F2E00F9A3E0FAA3E0FBEF75F039A424A0F58243
:101F3E00E43403F583E0FCA3E0FDA3E0FEA3E0FFA1
:101F4E00120FD8D003D002D001D000120EE7C00479
:101F5E00C005C006C0079005E6E0FF75F039A42461
:101F6E009CF582E43403F583E0F8A3E0F9A3E0FAEC
:101F7E00A3E0FBEF75F039A42498F582E43403F561
:101F8E0083E0FCA3E0FDA3E0FEA3E0FF120EE390CE
:101F9E0005E6E075F039A424A8F582E43403F58350
:101FAE00E0F8A3E0F9A3E0FAA3E0FB120FD8D00308
:101FBE00D002D001D000120EE79005E6E0FB75F0DE
:101FCE0039A424B0F582E43403F58312151FEB75A2
:101FDE00F039A42498F582E43403F583E0FCA3E001
:101FEE00FDA3E0FEA3E0FFEB75F039A4249CF5827F
:0A1FFE00E43403F58312151FD3220B
:103FB900AB07900599E0FCA3E0FDA3E0FEA3E0FFB9
:103FC900EB75F039A424C4F582E43403F5830215B2
:013FD9001FC8
:103FDA00AB0790059EE0FCA3E0FDA3E0FEA3E0FF93
:103FEA00EB75F039A424C0F582E43403F583021595
:013FFA001FA7
:103FFB00AB079005A3E0FCA3E0FDA3E0FEA3E0FF6D
:10400B00EB75F039A42494F582E43403F58302159F
:01401B001F85
:10401C00AB079005A8E0FCA3E0FDA3E0FEA3E0FF46
:10402C00EB75F039A424A4F582E43403F58302156E
:01403C001F64
:10403D00AB079005ADE0FCA3E0FDA3E0FEA3E0FF20
:10404D00EB75F039A424A0F582E43403F583021551
:01405D001F43
:10405E00AB079005B2E0FCA3E0FDA3E0FEA3E0FFFA
:10406E00EB75F039A424A8F582E43403F583021528
:01407E001F22
:10407F00AB079005B7E0FCA3E0FDA3E0FEA3E0FFD4
:10408F00EB75F039A42490F582E43403F58302151F
:01409F001F01
:1043AB00EF75F039A42490F582E43403F583E0FC37
:0A43BB00A3E0FDA3E0FEA3E0FF2253
:1043C500EF75F039A42498F582E43403F583E0FC15
:0A43D500A3E0FDA3E0FEA3E0FF2239
:1043DF00EF75F039A4249CF582E43403F583E0FCF7
:0A43EF00A3E0FDA3E0FEA3E0FF221F
:1043F900EF75F039A424A0F582E43403F583E0FCD9
:0A440900A3E0FDA3E0FEA3E0FF2204
:10441300EF75F039A424A4F582E43403F583E0FCBA
:0A442300A3E0FDA3E0FEA3E0FF22EA
:10442D00EF75F039A424A8F582E43403F583E0FC9C
:0A443D00A3E0FDA3E0FEA3E0FF22D0
:10444700EF75F039A424B0F582E43403F583E0FC7A
:0A445700A3E0FDA3E0FEA3E0FF22B6
:10446100EF75F039A424ACF582E43403F583E0FC64
:0A447100A3E0FDA3E0FEA3E0FF229C
:0A3622004205CB00004205CD000078
:103D12001235557F04123F337F01121A8A7F031234
:103D22001A8A7F05121A8A7F07121A8A7F08121AC4
:0B3D32008A7F09121A8AE4FF021B13AB
:10461C00E49002B4F0E4FBFA7D287F80121B9C80AE
:01462C00F499
:01473C00225A
:10451100900341740AF0900341E004F0E4FBFA7D5A
:08452100C87F80121B9C80EE94
:1044E00090034212152B00000000123881E4FBFA01
:0944F0007D027F80121B9C80F10B
:10430E007F081241F3500512471F8003124724E421
:0B431E00FBFA7D057F80121B9C80E5F0
:103EEA00D2081236DAE4FBFA7948784212117E5087
:103EFA000512471F8003124724E4FBFA7D017F80E5
:053F0A00121B9C80DB8E
:10447B00D2081236DA90036F7401F0123C17E4FB8A
:0A448B00FA7D287F80121B9C80E65A
:05278F00900383EDF052
:10279400E490038AF0A3F0900386E0FFA3E09003A3
:1027A4008CCFF0A3EFF0900384E0FFA3E090038EBE
:1027B400CFF0A3EFF0E4900388F0A3F0900383E05C
:1027C400FF900388E0FCA3E0FDC39F7480F8EC64F1
:1027D40080984003022889ED25E0FFEC338F82F5D1
:1027E400831213B7FFC390038DE09F90038CE09591
:1027F400F0501D900389E025E0FF900388E0338FBB
:1028040082F5831213B7FF90038CE5F0F0A3EFF089
:10281400900389E025E0FF900388E0338F82F583FD
:102824001213B7FFD390038FE09F90038EE095F0CF
:10283400401D900389E025E0FF900388E0338F82F8
:10284400F5831213B7FF90038EE5F0F0A3EFF09039
:102854000389E025E0FF900388E0338F82F583123B
:1028640013B7FFAEF090038BE02FF090038AE03EA5
:10287400F0900389E004F060030227C0900388E02D
:1028840004F00227C090038EE0FEA3E0FF90038DC6
:10289400E02FFF90038CE03EFEC390038BE09FFF8C
:1028A40090038AE09EFEF0A3EFF0900383E024FE01
:1028B400FDE434FFFC12133690038AEEF0A3EFF02C
:0128C40022F1
:10362C00602A04950000000000000000000000006B
:10363C00000000000000000000000000000000007E
:0E364C00000000000000000000000000000070
:102EF20090037DEBF0A3EAF0A3E9F0900003121235
:102F0200C3FF900379E0FBA3E0FAA3E0F9A3E0FE9C
:102F1200F582758300EF12130290037DE0FBA3E0BC
:102F2200FAA3E0F99000021212C3FFEE2401FDE4BD
:102F320033FC900379E0FBA3E0FAA3E0F98D828CE5
:102F420083EF12130290037DE0FBA3E0FAA3E0F902
:102F52009000011212C3FFEE2402FDE433FC900341
:102F620079E0FBA3E0FAA3E0F98D828C83EF1213E0
:102F72000290037DE0FBA3E0FAA3E0F91212AAFF9C
:102F8200EE2403FDE433FC900379E0FBA3E0FAA313
:0A2F9200E0F98D828C83EF02130238
:103C170090036FE0900375F01228C5E4900370F0ED
:103C270090036FE0FF123045900370E0FEC39F5092
:103C37001774952EF582E43404F583E0FF123E53A2
:083C4700900370E004F080D846
:013C4F002252
:1028C50090037112151F900375E0FFD3940A40031E
:1028D5000229F8EF70030229F8EF14B40A00400347
:1028E5000229F89028F675F003A4C58325F0C58361
:1028F5007302291402292A02294102295802296F43
:1029050002298502299B0229B10229C70229DD90E6
:1029150003797401F0A37404F0A37495F0A3740112
:10292500F0FB0229F19003797401F0A37404F0A37C
:102935007495F0A37405F07B010229F19003797475
:1029450001F0A37404F0A37495F0A37409F07B015E
:102955000229F19003797401F0A37404F0A374952E
:10296500F0A3740DF07B010229F19003797401F055
:10297500A37404F0A37495F0A37411F07B01806C2B
:102985009003797401F0A37404F0A37495F0A37413
:1029950015F07B0180569003797401F0A37404F05F
:1029A500A37495F0A37419F07B01804090037974AA
:1029B50001F0A37404F0A37495F0A3741DF07B01DA
:1029C500802A9003797401F0A37404F0A37495F040
:1029D500A37421F07B0180149003797401F0A37432
:1029E50004F0A37495F0A37425F07B017A03797143
:0429F500122EF2228A
:10304500EFD3940A5003EF70037F00229004957428
:1030550024F0EF14B40A0040030230E790306F7596
:10306500F003A4C58325F0C5837302308D02309625
:1030750002309F0230A80230B10230BA0230C302DA
:1030850030CC0230D50230DE90049A7405F07F060C
:103095002290049E7409F07F0A229004A2740DF018
:1030A5007F0E229004A67411F07F12229004AA7458
:1030B50015F07F16229004AE7419F07F1A22900441
:1030C500B2741DF07F1E229004B67421F07F222277
:1030D5009004BA7425F07F26229004BE7429F07FEF
:0530E5002A227F0022F9
:01473D002259
:01473E002258
:01473F002257
:014740002256
:014741002255
:103CE60090029E7440F0A37402F0A312151F900276
:103CF600A57401F0E4A3F0A304F0A3F0E4A3F0A3F9
:0C3D0600F07B017A02799E7F0102080028
:103555007F007EC27D017C00123CE6123DDD1241FA
:103565005DE4FD7F011242D7124210E490028CF017
:10357500A37480F07B017A02798C7F03122008D234
:10358500B743BA80E490028EF0A3F0A3F0A304F051
:10359500E4A3F0A3F0A3F0A3F0A3F0A3F0A3F0A39A
:1035A500F0A3F0A3F0A3F0A3F07B017A02798EFFDC
:1035B50012159253BA7F7DA07C0FE4FF123A7B90DF
:1035C500029F12152B3DCCCCCDE4FF122C081246E0
:0335D500CBD2AFA7
:0135D80022D0
:03000B0002191DBA
:10191800C2AF80FE3212191C85D00B75D008AAE020
:10192800C28CE58A2443F58AE58C34F6F58CD28C92
:10193800EC240FF8E6BC090274FFC39581B41400C7
:1019480040CE790A786216E608700BC2AFE630E13D
:10195800034418F6D2AF08D9EDEA8BD0300C012237
:10196800D50DFCC0E0C0D0C0F0C083C082C000C0AC
:1019780001C002C003C004C005C006C007E50C23AF
:101988002463F87440C2AF46F6D2AFD20CE50CFF20
:10199800232463F80F0808BF0A047F007863E63041
:1019A800E4F200E50CC39F5020050C740E250CF8DA
:1019B800E6FDA68108E6AE0CBE090274FFCDF8E884
:1019C8006D60E008E6C0E080F6E50CD39F4027E5AF
:1019D8000C240FF8E6AE0CBE090274FFFD18E6CD24
:1019E800F8E5816D6006D0E0F61880F5E50C240E68
:1019F800C8F6150C80D3750D0AE50C232463F87F0F
:101A080004C2AFE610E61E30E00310E20C7F00309F
:101A1800E10730E3047F0854F4547CC6D2AF548005
:101A28004207C20C22F6D2AFD007D006D005D004A8
:101A3800D003D002D001D000D082D083D0F0D0D053
:0E1A4800D0E0C20C22780EA68174096006FF61
:101A56000876FFDFFB7F0AE47862F608F608DFFA0D
:101A660078637630904554740193C0E0E493C0E007
:101A7600750D0A438901758A3C758CF6D28CD2AFF6
:041A8600D2A92209B6
:101A8A00EFD3940940037FFF2274632F2FF8E620D7
:101A9A00E5F4C2AFE64430F6D2AFAE0CEEC39F50C7
:101AAA00210E740E2EF8E6F908E618BE090274FF34
:101ABA00FDED69600909E71919F7090980F3161696
:101ACA0080DAEED39F400405810581EED39F402240
:101ADA00740E2EF808E6F9EEB50C02A9811806066E
:101AEA00E6FDED6960091919E70909F71980F31E7E
:101AFA0080D9EF240EF8E604F8EF2F0490455493AA
:091B0A00F608EF2F93F67F00228C
:101B1300EFD3940940037FFF22EF232463F8E630D9
:101B2300E5F4C2AFE6548CF6D2AFE50CB5070A7400
:101B33000E2FF8E6F581021993502E740F2FF8E655
:101B4300BF090274FFFD18E6F9740E2FF8FBE6FCDB
:101B5300E96C6008A805E7F61D1980F4A803A6053B
:101B63001FE50CB507E37F0022740F2FF8E6FD187D
:101B730086010F740E2FF8A601088604E50CB5073D
:101B830002AC81ED6C60080D09A805E6F780F4E569
:091B93000CB507DE89817F0022F8
:101B9C008FF0E4FFFEE50C232462F8C2A930F70DA8
:101BAC007F08E6600B2DF660325030800730F1066E
:101BBC00EDF660277E020830F010C2AFE610E72584
:101BCC000E30E20CD2AF7F048014C2AFE610E715E2
:101BDC0054EC4EF6D2AFD2A90219937F0808EF4409
:0F1BEC0083F4C2AF56C6D2AFD2A954804FFF22A6
:100EE000021295E86480F8E933E83360110460F099
:100EF000ED33EC337009E8FCE9FDEAFEEBFF220478
:100F000060DED3EB9FEA9EE99DE8C2E78CF0C2F772
:100F100095F0400CE8CCF8E9CDF9EACEFAEBCFFB3E
:100F200012126085D0F05804700320D5B3E8047025
:100F3000075002B2D502129F92D5EC0460F7E4CCC0
:100F4000C0E0C398F8603B94186008400DD0E0FB07
:100F5000021277E4FBFAC9FC8028E830E406E4C911
:100F6000FBE4CAFCE830E305E4C9CACBFCE854075B
:100F70006010F8C3E913F9EA13FAEB13FBEC13FC66
:100F8000D8F130F52FC3E49CFCEF9BFFEE9AFEED09
:100F900099FDD0E0FBEF4E4D4C701222DB030212A4
:100FA0009CEC2CFCEF33FFEE33FEED33FDED30E730
:100FB000EB021277EF2BFFEE3AFEED39FDD0E0FBAE
:100FC00050130BBB000302129FED13FDEE13FEEF57
:080FD00013FFEC13FC02127781
:100FD800EC4D6011E8497017ED33EC3304600DE413
:100FE800FCFFFEFD22E933E8330470F80212951283
:100FF800126058046009E4CC248150062850090284
:10100800129F28400302129CC0E0EB4A7044B9804A
:1010180006D0E0FB02128BEF4E701CBD8008EBFF80
:10102800EAFEE9FD80EBE98DF0A4FEE5F00210C1CF
:10103800E9CDF9EAFEEBFFEF89F0A4FCE5F0CE89F3
:10104800F0A42EFFE435F0CD89F0A42DFEE435F0B0
:101058008067EF4E7005BD80D780C3EF8BF0A4ACDE
:10106800F0EE8BF0A42CFCE435F0F8EF8AF0A42C19
:10107800E5F038FCE433CB8DF0A42CFCE5F03BF82C
:10108800EE8AF0A42CFCE5F038F8E433CF89F0A41C
:101098002CFCE5F038CF3400CE89F0A42FFFE5F022
:1010A8003EFEE433C98DF0A42EFEE5F039CD8AF07A
:1010B800A42FFFE5F03EFEE43DFD33D0E0FB5007F2
:1010C8000BBB000F02129FEC2CFCEF33FFEE33FE3C
:0610D800ED33FD0212776A
:1010DE0002129FEC5D046005E8590470030212953C
:1010EE00121260580460F6EC4860F2EC7004FDFEDB
:1010FE00FF22C860DB2481C85009C39860025006E5
:10110E0002129C9850CAF582E9294B4A7005AB82AF
:10111E0002128B75F0007C1A7880C3EF9BEE9AED6D
:10112E0099400DC3EF9BFFEE9AFEED99FDE842F05C
:10113E00DC23ACF0D0E0FFD0E0FED0E0FDAB8220AF
:10114E00E7101BEB60BAEC2CFCEF33FFEE33FEED39
:10115E0033FD021277E803F830E705C0F075F000B2
:10116E00EF2FFFEE33FEED33FD40B830E7C280AA1D
:10117E0074F8CC6480CCC86480C8F582046043C324
:10118E00EB9FF5F0EA9E42F0E99D42F0E89C45F0B7
:10119E0060305018E5825FFFE582F42B5582FB50DC
:1011AE00210ABA001D09B90019088016E5825BFBF9
:1011BE00E582F42F5582FF50090EBE00050DBD00CD
:1011CE00010CC3EB9FF5F0EA9E42F0E99D42F0E878
:0D11DE009C45F06007CC4820E701B3EC22EF
:1011EB0075F020800E75F010800575F0087D007E7F
:1011FB00007F003392D530D5031214BDEC33401071
:10120B00EF33FFEE33FEED33FDEC33FCD5F0ED2287
:0E121B00E5F0247EA2D513CC92E7CDCEFF22C3
:10122900EDD2E7CD33EC3392D524814006E4FFFEBD
:10123900FDFC22FCE4CFCECDCC24E0501174FF801C
:10124900EDC3CC13CCCD13CDCE13CECF13CF0470B9
:07125900F030D5DE0214BDE8
:10126000E9D2E7C933E833F892D5EDD2E7CD33ECD4
:0712700033FC5002B2D5224D
:10127700EC30E7100FBF000C0EBE00080DBD0004D8
:101287000BEB6014A2D5EB13FCED92E7FD2274FF84
:10129700FCFDFEFF22E480F8A2D574FF13FC7D80DD
:0312A700E480EFF1
:030000000232B019
:0C32B000787FE4F6D8FD7581750232F7D6
:1012AA00BB010689828A83E0225002E722BBFE0242
:0912BA00E32289828A83E4932275
:1012C300BB010CE58229F582E5833AF583E02250E0
:1012D30006E92582F8E622BBFE06E92582F8E2222A
:0D12E300E58229F582E5833AF583E4932244
:1012F000BB010689828A83F0225002F722BBFE01DD
:02130000F322D6
:10130200F8BB010DE58229F582E5833AF583E8F021
:10131200225006E92582C8F622BBFE05E92582C8CD
:02132200F222B5
:10132400EF8DF0A4A8F0CF8CF0A428CE8DF0A42EDD
:02133400FE2297
:10133600BC000BBE0029EF8DF084FFADF022E4CC9B
:10134600F875F008EF2FFFEE33FEEC33FCEE9DEC64
:10135600984005FCEE9DFE0FD5F0E9E4CEFD22EDAA
:10136600F8F5F0EE8420D21CFEADF075F008EF2FF4
:10137600FFED33FD4007985006D5F0F222C398FDE5
:051386000FD5F0EA2282
:10138B00C5F0F8A3E028F0C5F0F8E58215827002ED
:06139B001583E038F0228A
:1013A100A3F8E0C5F025F0F0E582158270021583FF
:0613B100E0C838F0E8225C
:1013B700BB0110E58229F582E5833AF583E0F5F074
:1013C700A3E0225009E92582F886F008E622BBFE51
:1013D7000AE92582F8E2F5F008E222E5832AF58397
:0813E700E993F5F0A3E993225C
:1013EF0075F008758200EF2FFFEE33FECD33CDCCB5
:1013FF0033CCC58233C5829BED9AEC99E582984038
:10140F000CF582EE9BFEED9AFDEC99FC0FD5F0D614
:10141F00E4CEFBE4CDFAE4CCF9A88222B800C1B93E
:10142F000059BA002DEC8BF084CFCECDFCE5F0CB7C
:10143F00F97818EF2FFFEE33FEED33FDEC33FCEBB5
:10144F0033FB10D703994004EB99FB0FD8E5E4F970
:10145F00FA227818EF2FFFEE33FEED33FDEC33FC5D
:10146F00C933C910D7059BE99A4007EC9BFCE99A51
:10147F00F90FD8E0E4C9FAE4CCFB2275F010EF2F96
:10148F00FFEE33FEED33FDCC33CCC833C810D70796
:10149F009BEC9AE899400AED9BFDEC9AFCE899F8D1
:0E14AF000FD5F0DAE4CDFBE4CCFAE4C8F92264
:103B5500C2D5E830E70FB2D5E4C39BFBE49AFAE49B
:103B650099F9E498F8EC30E717B2D5123B8B1214AB
:103B75002BE4C39BFBE49AFAE499F9E498F88003F3
:103B850012142B30D50DE4C39FFFE49EFEE49DFD8A
:043B9500E49CFC228E
:0E14BD00C3E49FFFE49EFEE49DFDE49CFC2240
:1014CB00EB9FF5F0EA9E42F0E99D42F0E89C45F077
:0114DB0022EE
:1014DC00E8600FECC313FCED13FDEE13FEEF13FFEE
:0314EC00D8F12212
:1014EF00BB010DE58229F582E5833AF58302156983
:1014FF005007E92582F802155CBBFE07E92582F843
:10150F00021575E58229F582E5833AF58302158286
:0C151F00ECF0A3EDF0A3EEF0A3EFF0223F
:10152B00A8828583F0D083D0821215421215421205
:10153B001542121542E473E493A3C583C5F0C5832A
:10154B00C8C582C8F0A3C583C5F0C583C8C582C80A
:01155B00226D
:1032BC00021A4DE493A3F8E493A34003F68001F2C1
:1032CC0008DFF48029E493A3F85407240CC8C33313
:1032DC00C4540F4420C8834004F456800146F6DFE2
:1032EC00E4800B01020408102040809035D9E47E64
:1032FC00019360BCA3FF543F30E509541FFEE493D7
:10330C00A360010ECF54C025E060A840B8E493A39D
:10331C00FAE493A3F8E493A3C8C582C8CAC583CAC8
:10332C00F0A3C8C582C8CAC583CADFE9DEE780BE80
:01365A00006F
:0D155C00E6FB08E6F908E6FA08E6CBF822FF
:0C156900E0F8A3E0F9A3E0FAA3E0FB2205
:0D157500E2FB08E2F908E2FA08E2CBF822F6
:10158200E493F8740193F9740293FA740393FB22BF
:00000001FF
